{
	"ViewInSolidity.sol": {
		"ViewSample": {
			"abi": [
				{
					"inputs": [],
					"name": "calculate",
					"outputs": [
						{
							"internalType": "uint256",
							"name": "product",
							"type": "uint256"
						},
						{
							"internalType": "uint256",
							"name": "sum",
							"type": "uint256"
						}
					],
					"stateMutability": "view",
					"type": "function"
				},
				{
					"inputs": [],
					"name": "get",
					"outputs": [
						{
							"internalType": "uint256",
							"name": "",
							"type": "uint256"
						},
						{
							"internalType": "uint256",
							"name": "",
							"type": "uint256"
						}
					],
					"stateMutability": "view",
					"type": "function"
				}
			],
			"devdoc": {
				"kind": "dev",
				"methods": {},
				"version": 1
			},
			"evm": {
				"assembly": "    /* \"ViewInSolidity.sol\":68:666  contract ViewSample {... */\n  mstore(0x40, 0x80)\n    /* \"ViewInSolidity.sol\":110:112  10 */\n  0x0a\n    /* \"ViewInSolidity.sol\":95:112  uint256 num1 = 10 */\n  0x00\n  sstore\n    /* \"ViewInSolidity.sol\":134:136  20 */\n  0x14\n    /* \"ViewInSolidity.sol\":119:136  uint256 num2 = 20 */\n  0x01\n  sstore\n    /* \"ViewInSolidity.sol\":68:666  contract ViewSample {... */\n  callvalue\n  dup1\n  iszero\n  tag_1\n  jumpi\n  0x00\n  dup1\n  revert\ntag_1:\n  pop\n  dataSize(sub_0)\n  dup1\n  dataOffset(sub_0)\n  0x00\n  codecopy\n  0x00\n  return\nstop\n\nsub_0: assembly {\n        /* \"ViewInSolidity.sol\":68:666  contract ViewSample {... */\n      mstore(0x40, 0x80)\n      callvalue\n      dup1\n      iszero\n      tag_1\n      jumpi\n      0x00\n      dup1\n      revert\n    tag_1:\n      pop\n      jumpi(tag_2, lt(calldatasize, 0x04))\n      shr(0xe0, calldataload(0x00))\n      dup1\n      0x6d4ce63c\n      eq\n      tag_3\n      jumpi\n      dup1\n      0xca77ab65\n      eq\n      tag_4\n      jumpi\n    tag_2:\n      0x00\n      dup1\n      revert\n        /* \"ViewInSolidity.sol\":145:236  function get() public view returns(uint256, uint256) {... */\n    tag_3:\n      tag_5\n      tag_6\n      jump\t// in\n    tag_5:\n      mload(0x40)\n      tag_7\n      swap3\n      swap2\n      swap1\n      tag_8\n      jump\t// in\n    tag_7:\n      mload(0x40)\n      dup1\n      swap2\n      sub\n      swap1\n      return\n        /* \"ViewInSolidity.sol\":244:663  function calculate() public view returns(uint256 product, uint256 sum){... */\n    tag_4:\n      tag_9\n      tag_10\n      jump\t// in\n    tag_9:\n      mload(0x40)\n      tag_11\n      swap3\n      swap2\n      swap1\n      tag_8\n      jump\t// in\n    tag_11:\n      mload(0x40)\n      dup1\n      swap2\n      sub\n      swap1\n      return\n        /* \"ViewInSolidity.sol\":145:236  function get() public view returns(uint256, uint256) {... */\n    tag_6:\n        /* \"ViewInSolidity.sol\":180:187  uint256 */\n      0x00\n        /* \"ViewInSolidity.sol\":189:196  uint256 */\n      dup1\n        /* \"ViewInSolidity.sol\":217:221  num1 */\n      sload(0x00)\n        /* \"ViewInSolidity.sol\":223:227  num2 */\n      sload(0x01)\n        /* \"ViewInSolidity.sol\":209:228  return (num1, num2) */\n      swap2\n      pop\n      swap2\n      pop\n        /* \"ViewInSolidity.sol\":145:236  function get() public view returns(uint256, uint256) {... */\n      swap1\n      swap2\n      jump\t// out\n        /* \"ViewInSolidity.sol\":244:663  function calculate() public view returns(uint256 product, uint256 sum){... */\n    tag_10:\n        /* \"ViewInSolidity.sol\":285:300  uint256 product */\n      0x00\n        /* \"ViewInSolidity.sol\":302:313  uint256 sum */\n      dup1\n        /* \"ViewInSolidity.sol\":624:628  num2 */\n      sload(0x01)\n        /* \"ViewInSolidity.sol\":619:623  num1 */\n      sload(0x00)\n        /* \"ViewInSolidity.sol\":619:628  num1*num2 */\n      tag_14\n      swap2\n      swap1\n      tag_15\n      jump\t// in\n    tag_14:\n        /* \"ViewInSolidity.sol\":609:628  product = num1*num2 */\n      swap2\n      pop\n        /* \"ViewInSolidity.sol\":651:655  num2 */\n      sload(0x01)\n        /* \"ViewInSolidity.sol\":646:650  num1 */\n      sload(0x00)\n        /* \"ViewInSolidity.sol\":646:655  num1+num2 */\n      tag_16\n      swap2\n      swap1\n      tag_17\n      jump\t// in\n    tag_16:\n        /* \"ViewInSolidity.sol\":640:655  sum = num1+num2 */\n      swap1\n      pop\n        /* \"ViewInSolidity.sol\":244:663  function calculate() public view returns(uint256 product, uint256 sum){... */\n      swap1\n      swap2\n      jump\t// out\n        /* \"#utility.yul\":7:84   */\n    tag_18:\n        /* \"#utility.yul\":44:51   */\n      0x00\n        /* \"#utility.yul\":73:78   */\n      dup2\n        /* \"#utility.yul\":62:78   */\n      swap1\n      pop\n        /* \"#utility.yul\":7:84   */\n      swap2\n      swap1\n      pop\n      jump\t// out\n        /* \"#utility.yul\":90:208   */\n    tag_19:\n        /* \"#utility.yul\":177:201   */\n      tag_24\n        /* \"#utility.yul\":195:200   */\n      dup2\n        /* \"#utility.yul\":177:201   */\n      tag_18\n      jump\t// in\n    tag_24:\n        /* \"#utility.yul\":172:175   */\n      dup3\n        /* \"#utility.yul\":165:202   */\n      mstore\n        /* \"#utility.yul\":90:208   */\n      pop\n      pop\n      jump\t// out\n        /* \"#utility.yul\":214:546   */\n    tag_8:\n        /* \"#utility.yul\":335:339   */\n      0x00\n        /* \"#utility.yul\":373:375   */\n      0x40\n        /* \"#utility.yul\":362:371   */\n      dup3\n        /* \"#utility.yul\":358:376   */\n      add\n        /* \"#utility.yul\":350:376   */\n      swap1\n      pop\n        /* \"#utility.yul\":386:457   */\n      tag_26\n        /* \"#utility.yul\":454:455   */\n      0x00\n        /* \"#utility.yul\":443:452   */\n      dup4\n        /* \"#utility.yul\":439:456   */\n      add\n        /* \"#utility.yul\":430:436   */\n      dup6\n        /* \"#utility.yul\":386:457   */\n      tag_19\n      jump\t// in\n    tag_26:\n        /* \"#utility.yul\":467:539   */\n      tag_27\n        /* \"#utility.yul\":535:537   */\n      0x20\n        /* \"#utility.yul\":524:533   */\n      dup4\n        /* \"#utility.yul\":520:538   */\n      add\n        /* \"#utility.yul\":511:517   */\n      dup5\n        /* \"#utility.yul\":467:539   */\n      tag_19\n      jump\t// in\n    tag_27:\n        /* \"#utility.yul\":214:546   */\n      swap4\n      swap3\n      pop\n      pop\n      pop\n      jump\t// out\n        /* \"#utility.yul\":552:732   */\n    tag_20:\n        /* \"#utility.yul\":600:677   */\n      0x4e487b7100000000000000000000000000000000000000000000000000000000\n        /* \"#utility.yul\":597:598   */\n      0x00\n        /* \"#utility.yul\":590:678   */\n      mstore\n        /* \"#utility.yul\":697:701   */\n      0x11\n        /* \"#utility.yul\":694:695   */\n      0x04\n        /* \"#utility.yul\":687:702   */\n      mstore\n        /* \"#utility.yul\":721:725   */\n      0x24\n        /* \"#utility.yul\":718:719   */\n      0x00\n        /* \"#utility.yul\":711:726   */\n      revert\n        /* \"#utility.yul\":738:1148   */\n    tag_15:\n        /* \"#utility.yul\":778:785   */\n      0x00\n        /* \"#utility.yul\":801:821   */\n      tag_30\n        /* \"#utility.yul\":819:820   */\n      dup3\n        /* \"#utility.yul\":801:821   */\n      tag_18\n      jump\t// in\n    tag_30:\n        /* \"#utility.yul\":796:821   */\n      swap2\n      pop\n        /* \"#utility.yul\":835:855   */\n      tag_31\n        /* \"#utility.yul\":853:854   */\n      dup4\n        /* \"#utility.yul\":835:855   */\n      tag_18\n      jump\t// in\n    tag_31:\n        /* \"#utility.yul\":830:855   */\n      swap3\n      pop\n        /* \"#utility.yul\":890:891   */\n      dup3\n        /* \"#utility.yul\":887:888   */\n      dup3\n        /* \"#utility.yul\":883:892   */\n      mul\n        /* \"#utility.yul\":912:942   */\n      tag_32\n        /* \"#utility.yul\":930:941   */\n      dup2\n        /* \"#utility.yul\":912:942   */\n      tag_18\n      jump\t// in\n    tag_32:\n        /* \"#utility.yul\":901:942   */\n      swap2\n      pop\n        /* \"#utility.yul\":1091:1092   */\n      dup3\n        /* \"#utility.yul\":1082:1089   */\n      dup3\n        /* \"#utility.yul\":1078:1093   */\n      div\n        /* \"#utility.yul\":1075:1076   */\n      dup5\n        /* \"#utility.yul\":1072:1094   */\n      eq\n        /* \"#utility.yul\":1052:1053   */\n      dup4\n        /* \"#utility.yul\":1045:1054   */\n      iszero\n        /* \"#utility.yul\":1025:1108   */\n      or\n        /* \"#utility.yul\":1002:1141   */\n      tag_33\n      jumpi\n        /* \"#utility.yul\":1121:1139   */\n      tag_34\n      tag_20\n      jump\t// in\n    tag_34:\n        /* \"#utility.yul\":1002:1141   */\n    tag_33:\n        /* \"#utility.yul\":786:1148   */\n      pop\n        /* \"#utility.yul\":738:1148   */\n      swap3\n      swap2\n      pop\n      pop\n      jump\t// out\n        /* \"#utility.yul\":1154:1345   */\n    tag_17:\n        /* \"#utility.yul\":1194:1197   */\n      0x00\n        /* \"#utility.yul\":1213:1233   */\n      tag_36\n        /* \"#utility.yul\":1231:1232   */\n      dup3\n        /* \"#utility.yul\":1213:1233   */\n      tag_18\n      jump\t// in\n    tag_36:\n        /* \"#utility.yul\":1208:1233   */\n      swap2\n      pop\n        /* \"#utility.yul\":1247:1267   */\n      tag_37\n        /* \"#utility.yul\":1265:1266   */\n      dup4\n        /* \"#utility.yul\":1247:1267   */\n      tag_18\n      jump\t// in\n    tag_37:\n        /* \"#utility.yul\":1242:1267   */\n      swap3\n      pop\n        /* \"#utility.yul\":1290:1291   */\n      dup3\n        /* \"#utility.yul\":1287:1288   */\n      dup3\n        /* \"#utility.yul\":1283:1292   */\n      add\n        /* \"#utility.yul\":1276:1292   */\n      swap1\n      pop\n        /* \"#utility.yul\":1311:1314   */\n      dup1\n        /* \"#utility.yul\":1308:1309   */\n      dup3\n        /* \"#utility.yul\":1305:1315   */\n      gt\n        /* \"#utility.yul\":1302:1338   */\n      iszero\n      tag_38\n      jumpi\n        /* \"#utility.yul\":1318:1336   */\n      tag_39\n      tag_20\n      jump\t// in\n    tag_39:\n        /* \"#utility.yul\":1302:1338   */\n    tag_38:\n        /* \"#utility.yul\":1154:1345   */\n      swap3\n      swap2\n      pop\n      pop\n      jump\t// out\n\n    auxdata: 0xa26469706673582212204fe15cfc5a9abd6dfe028c25fd1daf3e1371f517cadfa4e975b5c74ec0a1335f64736f6c63430008180033\n}\n",
				"bytecode": {
					"linkReferences": {},
					"object": "6080604052600a5f556014600155348015610018575f80fd5b506101c3806100265f395ff3fe608060405234801561000f575f80fd5b5060043610610034575f3560e01c80636d4ce63c14610038578063ca77ab6514610057575b5f80fd5b610040610076565b60405161004e9291906100c5565b60405180910390f35b61005f610085565b60405161006d9291906100c5565b60405180910390f35b5f805f54600154915091509091565b5f806001545f546100969190610119565b91506001545f546100a7919061015a565b90509091565b5f819050919050565b6100bf816100ad565b82525050565b5f6040820190506100d85f8301856100b6565b6100e560208301846100b6565b9392505050565b7f4e487b71000000000000000000000000000000000000000000000000000000005f52601160045260245ffd5b5f610123826100ad565b915061012e836100ad565b925082820261013c816100ad565b91508282048414831517610153576101526100ec565b5b5092915050565b5f610164826100ad565b915061016f836100ad565b9250828201905080821115610187576101866100ec565b5b9291505056fea26469706673582212204fe15cfc5a9abd6dfe028c25fd1daf3e1371f517cadfa4e975b5c74ec0a1335f64736f6c63430008180033",
					"opcodes": "PUSH1 0x80 PUSH1 0x40 MSTORE PUSH1 0xA PUSH0 SSTORE PUSH1 0x14 PUSH1 0x1 SSTORE CALLVALUE DUP1 ISZERO PUSH2 0x18 JUMPI PUSH0 DUP1 REVERT JUMPDEST POP PUSH2 0x1C3 DUP1 PUSH2 0x26 PUSH0 CODECOPY PUSH0 RETURN INVALID PUSH1 0x80 PUSH1 0x40 MSTORE CALLVALUE DUP1 ISZERO PUSH2 0xF JUMPI PUSH0 DUP1 REVERT JUMPDEST POP PUSH1 0x4 CALLDATASIZE LT PUSH2 0x34 JUMPI PUSH0 CALLDATALOAD PUSH1 0xE0 SHR DUP1 PUSH4 0x6D4CE63C EQ PUSH2 0x38 JUMPI DUP1 PUSH4 0xCA77AB65 EQ PUSH2 0x57 JUMPI JUMPDEST PUSH0 DUP1 REVERT JUMPDEST PUSH2 0x40 PUSH2 0x76 JUMP JUMPDEST PUSH1 0x40 MLOAD PUSH2 0x4E SWAP3 SWAP2 SWAP1 PUSH2 0xC5 JUMP JUMPDEST PUSH1 0x40 MLOAD DUP1 SWAP2 SUB SWAP1 RETURN JUMPDEST PUSH2 0x5F PUSH2 0x85 JUMP JUMPDEST PUSH1 0x40 MLOAD PUSH2 0x6D SWAP3 SWAP2 SWAP1 PUSH2 0xC5 JUMP JUMPDEST PUSH1 0x40 MLOAD DUP1 SWAP2 SUB SWAP1 RETURN JUMPDEST PUSH0 DUP1 PUSH0 SLOAD PUSH1 0x1 SLOAD SWAP2 POP SWAP2 POP SWAP1 SWAP2 JUMP JUMPDEST PUSH0 DUP1 PUSH1 0x1 SLOAD PUSH0 SLOAD PUSH2 0x96 SWAP2 SWAP1 PUSH2 0x119 JUMP JUMPDEST SWAP2 POP PUSH1 0x1 SLOAD PUSH0 SLOAD PUSH2 0xA7 SWAP2 SWAP1 PUSH2 0x15A JUMP JUMPDEST SWAP1 POP SWAP1 SWAP2 JUMP JUMPDEST PUSH0 DUP2 SWAP1 POP SWAP2 SWAP1 POP JUMP JUMPDEST PUSH2 0xBF DUP2 PUSH2 0xAD JUMP JUMPDEST DUP3 MSTORE POP POP JUMP JUMPDEST PUSH0 PUSH1 0x40 DUP3 ADD SWAP1 POP PUSH2 0xD8 PUSH0 DUP4 ADD DUP6 PUSH2 0xB6 JUMP JUMPDEST PUSH2 0xE5 PUSH1 0x20 DUP4 ADD DUP5 PUSH2 0xB6 JUMP JUMPDEST SWAP4 SWAP3 POP POP POP JUMP JUMPDEST PUSH32 0x4E487B7100000000000000000000000000000000000000000000000000000000 PUSH0 MSTORE PUSH1 0x11 PUSH1 0x4 MSTORE PUSH1 0x24 PUSH0 REVERT JUMPDEST PUSH0 PUSH2 0x123 DUP3 PUSH2 0xAD JUMP JUMPDEST SWAP2 POP PUSH2 0x12E DUP4 PUSH2 0xAD JUMP JUMPDEST SWAP3 POP DUP3 DUP3 MUL PUSH2 0x13C DUP2 PUSH2 0xAD JUMP JUMPDEST SWAP2 POP DUP3 DUP3 DIV DUP5 EQ DUP4 ISZERO OR PUSH2 0x153 JUMPI PUSH2 0x152 PUSH2 0xEC JUMP JUMPDEST JUMPDEST POP SWAP3 SWAP2 POP POP JUMP JUMPDEST PUSH0 PUSH2 0x164 DUP3 PUSH2 0xAD JUMP JUMPDEST SWAP2 POP PUSH2 0x16F DUP4 PUSH2 0xAD JUMP JUMPDEST SWAP3 POP DUP3 DUP3 ADD SWAP1 POP DUP1 DUP3 GT ISZERO PUSH2 0x187 JUMPI PUSH2 0x186 PUSH2 0xEC JUMP JUMPDEST JUMPDEST SWAP3 SWAP2 POP POP JUMP INVALID LOG2 PUSH5 0x6970667358 0x22 SLT KECCAK256 0x4F 0xE1 TLOAD 0xFC GAS SWAP11 0xBD PUSH14 0xFE028C25FD1DAF3E1371F517CADF LOG4 0xE9 PUSH22 0xB5C74EC0A1335F64736F6C6343000818003300000000 "
				},
				"gasEstimates": {
					"creation": {
						"codeDepositCost": "90200",
						"executionCost": "44350",
						"totalCost": "134550"
					},
					"external": {
						"calculate()": "infinite",
						"get()": "infinite"
					}
				},
				"methodIdentifiers": {
					"calculate()": "ca77ab65",
					"get()": "6d4ce63c"
				}
			},
			"storageLayout": {
				"storage": [
					{
						"astId": 4,
						"contract": "ViewInSolidity.sol:ViewSample",
						"label": "num1",
						"offset": 0,
						"slot": "0",
						"type": "t_uint256"
					},
					{
						"astId": 7,
						"contract": "ViewInSolidity.sol:ViewSample",
						"label": "num2",
						"offset": 0,
						"slot": "1",
						"type": "t_uint256"
					}
				],
				"types": {
					"t_uint256": {
						"encoding": "inplace",
						"label": "uint256",
						"numberOfBytes": "32"
					}
				}
			},
			"userdoc": {
				"kind": "user",
				"methods": {},
				"version": 1
			}
		}
	}
}