{
	"PureInSolidity.sol": {
		"PureSample": {
			"abi": [
				{
					"inputs": [],
					"name": "update",
					"outputs": [
						{
							"internalType": "uint256",
							"name": "",
							"type": "uint256"
						}
					],
					"stateMutability": "pure",
					"type": "function"
				}
			],
			"devdoc": {
				"kind": "dev",
				"methods": {},
				"version": 1
			},
			"evm": {
				"assembly": "    /* \"PureInSolidity.sol\":69:360  contract PureSample {... */\n  mstore(0x40, 0x80)\n    /* \"PureInSolidity.sol\":109:111  10 */\n  0x0a\n    /* \"PureInSolidity.sol\":96:111  uint256 age =10 */\n  0x00\n  sstore\n    /* \"PureInSolidity.sol\":69:360  contract PureSample {... */\n  callvalue\n  dup1\n  iszero\n  tag_1\n  jumpi\n  0x00\n  dup1\n  revert\ntag_1:\n  pop\n  dataSize(sub_0)\n  dup1\n  dataOffset(sub_0)\n  0x00\n  codecopy\n  0x00\n  return\nstop\n\nsub_0: assembly {\n        /* \"PureInSolidity.sol\":69:360  contract PureSample {... */\n      mstore(0x40, 0x80)\n      callvalue\n      dup1\n      iszero\n      tag_1\n      jumpi\n      0x00\n      dup1\n      revert\n    tag_1:\n      pop\n      jumpi(tag_2, lt(calldatasize, 0x04))\n      shr(0xe0, calldataload(0x00))\n      dup1\n      0xa2e62045\n      eq\n      tag_3\n      jumpi\n    tag_2:\n      0x00\n      dup1\n      revert\n        /* \"PureInSolidity.sol\":120:357  function update() public pure returns (uint256){... */\n    tag_3:\n      tag_4\n      tag_5\n      jump\t// in\n    tag_4:\n      mload(0x40)\n      tag_6\n      swap2\n      swap1\n      tag_7\n      jump\t// in\n    tag_6:\n      mload(0x40)\n      dup1\n      swap2\n      sub\n      swap1\n      return\n    tag_5:\n        /* \"PureInSolidity.sol\":159:166  uint256 */\n      0x00\n        /* \"PureInSolidity.sol\":303:318  uint256 rollNum */\n      dup1\n        /* \"PureInSolidity.sol\":320:322  10 */\n      0x0a\n        /* \"PureInSolidity.sol\":303:322  uint256 rollNum =10 */\n      swap1\n      pop\n        /* \"PureInSolidity.sol\":341:348  rollNum */\n      dup1\n        /* \"PureInSolidity.sol\":334:348  return rollNum */\n      swap2\n      pop\n      pop\n        /* \"PureInSolidity.sol\":120:357  function update() public pure returns (uint256){... */\n      swap1\n      jump\t// out\n        /* \"#utility.yul\":7:84   */\n    tag_9:\n        /* \"#utility.yul\":44:51   */\n      0x00\n        /* \"#utility.yul\":73:78   */\n      dup2\n        /* \"#utility.yul\":62:78   */\n      swap1\n      pop\n        /* \"#utility.yul\":7:84   */\n      swap2\n      swap1\n      pop\n      jump\t// out\n        /* \"#utility.yul\":90:208   */\n    tag_10:\n        /* \"#utility.yul\":177:201   */\n      tag_14\n        /* \"#utility.yul\":195:200   */\n      dup2\n        /* \"#utility.yul\":177:201   */\n      tag_9\n      jump\t// in\n    tag_14:\n        /* \"#utility.yul\":172:175   */\n      dup3\n        /* \"#utility.yul\":165:202   */\n      mstore\n        /* \"#utility.yul\":90:208   */\n      pop\n      pop\n      jump\t// out\n        /* \"#utility.yul\":214:436   */\n    tag_7:\n        /* \"#utility.yul\":307:311   */\n      0x00\n        /* \"#utility.yul\":345:347   */\n      0x20\n        /* \"#utility.yul\":334:343   */\n      dup3\n        /* \"#utility.yul\":330:348   */\n      add\n        /* \"#utility.yul\":322:348   */\n      swap1\n      pop\n        /* \"#utility.yul\":358:429   */\n      tag_16\n        /* \"#utility.yul\":426:427   */\n      0x00\n        /* \"#utility.yul\":415:424   */\n      dup4\n        /* \"#utility.yul\":411:428   */\n      add\n        /* \"#utility.yul\":402:408   */\n      dup5\n        /* \"#utility.yul\":358:429   */\n      tag_10\n      jump\t// in\n    tag_16:\n        /* \"#utility.yul\":214:436   */\n      swap3\n      swap2\n      pop\n      pop\n      jump\t// out\n\n    auxdata: 0xa264697066735822122033a468b7cfc44d61723678702d00d0da5ed621825361466ea7220b78e3aad79f64736f6c63430008180033\n}\n",
				"bytecode": {
					"linkReferences": {},
					"object": "6080604052600a5f55348015610013575f80fd5b5060b4806100205f395ff3fe6080604052348015600e575f80fd5b50600436106026575f3560e01c8063a2e6204514602a575b5f80fd5b60306044565b604051603b91906067565b60405180910390f35b5f80600a90508091505090565b5f819050919050565b6061816051565b82525050565b5f60208201905060785f830184605a565b9291505056fea264697066735822122033a468b7cfc44d61723678702d00d0da5ed621825361466ea7220b78e3aad79f64736f6c63430008180033",
					"opcodes": "PUSH1 0x80 PUSH1 0x40 MSTORE PUSH1 0xA PUSH0 SSTORE CALLVALUE DUP1 ISZERO PUSH2 0x13 JUMPI PUSH0 DUP1 REVERT JUMPDEST POP PUSH1 0xB4 DUP1 PUSH2 0x20 PUSH0 CODECOPY PUSH0 RETURN INVALID PUSH1 0x80 PUSH1 0x40 MSTORE CALLVALUE DUP1 ISZERO PUSH1 0xE JUMPI PUSH0 DUP1 REVERT JUMPDEST POP PUSH1 0x4 CALLDATASIZE LT PUSH1 0x26 JUMPI PUSH0 CALLDATALOAD PUSH1 0xE0 SHR DUP1 PUSH4 0xA2E62045 EQ PUSH1 0x2A JUMPI JUMPDEST PUSH0 DUP1 REVERT JUMPDEST PUSH1 0x30 PUSH1 0x44 JUMP JUMPDEST PUSH1 0x40 MLOAD PUSH1 0x3B SWAP2 SWAP1 PUSH1 0x67 JUMP JUMPDEST PUSH1 0x40 MLOAD DUP1 SWAP2 SUB SWAP1 RETURN JUMPDEST PUSH0 DUP1 PUSH1 0xA SWAP1 POP DUP1 SWAP2 POP POP SWAP1 JUMP JUMPDEST PUSH0 DUP2 SWAP1 POP SWAP2 SWAP1 POP JUMP JUMPDEST PUSH1 0x61 DUP2 PUSH1 0x51 JUMP JUMPDEST DUP3 MSTORE POP POP JUMP JUMPDEST PUSH0 PUSH1 0x20 DUP3 ADD SWAP1 POP PUSH1 0x78 PUSH0 DUP4 ADD DUP5 PUSH1 0x5A JUMP JUMPDEST SWAP3 SWAP2 POP POP JUMP INVALID LOG2 PUSH5 0x6970667358 0x22 SLT KECCAK256 CALLER LOG4 PUSH9 0xB7CFC44D6172367870 0x2D STOP 0xD0 0xDA MCOPY 0xD6 0x21 DUP3 MSTORE8 PUSH2 0x466E 0xA7 0x22 SIGNEXTEND PUSH25 0xE3AAD79F64736F6C6343000818003300000000000000000000 "
				},
				"gasEstimates": {
					"creation": {
						"codeDepositCost": "36000",
						"executionCost": "22190",
						"totalCost": "58190"
					},
					"external": {
						"update()": "323"
					}
				},
				"methodIdentifiers": {
					"update()": "a2e62045"
				}
			},
			"storageLayout": {
				"storage": [
					{
						"astId": 4,
						"contract": "PureInSolidity.sol:PureSample",
						"label": "age",
						"offset": 0,
						"slot": "0",
						"type": "t_uint256"
					}
				],
				"types": {
					"t_uint256": {
						"encoding": "inplace",
						"label": "uint256",
						"numberOfBytes": "32"
					}
				}
			},
			"userdoc": {
				"kind": "user",
				"methods": {},
				"version": 1
			}
		}
	}
}