{
	"stateVariables1.sol": {
		"StateVariables": {
			"abi": [
				{
					"inputs": [
						{
							"internalType": "string",
							"name": "_mystr",
							"type": "string"
						},
						{
							"internalType": "uint256",
							"name": "_num",
							"type": "uint256"
						}
					],
					"stateMutability": "nonpayable",
					"type": "constructor"
				},
				{
					"inputs": [],
					"name": "_bytex",
					"outputs": [
						{
							"internalType": "bytes",
							"name": "",
							"type": "bytes"
						}
					],
					"stateMutability": "view",
					"type": "function"
				},
				{
					"inputs": [],
					"name": "_bytey",
					"outputs": [
						{
							"internalType": "bytes",
							"name": "",
							"type": "bytes"
						}
					],
					"stateMutability": "view",
					"type": "function"
				},
				{
					"inputs": [
						{
							"internalType": "uint256",
							"name": "",
							"type": "uint256"
						}
					],
					"name": "arr",
					"outputs": [
						{
							"internalType": "uint256",
							"name": "",
							"type": "uint256"
						}
					],
					"stateMutability": "view",
					"type": "function"
				},
				{
					"inputs": [],
					"name": "num1",
					"outputs": [
						{
							"internalType": "uint256",
							"name": "",
							"type": "uint256"
						}
					],
					"stateMutability": "view",
					"type": "function"
				},
				{
					"inputs": [],
					"name": "num2",
					"outputs": [
						{
							"internalType": "uint256",
							"name": "",
							"type": "uint256"
						}
					],
					"stateMutability": "view",
					"type": "function"
				},
				{
					"inputs": [],
					"name": "str1",
					"outputs": [
						{
							"internalType": "string",
							"name": "",
							"type": "string"
						}
					],
					"stateMutability": "view",
					"type": "function"
				},
				{
					"inputs": [],
					"name": "str2",
					"outputs": [
						{
							"internalType": "string",
							"name": "",
							"type": "string"
						}
					],
					"stateMutability": "view",
					"type": "function"
				}
			],
			"devdoc": {
				"kind": "dev",
				"methods": {},
				"version": 1
			},
			"evm": {
				"assembly": "    /* \"stateVariables1.sol\":68:422  contract StateVariables {... */\n  mstore(0x40, 0x80)\n    /* \"stateVariables1.sol\":152:182  string public str2 =\"Harshita\" */\n  mload(0x40)\n  dup1\n  0x40\n  add\n  0x40\n  mstore\n  dup1\n  0x08\n  dup2\n  mstore\n  0x20\n  add\n  0x4861727368697461000000000000000000000000000000000000000000000000\n  dup2\n  mstore\n  pop\n  0x02\n  swap1\n  dup2\n  tag_1\n  swap2\n  swap1\n  tag_2\n  jump\t// in\ntag_1:\n  pop\n    /* \"stateVariables1.sol\":209:211  34 */\n  0x22\n    /* \"stateVariables1.sol\":190:211  uint public num2 = 34 */\n  0x03\n  sstore\n    /* \"stateVariables1.sol\":222:251  bytes public _bytex = \"mango\" */\n  mload(0x40)\n  dup1\n  0x40\n  add\n  0x40\n  mstore\n  dup1\n  0x05\n  dup2\n  mstore\n  0x20\n  add\n  0x6d616e676f000000000000000000000000000000000000000000000000000000\n  dup2\n  mstore\n  pop\n  0x04\n  swap1\n  dup2\n  tag_3\n  swap2\n  swap1\n  tag_4\n  jump\t// in\ntag_3:\n  pop\n    /* \"stateVariables1.sol\":318:417  constructor(string memory _mystr, uint _num){... */\n  callvalue\n  dup1\n  iszero\n  tag_5\n  jumpi\n  0x00\n  dup1\n  revert\ntag_5:\n  pop\n  mload(0x40)\n  sub(codesize, bytecodeSize)\n  dup1\n  bytecodeSize\n  dup4\n  codecopy\n  dup2\n  dup2\n  add\n  0x40\n  mstore\n  dup2\n  add\n  swap1\n  tag_6\n  swap2\n  swap1\n  tag_7\n  jump\t// in\ntag_6:\n    /* \"stateVariables1.sol\":380:386  _mystr */\n  dup2\n    /* \"stateVariables1.sol\":373:377  str1 */\n  0x00\n    /* \"stateVariables1.sol\":373:386  str1 = _mystr */\n  swap1\n  dup2\n  tag_10\n  swap2\n  swap1\n  tag_2\n  jump\t// in\ntag_10:\n  pop\n    /* \"stateVariables1.sol\":404:408  _num */\n  dup1\n    /* \"stateVariables1.sol\":397:401  num1 */\n  0x01\n    /* \"stateVariables1.sol\":397:408  num1 = _num */\n  dup2\n  swap1\n  sstore\n  pop\n    /* \"stateVariables1.sol\":318:417  constructor(string memory _mystr, uint _num){... */\n  pop\n  pop\n    /* \"stateVariables1.sol\":68:422  contract StateVariables {... */\n  jump(tag_11)\n    /* \"#utility.yul\":7:106   */\ntag_12:\n    /* \"#utility.yul\":59:65   */\n  0x00\n    /* \"#utility.yul\":93:98   */\n  dup2\n    /* \"#utility.yul\":87:99   */\n  mload\n    /* \"#utility.yul\":77:99   */\n  swap1\n  pop\n    /* \"#utility.yul\":7:106   */\n  swap2\n  swap1\n  pop\n  jump\t// out\n    /* \"#utility.yul\":112:292   */\ntag_13:\n    /* \"#utility.yul\":160:237   */\n  0x4e487b7100000000000000000000000000000000000000000000000000000000\n    /* \"#utility.yul\":157:158   */\n  0x00\n    /* \"#utility.yul\":150:238   */\n  mstore\n    /* \"#utility.yul\":257:261   */\n  0x41\n    /* \"#utility.yul\":254:255   */\n  0x04\n    /* \"#utility.yul\":247:262   */\n  mstore\n    /* \"#utility.yul\":281:285   */\n  0x24\n    /* \"#utility.yul\":278:279   */\n  0x00\n    /* \"#utility.yul\":271:286   */\n  revert\n    /* \"#utility.yul\":298:478   */\ntag_14:\n    /* \"#utility.yul\":346:423   */\n  0x4e487b7100000000000000000000000000000000000000000000000000000000\n    /* \"#utility.yul\":343:344   */\n  0x00\n    /* \"#utility.yul\":336:424   */\n  mstore\n    /* \"#utility.yul\":443:447   */\n  0x22\n    /* \"#utility.yul\":440:441   */\n  0x04\n    /* \"#utility.yul\":433:448   */\n  mstore\n    /* \"#utility.yul\":467:471   */\n  0x24\n    /* \"#utility.yul\":464:465   */\n  0x00\n    /* \"#utility.yul\":457:472   */\n  revert\n    /* \"#utility.yul\":484:804   */\ntag_15:\n    /* \"#utility.yul\":528:534   */\n  0x00\n    /* \"#utility.yul\":565:566   */\n  0x02\n    /* \"#utility.yul\":559:563   */\n  dup3\n    /* \"#utility.yul\":555:567   */\n  div\n    /* \"#utility.yul\":545:567   */\n  swap1\n  pop\n    /* \"#utility.yul\":612:613   */\n  0x01\n    /* \"#utility.yul\":606:610   */\n  dup3\n    /* \"#utility.yul\":602:614   */\n  and\n    /* \"#utility.yul\":633:651   */\n  dup1\n    /* \"#utility.yul\":623:704   */\n  tag_53\n  jumpi\n    /* \"#utility.yul\":689:693   */\n  0x7f\n    /* \"#utility.yul\":681:687   */\n  dup3\n    /* \"#utility.yul\":677:694   */\n  and\n    /* \"#utility.yul\":667:694   */\n  swap2\n  pop\n    /* \"#utility.yul\":623:704   */\ntag_53:\n    /* \"#utility.yul\":751:753   */\n  0x20\n    /* \"#utility.yul\":743:749   */\n  dup3\n    /* \"#utility.yul\":740:754   */\n  lt\n    /* \"#utility.yul\":720:738   */\n  dup2\n    /* \"#utility.yul\":717:755   */\n  sub\n    /* \"#utility.yul\":714:798   */\n  tag_54\n  jumpi\n    /* \"#utility.yul\":770:788   */\n  tag_55\n  tag_14\n  jump\t// in\ntag_55:\n    /* \"#utility.yul\":714:798   */\ntag_54:\n    /* \"#utility.yul\":535:804   */\n  pop\n    /* \"#utility.yul\":484:804   */\n  swap2\n  swap1\n  pop\n  jump\t// out\n    /* \"#utility.yul\":810:951   */\ntag_16:\n    /* \"#utility.yul\":859:863   */\n  0x00\n    /* \"#utility.yul\":882:885   */\n  dup2\n    /* \"#utility.yul\":874:885   */\n  swap1\n  pop\n    /* \"#utility.yul\":905:908   */\n  dup2\n    /* \"#utility.yul\":902:903   */\n  0x00\n    /* \"#utility.yul\":895:909   */\n  mstore\n    /* \"#utility.yul\":939:943   */\n  0x20\n    /* \"#utility.yul\":936:937   */\n  0x00\n    /* \"#utility.yul\":926:944   */\n  keccak256\n    /* \"#utility.yul\":918:944   */\n  swap1\n  pop\n    /* \"#utility.yul\":810:951   */\n  swap2\n  swap1\n  pop\n  jump\t// out\n    /* \"#utility.yul\":957:1050   */\ntag_17:\n    /* \"#utility.yul\":994:1000   */\n  0x00\n    /* \"#utility.yul\":1041:1043   */\n  0x20\n    /* \"#utility.yul\":1036:1038   */\n  0x1f\n    /* \"#utility.yul\":1029:1034   */\n  dup4\n    /* \"#utility.yul\":1025:1039   */\n  add\n    /* \"#utility.yul\":1021:1044   */\n  div\n    /* \"#utility.yul\":1011:1044   */\n  swap1\n  pop\n    /* \"#utility.yul\":957:1050   */\n  swap2\n  swap1\n  pop\n  jump\t// out\n    /* \"#utility.yul\":1056:1163   */\ntag_18:\n    /* \"#utility.yul\":1100:1108   */\n  0x00\n    /* \"#utility.yul\":1150:1155   */\n  dup3\n    /* \"#utility.yul\":1144:1148   */\n  dup3\n    /* \"#utility.yul\":1140:1156   */\n  shl\n    /* \"#utility.yul\":1119:1156   */\n  swap1\n  pop\n    /* \"#utility.yul\":1056:1163   */\n  swap3\n  swap2\n  pop\n  pop\n  jump\t// out\n    /* \"#utility.yul\":1169:1562   */\ntag_19:\n    /* \"#utility.yul\":1238:1244   */\n  0x00\n    /* \"#utility.yul\":1288:1289   */\n  0x08\n    /* \"#utility.yul\":1276:1286   */\n  dup4\n    /* \"#utility.yul\":1272:1290   */\n  mul\n    /* \"#utility.yul\":1311:1408   */\n  tag_60\n    /* \"#utility.yul\":1341:1407   */\n  0xffffffffffffffffffffffffffffffffffffffffffffffffffffffffffffffff\n    /* \"#utility.yul\":1330:1339   */\n  dup3\n    /* \"#utility.yul\":1311:1408   */\n  tag_18\n  jump\t// in\ntag_60:\n    /* \"#utility.yul\":1429:1468   */\n  tag_61\n    /* \"#utility.yul\":1459:1467   */\n  dup7\n    /* \"#utility.yul\":1448:1457   */\n  dup4\n    /* \"#utility.yul\":1429:1468   */\n  tag_18\n  jump\t// in\ntag_61:\n    /* \"#utility.yul\":1417:1468   */\n  swap6\n  pop\n    /* \"#utility.yul\":1501:1505   */\n  dup1\n    /* \"#utility.yul\":1497:1506   */\n  not\n    /* \"#utility.yul\":1490:1495   */\n  dup5\n    /* \"#utility.yul\":1486:1507   */\n  and\n    /* \"#utility.yul\":1477:1507   */\n  swap4\n  pop\n    /* \"#utility.yul\":1550:1554   */\n  dup1\n    /* \"#utility.yul\":1540:1548   */\n  dup7\n    /* \"#utility.yul\":1536:1555   */\n  and\n    /* \"#utility.yul\":1529:1534   */\n  dup5\n    /* \"#utility.yul\":1526:1556   */\n  or\n    /* \"#utility.yul\":1516:1556   */\n  swap3\n  pop\n    /* \"#utility.yul\":1245:1562   */\n  pop\n  pop\n    /* \"#utility.yul\":1169:1562   */\n  swap4\n  swap3\n  pop\n  pop\n  pop\n  jump\t// out\n    /* \"#utility.yul\":1568:1645   */\ntag_20:\n    /* \"#utility.yul\":1605:1612   */\n  0x00\n    /* \"#utility.yul\":1634:1639   */\n  dup2\n    /* \"#utility.yul\":1623:1639   */\n  swap1\n  pop\n    /* \"#utility.yul\":1568:1645   */\n  swap2\n  swap1\n  pop\n  jump\t// out\n    /* \"#utility.yul\":1651:1711   */\ntag_21:\n    /* \"#utility.yul\":1679:1682   */\n  0x00\n    /* \"#utility.yul\":1700:1705   */\n  dup2\n    /* \"#utility.yul\":1693:1705   */\n  swap1\n  pop\n    /* \"#utility.yul\":1651:1711   */\n  swap2\n  swap1\n  pop\n  jump\t// out\n    /* \"#utility.yul\":1717:1859   */\ntag_22:\n    /* \"#utility.yul\":1767:1776   */\n  0x00\n    /* \"#utility.yul\":1800:1853   */\n  tag_65\n    /* \"#utility.yul\":1818:1852   */\n  tag_66\n    /* \"#utility.yul\":1827:1851   */\n  tag_67\n    /* \"#utility.yul\":1845:1850   */\n  dup5\n    /* \"#utility.yul\":1827:1851   */\n  tag_20\n  jump\t// in\ntag_67:\n    /* \"#utility.yul\":1818:1852   */\n  tag_21\n  jump\t// in\ntag_66:\n    /* \"#utility.yul\":1800:1853   */\n  tag_20\n  jump\t// in\ntag_65:\n    /* \"#utility.yul\":1787:1853   */\n  swap1\n  pop\n    /* \"#utility.yul\":1717:1859   */\n  swap2\n  swap1\n  pop\n  jump\t// out\n    /* \"#utility.yul\":1865:1940   */\ntag_23:\n    /* \"#utility.yul\":1908:1911   */\n  0x00\n    /* \"#utility.yul\":1929:1934   */\n  dup2\n    /* \"#utility.yul\":1922:1934   */\n  swap1\n  pop\n    /* \"#utility.yul\":1865:1940   */\n  swap2\n  swap1\n  pop\n  jump\t// out\n    /* \"#utility.yul\":1946:2215   */\ntag_24:\n    /* \"#utility.yul\":2056:2095   */\n  tag_70\n    /* \"#utility.yul\":2087:2094   */\n  dup4\n    /* \"#utility.yul\":2056:2095   */\n  tag_22\n  jump\t// in\ntag_70:\n    /* \"#utility.yul\":2117:2208   */\n  tag_71\n    /* \"#utility.yul\":2166:2207   */\n  tag_72\n    /* \"#utility.yul\":2190:2206   */\n  dup3\n    /* \"#utility.yul\":2166:2207   */\n  tag_23\n  jump\t// in\ntag_72:\n    /* \"#utility.yul\":2158:2164   */\n  dup5\n    /* \"#utility.yul\":2151:2155   */\n  dup5\n    /* \"#utility.yul\":2145:2156   */\n  sload\n    /* \"#utility.yul\":2117:2208   */\n  tag_19\n  jump\t// in\ntag_71:\n    /* \"#utility.yul\":2111:2115   */\n  dup3\n    /* \"#utility.yul\":2104:2209   */\n  sstore\n    /* \"#utility.yul\":2022:2215   */\n  pop\n    /* \"#utility.yul\":1946:2215   */\n  pop\n  pop\n  pop\n  jump\t// out\n    /* \"#utility.yul\":2221:2294   */\ntag_25:\n    /* \"#utility.yul\":2266:2269   */\n  0x00\n    /* \"#utility.yul\":2221:2294   */\n  swap1\n  jump\t// out\n    /* \"#utility.yul\":2300:2489   */\ntag_26:\n    /* \"#utility.yul\":2377:2409   */\n  tag_75\n  tag_25\n  jump\t// in\ntag_75:\n    /* \"#utility.yul\":2418:2483   */\n  tag_76\n    /* \"#utility.yul\":2476:2482   */\n  dup2\n    /* \"#utility.yul\":2468:2474   */\n  dup5\n    /* \"#utility.yul\":2462:2466   */\n  dup5\n    /* \"#utility.yul\":2418:2483   */\n  tag_24\n  jump\t// in\ntag_76:\n    /* \"#utility.yul\":2353:2489   */\n  pop\n    /* \"#utility.yul\":2300:2489   */\n  pop\n  pop\n  jump\t// out\n    /* \"#utility.yul\":2495:2681   */\ntag_27:\n    /* \"#utility.yul\":2555:2675   */\ntag_78:\n    /* \"#utility.yul\":2572:2575   */\n  dup2\n    /* \"#utility.yul\":2565:2570   */\n  dup2\n    /* \"#utility.yul\":2562:2576   */\n  lt\n    /* \"#utility.yul\":2555:2675   */\n  iszero\n  tag_80\n  jumpi\n    /* \"#utility.yul\":2626:2665   */\n  tag_81\n    /* \"#utility.yul\":2663:2664   */\n  0x00\n    /* \"#utility.yul\":2656:2661   */\n  dup3\n    /* \"#utility.yul\":2626:2665   */\n  tag_26\n  jump\t// in\ntag_81:\n    /* \"#utility.yul\":2599:2600   */\n  0x01\n    /* \"#utility.yul\":2592:2597   */\n  dup2\n    /* \"#utility.yul\":2588:2601   */\n  add\n    /* \"#utility.yul\":2579:2601   */\n  swap1\n  pop\n    /* \"#utility.yul\":2555:2675   */\n  jump(tag_78)\ntag_80:\n    /* \"#utility.yul\":2495:2681   */\n  pop\n  pop\n  jump\t// out\n    /* \"#utility.yul\":2687:3230   */\ntag_28:\n    /* \"#utility.yul\":2788:2790   */\n  0x1f\n    /* \"#utility.yul\":2783:2786   */\n  dup3\n    /* \"#utility.yul\":2780:2791   */\n  gt\n    /* \"#utility.yul\":2777:3223   */\n  iszero\n  tag_83\n  jumpi\n    /* \"#utility.yul\":2822:2860   */\n  tag_84\n    /* \"#utility.yul\":2854:2859   */\n  dup2\n    /* \"#utility.yul\":2822:2860   */\n  tag_16\n  jump\t// in\ntag_84:\n    /* \"#utility.yul\":2906:2935   */\n  tag_85\n    /* \"#utility.yul\":2924:2934   */\n  dup5\n    /* \"#utility.yul\":2906:2935   */\n  tag_17\n  jump\t// in\ntag_85:\n    /* \"#utility.yul\":2896:2904   */\n  dup2\n    /* \"#utility.yul\":2892:2936   */\n  add\n    /* \"#utility.yul\":3089:3091   */\n  0x20\n    /* \"#utility.yul\":3077:3087   */\n  dup6\n    /* \"#utility.yul\":3074:3092   */\n  lt\n    /* \"#utility.yul\":3071:3120   */\n  iszero\n  tag_86\n  jumpi\n    /* \"#utility.yul\":3110:3118   */\n  dup2\n    /* \"#utility.yul\":3095:3118   */\n  swap1\n  pop\n    /* \"#utility.yul\":3071:3120   */\ntag_86:\n    /* \"#utility.yul\":3133:3213   */\n  tag_87\n    /* \"#utility.yul\":3189:3211   */\n  tag_88\n    /* \"#utility.yul\":3207:3210   */\n  dup6\n    /* \"#utility.yul\":3189:3211   */\n  tag_17\n  jump\t// in\ntag_88:\n    /* \"#utility.yul\":3179:3187   */\n  dup4\n    /* \"#utility.yul\":3175:3212   */\n  add\n    /* \"#utility.yul\":3162:3173   */\n  dup3\n    /* \"#utility.yul\":3133:3213   */\n  tag_27\n  jump\t// in\ntag_87:\n    /* \"#utility.yul\":2792:3223   */\n  pop\n  pop\n    /* \"#utility.yul\":2777:3223   */\ntag_83:\n    /* \"#utility.yul\":2687:3230   */\n  pop\n  pop\n  pop\n  jump\t// out\n    /* \"#utility.yul\":3236:3353   */\ntag_29:\n    /* \"#utility.yul\":3290:3298   */\n  0x00\n    /* \"#utility.yul\":3340:3345   */\n  dup3\n    /* \"#utility.yul\":3334:3338   */\n  dup3\n    /* \"#utility.yul\":3330:3346   */\n  shr\n    /* \"#utility.yul\":3309:3346   */\n  swap1\n  pop\n    /* \"#utility.yul\":3236:3353   */\n  swap3\n  swap2\n  pop\n  pop\n  jump\t// out\n    /* \"#utility.yul\":3359:3528   */\ntag_30:\n    /* \"#utility.yul\":3403:3409   */\n  0x00\n    /* \"#utility.yul\":3436:3487   */\n  tag_91\n    /* \"#utility.yul\":3484:3485   */\n  0x00\n    /* \"#utility.yul\":3480:3486   */\n  not\n    /* \"#utility.yul\":3472:3477   */\n  dup5\n    /* \"#utility.yul\":3469:3470   */\n  0x08\n    /* \"#utility.yul\":3465:3478   */\n  mul\n    /* \"#utility.yul\":3436:3487   */\n  tag_29\n  jump\t// in\ntag_91:\n    /* \"#utility.yul\":3432:3488   */\n  not\n    /* \"#utility.yul\":3517:3521   */\n  dup1\n    /* \"#utility.yul\":3511:3515   */\n  dup4\n    /* \"#utility.yul\":3507:3522   */\n  and\n    /* \"#utility.yul\":3497:3522   */\n  swap2\n  pop\n    /* \"#utility.yul\":3410:3528   */\n  pop\n    /* \"#utility.yul\":3359:3528   */\n  swap3\n  swap2\n  pop\n  pop\n  jump\t// out\n    /* \"#utility.yul\":3533:3828   */\ntag_31:\n    /* \"#utility.yul\":3609:3613   */\n  0x00\n    /* \"#utility.yul\":3755:3784   */\n  tag_93\n    /* \"#utility.yul\":3780:3783   */\n  dup4\n    /* \"#utility.yul\":3774:3778   */\n  dup4\n    /* \"#utility.yul\":3755:3784   */\n  tag_30\n  jump\t// in\ntag_93:\n    /* \"#utility.yul\":3747:3784   */\n  swap2\n  pop\n    /* \"#utility.yul\":3817:3820   */\n  dup3\n    /* \"#utility.yul\":3814:3815   */\n  0x02\n    /* \"#utility.yul\":3810:3821   */\n  mul\n    /* \"#utility.yul\":3804:3808   */\n  dup3\n    /* \"#utility.yul\":3801:3822   */\n  or\n    /* \"#utility.yul\":3793:3822   */\n  swap1\n  pop\n    /* \"#utility.yul\":3533:3828   */\n  swap3\n  swap2\n  pop\n  pop\n  jump\t// out\n    /* \"#utility.yul\":3833:5228   */\ntag_2:\n    /* \"#utility.yul\":3950:3987   */\n  tag_95\n    /* \"#utility.yul\":3983:3986   */\n  dup3\n    /* \"#utility.yul\":3950:3987   */\n  tag_12\n  jump\t// in\ntag_95:\n    /* \"#utility.yul\":4052:4070   */\n  0xffffffffffffffff\n    /* \"#utility.yul\":4044:4050   */\n  dup2\n    /* \"#utility.yul\":4041:4071   */\n  gt\n    /* \"#utility.yul\":4038:4094   */\n  iszero\n  tag_96\n  jumpi\n    /* \"#utility.yul\":4074:4092   */\n  tag_97\n  tag_13\n  jump\t// in\ntag_97:\n    /* \"#utility.yul\":4038:4094   */\ntag_96:\n    /* \"#utility.yul\":4118:4156   */\n  tag_98\n    /* \"#utility.yul\":4150:4154   */\n  dup3\n    /* \"#utility.yul\":4144:4155   */\n  sload\n    /* \"#utility.yul\":4118:4156   */\n  tag_15\n  jump\t// in\ntag_98:\n    /* \"#utility.yul\":4203:4270   */\n  tag_99\n    /* \"#utility.yul\":4263:4269   */\n  dup3\n    /* \"#utility.yul\":4255:4261   */\n  dup3\n    /* \"#utility.yul\":4249:4253   */\n  dup6\n    /* \"#utility.yul\":4203:4270   */\n  tag_28\n  jump\t// in\ntag_99:\n    /* \"#utility.yul\":4297:4298   */\n  0x00\n    /* \"#utility.yul\":4321:4325   */\n  0x20\n    /* \"#utility.yul\":4308:4325   */\n  swap1\n  pop\n    /* \"#utility.yul\":4353:4355   */\n  0x1f\n    /* \"#utility.yul\":4345:4351   */\n  dup4\n    /* \"#utility.yul\":4342:4356   */\n  gt\n    /* \"#utility.yul\":4370:4371   */\n  0x01\n    /* \"#utility.yul\":4365:4983   */\n  dup2\n  eq\n  tag_101\n  jumpi\n    /* \"#utility.yul\":5027:5028   */\n  0x00\n    /* \"#utility.yul\":5044:5050   */\n  dup5\n    /* \"#utility.yul\":5041:5118   */\n  iszero\n  tag_102\n  jumpi\n    /* \"#utility.yul\":5093:5102   */\n  dup3\n    /* \"#utility.yul\":5088:5091   */\n  dup8\n    /* \"#utility.yul\":5084:5103   */\n  add\n    /* \"#utility.yul\":5078:5104   */\n  mload\n    /* \"#utility.yul\":5069:5104   */\n  swap1\n  pop\n    /* \"#utility.yul\":5041:5118   */\ntag_102:\n    /* \"#utility.yul\":5144:5211   */\n  tag_103\n    /* \"#utility.yul\":5204:5210   */\n  dup6\n    /* \"#utility.yul\":5197:5202   */\n  dup3\n    /* \"#utility.yul\":5144:5211   */\n  tag_31\n  jump\t// in\ntag_103:\n    /* \"#utility.yul\":5138:5142   */\n  dup7\n    /* \"#utility.yul\":5131:5212   */\n  sstore\n    /* \"#utility.yul\":5000:5222   */\n  pop\n    /* \"#utility.yul\":4335:5222   */\n  jump(tag_100)\n    /* \"#utility.yul\":4365:4983   */\ntag_101:\n    /* \"#utility.yul\":4417:4421   */\n  0x1f\n    /* \"#utility.yul\":4413:4422   */\n  not\n    /* \"#utility.yul\":4405:4411   */\n  dup5\n    /* \"#utility.yul\":4401:4423   */\n  and\n    /* \"#utility.yul\":4451:4488   */\n  tag_104\n    /* \"#utility.yul\":4483:4487   */\n  dup7\n    /* \"#utility.yul\":4451:4488   */\n  tag_16\n  jump\t// in\ntag_104:\n    /* \"#utility.yul\":4510:4511   */\n  0x00\n    /* \"#utility.yul\":4524:4732   */\ntag_105:\n    /* \"#utility.yul\":4538:4545   */\n  dup3\n    /* \"#utility.yul\":4535:4536   */\n  dup2\n    /* \"#utility.yul\":4532:4546   */\n  lt\n    /* \"#utility.yul\":4524:4732   */\n  iszero\n  tag_107\n  jumpi\n    /* \"#utility.yul\":4617:4626   */\n  dup5\n    /* \"#utility.yul\":4612:4615   */\n  dup10\n    /* \"#utility.yul\":4608:4627   */\n  add\n    /* \"#utility.yul\":4602:4628   */\n  mload\n    /* \"#utility.yul\":4594:4600   */\n  dup3\n    /* \"#utility.yul\":4587:4629   */\n  sstore\n    /* \"#utility.yul\":4668:4669   */\n  0x01\n    /* \"#utility.yul\":4660:4666   */\n  dup3\n    /* \"#utility.yul\":4656:4670   */\n  add\n    /* \"#utility.yul\":4646:4670   */\n  swap2\n  pop\n    /* \"#utility.yul\":4715:4717   */\n  0x20\n    /* \"#utility.yul\":4704:4713   */\n  dup6\n    /* \"#utility.yul\":4700:4718   */\n  add\n    /* \"#utility.yul\":4687:4718   */\n  swap5\n  pop\n    /* \"#utility.yul\":4561:4565   */\n  0x20\n    /* \"#utility.yul\":4558:4559   */\n  dup2\n    /* \"#utility.yul\":4554:4566   */\n  add\n    /* \"#utility.yul\":4549:4566   */\n  swap1\n  pop\n    /* \"#utility.yul\":4524:4732   */\n  jump(tag_105)\ntag_107:\n    /* \"#utility.yul\":4760:4766   */\n  dup7\n    /* \"#utility.yul\":4751:4758   */\n  dup4\n    /* \"#utility.yul\":4748:4767   */\n  lt\n    /* \"#utility.yul\":4745:4924   */\n  iszero\n  tag_108\n  jumpi\n    /* \"#utility.yul\":4818:4827   */\n  dup5\n    /* \"#utility.yul\":4813:4816   */\n  dup10\n    /* \"#utility.yul\":4809:4828   */\n  add\n    /* \"#utility.yul\":4803:4829   */\n  mload\n    /* \"#utility.yul\":4861:4909   */\n  tag_109\n    /* \"#utility.yul\":4903:4907   */\n  0x1f\n    /* \"#utility.yul\":4895:4901   */\n  dup10\n    /* \"#utility.yul\":4891:4908   */\n  and\n    /* \"#utility.yul\":4880:4889   */\n  dup3\n    /* \"#utility.yul\":4861:4909   */\n  tag_30\n  jump\t// in\ntag_109:\n    /* \"#utility.yul\":4853:4859   */\n  dup4\n    /* \"#utility.yul\":4846:4910   */\n  sstore\n    /* \"#utility.yul\":4768:4924   */\n  pop\n    /* \"#utility.yul\":4745:4924   */\ntag_108:\n    /* \"#utility.yul\":4970:4971   */\n  0x01\n    /* \"#utility.yul\":4966:4967   */\n  0x02\n    /* \"#utility.yul\":4958:4964   */\n  dup9\n    /* \"#utility.yul\":4954:4968   */\n  mul\n    /* \"#utility.yul\":4950:4972   */\n  add\n    /* \"#utility.yul\":4944:4948   */\n  dup9\n    /* \"#utility.yul\":4937:4973   */\n  sstore\n    /* \"#utility.yul\":4372:4983   */\n  pop\n  pop\n  pop\n    /* \"#utility.yul\":4335:5222   */\ntag_100:\n  pop\n    /* \"#utility.yul\":3925:5228   */\n  pop\n  pop\n  pop\n    /* \"#utility.yul\":3833:5228   */\n  pop\n  pop\n  jump\t// out\n    /* \"#utility.yul\":5234:5374   */\ntag_32:\n    /* \"#utility.yul\":5282:5286   */\n  0x00\n    /* \"#utility.yul\":5305:5308   */\n  dup2\n    /* \"#utility.yul\":5297:5308   */\n  swap1\n  pop\n    /* \"#utility.yul\":5328:5331   */\n  dup2\n    /* \"#utility.yul\":5325:5326   */\n  0x00\n    /* \"#utility.yul\":5318:5332   */\n  mstore\n    /* \"#utility.yul\":5362:5366   */\n  0x20\n    /* \"#utility.yul\":5359:5360   */\n  0x00\n    /* \"#utility.yul\":5349:5367   */\n  keccak256\n    /* \"#utility.yul\":5341:5367   */\n  swap1\n  pop\n    /* \"#utility.yul\":5234:5374   */\n  swap2\n  swap1\n  pop\n  jump\t// out\n    /* \"#utility.yul\":5380:5921   */\ntag_33:\n    /* \"#utility.yul\":5480:5482   */\n  0x1f\n    /* \"#utility.yul\":5475:5478   */\n  dup3\n    /* \"#utility.yul\":5472:5483   */\n  gt\n    /* \"#utility.yul\":5469:5914   */\n  iszero\n  tag_112\n  jumpi\n    /* \"#utility.yul\":5514:5551   */\n  tag_113\n    /* \"#utility.yul\":5545:5550   */\n  dup2\n    /* \"#utility.yul\":5514:5551   */\n  tag_32\n  jump\t// in\ntag_113:\n    /* \"#utility.yul\":5597:5626   */\n  tag_114\n    /* \"#utility.yul\":5615:5625   */\n  dup5\n    /* \"#utility.yul\":5597:5626   */\n  tag_17\n  jump\t// in\ntag_114:\n    /* \"#utility.yul\":5587:5595   */\n  dup2\n    /* \"#utility.yul\":5583:5627   */\n  add\n    /* \"#utility.yul\":5780:5782   */\n  0x20\n    /* \"#utility.yul\":5768:5778   */\n  dup6\n    /* \"#utility.yul\":5765:5783   */\n  lt\n    /* \"#utility.yul\":5762:5811   */\n  iszero\n  tag_115\n  jumpi\n    /* \"#utility.yul\":5801:5809   */\n  dup2\n    /* \"#utility.yul\":5786:5809   */\n  swap1\n  pop\n    /* \"#utility.yul\":5762:5811   */\ntag_115:\n    /* \"#utility.yul\":5824:5904   */\n  tag_116\n    /* \"#utility.yul\":5880:5902   */\n  tag_117\n    /* \"#utility.yul\":5898:5901   */\n  dup6\n    /* \"#utility.yul\":5880:5902   */\n  tag_17\n  jump\t// in\ntag_117:\n    /* \"#utility.yul\":5870:5878   */\n  dup4\n    /* \"#utility.yul\":5866:5903   */\n  add\n    /* \"#utility.yul\":5853:5864   */\n  dup3\n    /* \"#utility.yul\":5824:5904   */\n  tag_27\n  jump\t// in\ntag_116:\n    /* \"#utility.yul\":5484:5914   */\n  pop\n  pop\n    /* \"#utility.yul\":5469:5914   */\ntag_112:\n    /* \"#utility.yul\":5380:5921   */\n  pop\n  pop\n  pop\n  jump\t// out\n    /* \"#utility.yul\":5927:7319   */\ntag_4:\n    /* \"#utility.yul\":6043:6080   */\n  tag_119\n    /* \"#utility.yul\":6076:6079   */\n  dup3\n    /* \"#utility.yul\":6043:6080   */\n  tag_12\n  jump\t// in\ntag_119:\n    /* \"#utility.yul\":6145:6163   */\n  0xffffffffffffffff\n    /* \"#utility.yul\":6137:6143   */\n  dup2\n    /* \"#utility.yul\":6134:6164   */\n  gt\n    /* \"#utility.yul\":6131:6187   */\n  iszero\n  tag_120\n  jumpi\n    /* \"#utility.yul\":6167:6185   */\n  tag_121\n  tag_13\n  jump\t// in\ntag_121:\n    /* \"#utility.yul\":6131:6187   */\ntag_120:\n    /* \"#utility.yul\":6211:6249   */\n  tag_122\n    /* \"#utility.yul\":6243:6247   */\n  dup3\n    /* \"#utility.yul\":6237:6248   */\n  sload\n    /* \"#utility.yul\":6211:6249   */\n  tag_15\n  jump\t// in\ntag_122:\n    /* \"#utility.yul\":6296:6362   */\n  tag_123\n    /* \"#utility.yul\":6355:6361   */\n  dup3\n    /* \"#utility.yul\":6347:6353   */\n  dup3\n    /* \"#utility.yul\":6341:6345   */\n  dup6\n    /* \"#utility.yul\":6296:6362   */\n  tag_33\n  jump\t// in\ntag_123:\n    /* \"#utility.yul\":6389:6390   */\n  0x00\n    /* \"#utility.yul\":6413:6417   */\n  0x20\n    /* \"#utility.yul\":6400:6417   */\n  swap1\n  pop\n    /* \"#utility.yul\":6445:6447   */\n  0x1f\n    /* \"#utility.yul\":6437:6443   */\n  dup4\n    /* \"#utility.yul\":6434:6448   */\n  gt\n    /* \"#utility.yul\":6462:6463   */\n  0x01\n    /* \"#utility.yul\":6457:7074   */\n  dup2\n  eq\n  tag_125\n  jumpi\n    /* \"#utility.yul\":7118:7119   */\n  0x00\n    /* \"#utility.yul\":7135:7141   */\n  dup5\n    /* \"#utility.yul\":7132:7209   */\n  iszero\n  tag_126\n  jumpi\n    /* \"#utility.yul\":7184:7193   */\n  dup3\n    /* \"#utility.yul\":7179:7182   */\n  dup8\n    /* \"#utility.yul\":7175:7194   */\n  add\n    /* \"#utility.yul\":7169:7195   */\n  mload\n    /* \"#utility.yul\":7160:7195   */\n  swap1\n  pop\n    /* \"#utility.yul\":7132:7209   */\ntag_126:\n    /* \"#utility.yul\":7235:7302   */\n  tag_127\n    /* \"#utility.yul\":7295:7301   */\n  dup6\n    /* \"#utility.yul\":7288:7293   */\n  dup3\n    /* \"#utility.yul\":7235:7302   */\n  tag_31\n  jump\t// in\ntag_127:\n    /* \"#utility.yul\":7229:7233   */\n  dup7\n    /* \"#utility.yul\":7222:7303   */\n  sstore\n    /* \"#utility.yul\":7091:7313   */\n  pop\n    /* \"#utility.yul\":6427:7313   */\n  jump(tag_124)\n    /* \"#utility.yul\":6457:7074   */\ntag_125:\n    /* \"#utility.yul\":6509:6513   */\n  0x1f\n    /* \"#utility.yul\":6505:6514   */\n  not\n    /* \"#utility.yul\":6497:6503   */\n  dup5\n    /* \"#utility.yul\":6493:6515   */\n  and\n    /* \"#utility.yul\":6543:6579   */\n  tag_128\n    /* \"#utility.yul\":6574:6578   */\n  dup7\n    /* \"#utility.yul\":6543:6579   */\n  tag_32\n  jump\t// in\ntag_128:\n    /* \"#utility.yul\":6601:6602   */\n  0x00\n    /* \"#utility.yul\":6615:6823   */\ntag_129:\n    /* \"#utility.yul\":6629:6636   */\n  dup3\n    /* \"#utility.yul\":6626:6627   */\n  dup2\n    /* \"#utility.yul\":6623:6637   */\n  lt\n    /* \"#utility.yul\":6615:6823   */\n  iszero\n  tag_131\n  jumpi\n    /* \"#utility.yul\":6708:6717   */\n  dup5\n    /* \"#utility.yul\":6703:6706   */\n  dup10\n    /* \"#utility.yul\":6699:6718   */\n  add\n    /* \"#utility.yul\":6693:6719   */\n  mload\n    /* \"#utility.yul\":6685:6691   */\n  dup3\n    /* \"#utility.yul\":6678:6720   */\n  sstore\n    /* \"#utility.yul\":6759:6760   */\n  0x01\n    /* \"#utility.yul\":6751:6757   */\n  dup3\n    /* \"#utility.yul\":6747:6761   */\n  add\n    /* \"#utility.yul\":6737:6761   */\n  swap2\n  pop\n    /* \"#utility.yul\":6806:6808   */\n  0x20\n    /* \"#utility.yul\":6795:6804   */\n  dup6\n    /* \"#utility.yul\":6791:6809   */\n  add\n    /* \"#utility.yul\":6778:6809   */\n  swap5\n  pop\n    /* \"#utility.yul\":6652:6656   */\n  0x20\n    /* \"#utility.yul\":6649:6650   */\n  dup2\n    /* \"#utility.yul\":6645:6657   */\n  add\n    /* \"#utility.yul\":6640:6657   */\n  swap1\n  pop\n    /* \"#utility.yul\":6615:6823   */\n  jump(tag_129)\ntag_131:\n    /* \"#utility.yul\":6851:6857   */\n  dup7\n    /* \"#utility.yul\":6842:6849   */\n  dup4\n    /* \"#utility.yul\":6839:6858   */\n  lt\n    /* \"#utility.yul\":6836:7015   */\n  iszero\n  tag_132\n  jumpi\n    /* \"#utility.yul\":6909:6918   */\n  dup5\n    /* \"#utility.yul\":6904:6907   */\n  dup10\n    /* \"#utility.yul\":6900:6919   */\n  add\n    /* \"#utility.yul\":6894:6920   */\n  mload\n    /* \"#utility.yul\":6952:7000   */\n  tag_133\n    /* \"#utility.yul\":6994:6998   */\n  0x1f\n    /* \"#utility.yul\":6986:6992   */\n  dup10\n    /* \"#utility.yul\":6982:6999   */\n  and\n    /* \"#utility.yul\":6971:6980   */\n  dup3\n    /* \"#utility.yul\":6952:7000   */\n  tag_30\n  jump\t// in\ntag_133:\n    /* \"#utility.yul\":6944:6950   */\n  dup4\n    /* \"#utility.yul\":6937:7001   */\n  sstore\n    /* \"#utility.yul\":6859:7015   */\n  pop\n    /* \"#utility.yul\":6836:7015   */\ntag_132:\n    /* \"#utility.yul\":7061:7062   */\n  0x01\n    /* \"#utility.yul\":7057:7058   */\n  0x02\n    /* \"#utility.yul\":7049:7055   */\n  dup9\n    /* \"#utility.yul\":7045:7059   */\n  mul\n    /* \"#utility.yul\":7041:7063   */\n  add\n    /* \"#utility.yul\":7035:7039   */\n  dup9\n    /* \"#utility.yul\":7028:7064   */\n  sstore\n    /* \"#utility.yul\":6464:7074   */\n  pop\n  pop\n  pop\n    /* \"#utility.yul\":6427:7313   */\ntag_124:\n  pop\n    /* \"#utility.yul\":6018:7319   */\n  pop\n  pop\n  pop\n    /* \"#utility.yul\":5927:7319   */\n  pop\n  pop\n  jump\t// out\n    /* \"#utility.yul\":7325:7400   */\ntag_34:\n    /* \"#utility.yul\":7358:7364   */\n  0x00\n    /* \"#utility.yul\":7391:7393   */\n  0x40\n    /* \"#utility.yul\":7385:7394   */\n  mload\n    /* \"#utility.yul\":7375:7394   */\n  swap1\n  pop\n    /* \"#utility.yul\":7325:7400   */\n  swap1\n  jump\t// out\n    /* \"#utility.yul\":7406:7523   */\ntag_35:\n    /* \"#utility.yul\":7515:7516   */\n  0x00\n    /* \"#utility.yul\":7512:7513   */\n  dup1\n    /* \"#utility.yul\":7505:7517   */\n  revert\n    /* \"#utility.yul\":7529:7646   */\ntag_36:\n    /* \"#utility.yul\":7638:7639   */\n  0x00\n    /* \"#utility.yul\":7635:7636   */\n  dup1\n    /* \"#utility.yul\":7628:7640   */\n  revert\n    /* \"#utility.yul\":7652:7769   */\ntag_37:\n    /* \"#utility.yul\":7761:7762   */\n  0x00\n    /* \"#utility.yul\":7758:7759   */\n  dup1\n    /* \"#utility.yul\":7751:7763   */\n  revert\n    /* \"#utility.yul\":7775:7892   */\ntag_38:\n    /* \"#utility.yul\":7884:7885   */\n  0x00\n    /* \"#utility.yul\":7881:7882   */\n  dup1\n    /* \"#utility.yul\":7874:7886   */\n  revert\n    /* \"#utility.yul\":7898:8000   */\ntag_39:\n    /* \"#utility.yul\":7939:7945   */\n  0x00\n    /* \"#utility.yul\":7990:7992   */\n  0x1f\n    /* \"#utility.yul\":7986:7993   */\n  not\n    /* \"#utility.yul\":7981:7983   */\n  0x1f\n    /* \"#utility.yul\":7974:7979   */\n  dup4\n    /* \"#utility.yul\":7970:7984   */\n  add\n    /* \"#utility.yul\":7966:7994   */\n  and\n    /* \"#utility.yul\":7956:7994   */\n  swap1\n  pop\n    /* \"#utility.yul\":7898:8000   */\n  swap2\n  swap1\n  pop\n  jump\t// out\n    /* \"#utility.yul\":8006:8287   */\ntag_40:\n    /* \"#utility.yul\":8089:8116   */\n  tag_141\n    /* \"#utility.yul\":8111:8115   */\n  dup3\n    /* \"#utility.yul\":8089:8116   */\n  tag_39\n  jump\t// in\ntag_141:\n    /* \"#utility.yul\":8081:8087   */\n  dup2\n    /* \"#utility.yul\":8077:8117   */\n  add\n    /* \"#utility.yul\":8219:8225   */\n  dup2\n    /* \"#utility.yul\":8207:8217   */\n  dup2\n    /* \"#utility.yul\":8204:8226   */\n  lt\n    /* \"#utility.yul\":8183:8201   */\n  0xffffffffffffffff\n    /* \"#utility.yul\":8171:8181   */\n  dup3\n    /* \"#utility.yul\":8168:8202   */\n  gt\n    /* \"#utility.yul\":8165:8227   */\n  or\n    /* \"#utility.yul\":8162:8250   */\n  iszero\n  tag_142\n  jumpi\n    /* \"#utility.yul\":8230:8248   */\n  tag_143\n  tag_13\n  jump\t// in\ntag_143:\n    /* \"#utility.yul\":8162:8250   */\ntag_142:\n    /* \"#utility.yul\":8270:8280   */\n  dup1\n    /* \"#utility.yul\":8266:8268   */\n  0x40\n    /* \"#utility.yul\":8259:8281   */\n  mstore\n    /* \"#utility.yul\":8049:8287   */\n  pop\n    /* \"#utility.yul\":8006:8287   */\n  pop\n  pop\n  jump\t// out\n    /* \"#utility.yul\":8293:8422   */\ntag_41:\n    /* \"#utility.yul\":8327:8333   */\n  0x00\n    /* \"#utility.yul\":8354:8374   */\n  tag_145\n  tag_34\n  jump\t// in\ntag_145:\n    /* \"#utility.yul\":8344:8374   */\n  swap1\n  pop\n    /* \"#utility.yul\":8383:8416   */\n  tag_146\n    /* \"#utility.yul\":8411:8415   */\n  dup3\n    /* \"#utility.yul\":8403:8409   */\n  dup3\n    /* \"#utility.yul\":8383:8416   */\n  tag_40\n  jump\t// in\ntag_146:\n    /* \"#utility.yul\":8293:8422   */\n  swap2\n  swap1\n  pop\n  jump\t// out\n    /* \"#utility.yul\":8428:8736   */\ntag_42:\n    /* \"#utility.yul\":8490:8494   */\n  0x00\n    /* \"#utility.yul\":8580:8598   */\n  0xffffffffffffffff\n    /* \"#utility.yul\":8572:8578   */\n  dup3\n    /* \"#utility.yul\":8569:8599   */\n  gt\n    /* \"#utility.yul\":8566:8622   */\n  iszero\n  tag_148\n  jumpi\n    /* \"#utility.yul\":8602:8620   */\n  tag_149\n  tag_13\n  jump\t// in\ntag_149:\n    /* \"#utility.yul\":8566:8622   */\ntag_148:\n    /* \"#utility.yul\":8640:8669   */\n  tag_150\n    /* \"#utility.yul\":8662:8668   */\n  dup3\n    /* \"#utility.yul\":8640:8669   */\n  tag_39\n  jump\t// in\ntag_150:\n    /* \"#utility.yul\":8632:8669   */\n  swap1\n  pop\n    /* \"#utility.yul\":8724:8728   */\n  0x20\n    /* \"#utility.yul\":8718:8722   */\n  dup2\n    /* \"#utility.yul\":8714:8729   */\n  add\n    /* \"#utility.yul\":8706:8729   */\n  swap1\n  pop\n    /* \"#utility.yul\":8428:8736   */\n  swap2\n  swap1\n  pop\n  jump\t// out\n    /* \"#utility.yul\":8742:8988   */\ntag_43:\n    /* \"#utility.yul\":8823:8824   */\n  0x00\n    /* \"#utility.yul\":8833:8946   */\ntag_152:\n    /* \"#utility.yul\":8847:8853   */\n  dup4\n    /* \"#utility.yul\":8844:8845   */\n  dup2\n    /* \"#utility.yul\":8841:8854   */\n  lt\n    /* \"#utility.yul\":8833:8946   */\n  iszero\n  tag_154\n  jumpi\n    /* \"#utility.yul\":8932:8933   */\n  dup1\n    /* \"#utility.yul\":8927:8930   */\n  dup3\n    /* \"#utility.yul\":8923:8934   */\n  add\n    /* \"#utility.yul\":8917:8935   */\n  mload\n    /* \"#utility.yul\":8913:8914   */\n  dup2\n    /* \"#utility.yul\":8908:8911   */\n  dup5\n    /* \"#utility.yul\":8904:8915   */\n  add\n    /* \"#utility.yul\":8897:8936   */\n  mstore\n    /* \"#utility.yul\":8869:8871   */\n  0x20\n    /* \"#utility.yul\":8866:8867   */\n  dup2\n    /* \"#utility.yul\":8862:8872   */\n  add\n    /* \"#utility.yul\":8857:8872   */\n  swap1\n  pop\n    /* \"#utility.yul\":8833:8946   */\n  jump(tag_152)\ntag_154:\n    /* \"#utility.yul\":8980:8981   */\n  0x00\n    /* \"#utility.yul\":8971:8977   */\n  dup5\n    /* \"#utility.yul\":8966:8969   */\n  dup5\n    /* \"#utility.yul\":8962:8978   */\n  add\n    /* \"#utility.yul\":8955:8982   */\n  mstore\n    /* \"#utility.yul\":8804:8988   */\n  pop\n    /* \"#utility.yul\":8742:8988   */\n  pop\n  pop\n  pop\n  jump\t// out\n    /* \"#utility.yul\":8994:9428   */\ntag_44:\n    /* \"#utility.yul\":9083:9088   */\n  0x00\n    /* \"#utility.yul\":9108:9174   */\n  tag_156\n    /* \"#utility.yul\":9124:9173   */\n  tag_157\n    /* \"#utility.yul\":9166:9172   */\n  dup5\n    /* \"#utility.yul\":9124:9173   */\n  tag_42\n  jump\t// in\ntag_157:\n    /* \"#utility.yul\":9108:9174   */\n  tag_41\n  jump\t// in\ntag_156:\n    /* \"#utility.yul\":9099:9174   */\n  swap1\n  pop\n    /* \"#utility.yul\":9197:9203   */\n  dup3\n    /* \"#utility.yul\":9190:9195   */\n  dup2\n    /* \"#utility.yul\":9183:9204   */\n  mstore\n    /* \"#utility.yul\":9235:9239   */\n  0x20\n    /* \"#utility.yul\":9228:9233   */\n  dup2\n    /* \"#utility.yul\":9224:9240   */\n  add\n    /* \"#utility.yul\":9273:9276   */\n  dup5\n    /* \"#utility.yul\":9264:9270   */\n  dup5\n    /* \"#utility.yul\":9259:9262   */\n  dup5\n    /* \"#utility.yul\":9255:9271   */\n  add\n    /* \"#utility.yul\":9252:9277   */\n  gt\n    /* \"#utility.yul\":9249:9361   */\n  iszero\n  tag_158\n  jumpi\n    /* \"#utility.yul\":9280:9359   */\n  tag_159\n  tag_38\n  jump\t// in\ntag_159:\n    /* \"#utility.yul\":9249:9361   */\ntag_158:\n    /* \"#utility.yul\":9370:9422   */\n  tag_160\n    /* \"#utility.yul\":9415:9421   */\n  dup5\n    /* \"#utility.yul\":9410:9413   */\n  dup3\n    /* \"#utility.yul\":9405:9408   */\n  dup6\n    /* \"#utility.yul\":9370:9422   */\n  tag_43\n  jump\t// in\ntag_160:\n    /* \"#utility.yul\":9089:9428   */\n  pop\n    /* \"#utility.yul\":8994:9428   */\n  swap4\n  swap3\n  pop\n  pop\n  pop\n  jump\t// out\n    /* \"#utility.yul\":9448:9803   */\ntag_45:\n    /* \"#utility.yul\":9515:9520   */\n  0x00\n    /* \"#utility.yul\":9564:9567   */\n  dup3\n    /* \"#utility.yul\":9557:9561   */\n  0x1f\n    /* \"#utility.yul\":9549:9555   */\n  dup4\n    /* \"#utility.yul\":9545:9562   */\n  add\n    /* \"#utility.yul\":9541:9568   */\n  slt\n    /* \"#utility.yul\":9531:9653   */\n  tag_162\n  jumpi\n    /* \"#utility.yul\":9572:9651   */\n  tag_163\n  tag_37\n  jump\t// in\ntag_163:\n    /* \"#utility.yul\":9531:9653   */\ntag_162:\n    /* \"#utility.yul\":9682:9688   */\n  dup2\n    /* \"#utility.yul\":9676:9689   */\n  mload\n    /* \"#utility.yul\":9707:9797   */\n  tag_164\n    /* \"#utility.yul\":9793:9796   */\n  dup5\n    /* \"#utility.yul\":9785:9791   */\n  dup3\n    /* \"#utility.yul\":9778:9782   */\n  0x20\n    /* \"#utility.yul\":9770:9776   */\n  dup7\n    /* \"#utility.yul\":9766:9783   */\n  add\n    /* \"#utility.yul\":9707:9797   */\n  tag_44\n  jump\t// in\ntag_164:\n    /* \"#utility.yul\":9698:9797   */\n  swap2\n  pop\n    /* \"#utility.yul\":9521:9803   */\n  pop\n    /* \"#utility.yul\":9448:9803   */\n  swap3\n  swap2\n  pop\n  pop\n  jump\t// out\n    /* \"#utility.yul\":9809:9931   */\ntag_46:\n    /* \"#utility.yul\":9882:9906   */\n  tag_166\n    /* \"#utility.yul\":9900:9905   */\n  dup2\n    /* \"#utility.yul\":9882:9906   */\n  tag_20\n  jump\t// in\ntag_166:\n    /* \"#utility.yul\":9875:9880   */\n  dup2\n    /* \"#utility.yul\":9872:9907   */\n  eq\n    /* \"#utility.yul\":9862:9925   */\n  tag_167\n  jumpi\n    /* \"#utility.yul\":9921:9922   */\n  0x00\n    /* \"#utility.yul\":9918:9919   */\n  dup1\n    /* \"#utility.yul\":9911:9923   */\n  revert\n    /* \"#utility.yul\":9862:9925   */\ntag_167:\n    /* \"#utility.yul\":9809:9931   */\n  pop\n  jump\t// out\n    /* \"#utility.yul\":9937:10080   */\ntag_47:\n    /* \"#utility.yul\":9994:9999   */\n  0x00\n    /* \"#utility.yul\":10025:10031   */\n  dup2\n    /* \"#utility.yul\":10019:10032   */\n  mload\n    /* \"#utility.yul\":10010:10032   */\n  swap1\n  pop\n    /* \"#utility.yul\":10041:10074   */\n  tag_169\n    /* \"#utility.yul\":10068:10073   */\n  dup2\n    /* \"#utility.yul\":10041:10074   */\n  tag_46\n  jump\t// in\ntag_169:\n    /* \"#utility.yul\":9937:10080   */\n  swap3\n  swap2\n  pop\n  pop\n  jump\t// out\n    /* \"#utility.yul\":10086:10766   */\ntag_7:\n    /* \"#utility.yul\":10175:10181   */\n  0x00\n    /* \"#utility.yul\":10183:10189   */\n  dup1\n    /* \"#utility.yul\":10232:10234   */\n  0x40\n    /* \"#utility.yul\":10220:10229   */\n  dup4\n    /* \"#utility.yul\":10211:10218   */\n  dup6\n    /* \"#utility.yul\":10207:10230   */\n  sub\n    /* \"#utility.yul\":10203:10235   */\n  slt\n    /* \"#utility.yul\":10200:10319   */\n  iszero\n  tag_171\n  jumpi\n    /* \"#utility.yul\":10238:10317   */\n  tag_172\n  tag_35\n  jump\t// in\ntag_172:\n    /* \"#utility.yul\":10200:10319   */\ntag_171:\n    /* \"#utility.yul\":10379:10380   */\n  0x00\n    /* \"#utility.yul\":10368:10377   */\n  dup4\n    /* \"#utility.yul\":10364:10381   */\n  add\n    /* \"#utility.yul\":10358:10382   */\n  mload\n    /* \"#utility.yul\":10409:10427   */\n  0xffffffffffffffff\n    /* \"#utility.yul\":10401:10407   */\n  dup2\n    /* \"#utility.yul\":10398:10428   */\n  gt\n    /* \"#utility.yul\":10395:10512   */\n  iszero\n  tag_173\n  jumpi\n    /* \"#utility.yul\":10431:10510   */\n  tag_174\n  tag_36\n  jump\t// in\ntag_174:\n    /* \"#utility.yul\":10395:10512   */\ntag_173:\n    /* \"#utility.yul\":10536:10610   */\n  tag_175\n    /* \"#utility.yul\":10602:10609   */\n  dup6\n    /* \"#utility.yul\":10593:10599   */\n  dup3\n    /* \"#utility.yul\":10582:10591   */\n  dup7\n    /* \"#utility.yul\":10578:10600   */\n  add\n    /* \"#utility.yul\":10536:10610   */\n  tag_45\n  jump\t// in\ntag_175:\n    /* \"#utility.yul\":10526:10610   */\n  swap3\n  pop\n    /* \"#utility.yul\":10329:10620   */\n  pop\n    /* \"#utility.yul\":10659:10661   */\n  0x20\n    /* \"#utility.yul\":10685:10749   */\n  tag_176\n    /* \"#utility.yul\":10741:10748   */\n  dup6\n    /* \"#utility.yul\":10732:10738   */\n  dup3\n    /* \"#utility.yul\":10721:10730   */\n  dup7\n    /* \"#utility.yul\":10717:10739   */\n  add\n    /* \"#utility.yul\":10685:10749   */\n  tag_47\n  jump\t// in\ntag_176:\n    /* \"#utility.yul\":10675:10749   */\n  swap2\n  pop\n    /* \"#utility.yul\":10630:10759   */\n  pop\n    /* \"#utility.yul\":10086:10766   */\n  swap3\n  pop\n  swap3\n  swap1\n  pop\n  jump\t// out\n    /* \"stateVariables1.sol\":68:422  contract StateVariables {... */\ntag_11:\n  dataSize(sub_0)\n  dup1\n  dataOffset(sub_0)\n  0x00\n  codecopy\n  0x00\n  return\nstop\n\nsub_0: assembly {\n        /* \"stateVariables1.sol\":68:422  contract StateVariables {... */\n      mstore(0x40, 0x80)\n      callvalue\n      dup1\n      iszero\n      tag_1\n      jumpi\n      0x00\n      dup1\n      revert\n    tag_1:\n      pop\n      jumpi(tag_2, lt(calldatasize, 0x04))\n      shr(0xe0, calldataload(0x00))\n      dup1\n      0xb1dfb56e\n      gt\n      tag_10\n      jumpi\n      dup1\n      0xb1dfb56e\n      eq\n      tag_6\n      jumpi\n      dup1\n      0xd118d187\n      eq\n      tag_7\n      jumpi\n      dup1\n      0xd295fbb6\n      eq\n      tag_8\n      jumpi\n      dup1\n      0xfcdcfa50\n      eq\n      tag_9\n      jumpi\n      jump(tag_2)\n    tag_10:\n      dup1\n      0x15d4266c\n      eq\n      tag_3\n      jumpi\n      dup1\n      0x3b9eac4b\n      eq\n      tag_4\n      jumpi\n      dup1\n      0x71e5ee5f\n      eq\n      tag_5\n      jumpi\n    tag_2:\n      0x00\n      dup1\n      revert\n        /* \"stateVariables1.sol\":190:211  uint public num2 = 34 */\n    tag_3:\n      tag_11\n      tag_12\n      jump\t// in\n    tag_11:\n      mload(0x40)\n      tag_13\n      swap2\n      swap1\n      tag_14\n      jump\t// in\n    tag_13:\n      mload(0x40)\n      dup1\n      swap2\n      sub\n      swap1\n      return\n        /* \"stateVariables1.sol\":126:142  uint public num1 */\n    tag_4:\n      tag_15\n      tag_16\n      jump\t// in\n    tag_15:\n      mload(0x40)\n      tag_17\n      swap2\n      swap1\n      tag_14\n      jump\t// in\n    tag_17:\n      mload(0x40)\n      dup1\n      swap2\n      sub\n      swap1\n      return\n        /* \"stateVariables1.sol\":291:308  uint[] public arr */\n    tag_5:\n      tag_18\n      0x04\n      dup1\n      calldatasize\n      sub\n      dup2\n      add\n      swap1\n      tag_19\n      swap2\n      swap1\n      tag_20\n      jump\t// in\n    tag_19:\n      tag_21\n      jump\t// in\n    tag_18:\n      mload(0x40)\n      tag_22\n      swap2\n      swap1\n      tag_14\n      jump\t// in\n    tag_22:\n      mload(0x40)\n      dup1\n      swap2\n      sub\n      swap1\n      return\n        /* \"stateVariables1.sol\":259:278  bytes public _bytey */\n    tag_6:\n      tag_23\n      tag_24\n      jump\t// in\n    tag_23:\n      mload(0x40)\n      tag_25\n      swap2\n      swap1\n      tag_26\n      jump\t// in\n    tag_25:\n      mload(0x40)\n      dup1\n      swap2\n      sub\n      swap1\n      return\n        /* \"stateVariables1.sol\":100:118  string public str1 */\n    tag_7:\n      tag_27\n      tag_28\n      jump\t// in\n    tag_27:\n      mload(0x40)\n      tag_29\n      swap2\n      swap1\n      tag_30\n      jump\t// in\n    tag_29:\n      mload(0x40)\n      dup1\n      swap2\n      sub\n      swap1\n      return\n        /* \"stateVariables1.sol\":222:251  bytes public _bytex = \"mango\" */\n    tag_8:\n      tag_31\n      tag_32\n      jump\t// in\n    tag_31:\n      mload(0x40)\n      tag_33\n      swap2\n      swap1\n      tag_26\n      jump\t// in\n    tag_33:\n      mload(0x40)\n      dup1\n      swap2\n      sub\n      swap1\n      return\n        /* \"stateVariables1.sol\":152:182  string public str2 =\"Harshita\" */\n    tag_9:\n      tag_34\n      tag_35\n      jump\t// in\n    tag_34:\n      mload(0x40)\n      tag_36\n      swap2\n      swap1\n      tag_30\n      jump\t// in\n    tag_36:\n      mload(0x40)\n      dup1\n      swap2\n      sub\n      swap1\n      return\n        /* \"stateVariables1.sol\":190:211  uint public num2 = 34 */\n    tag_12:\n      sload(0x03)\n      dup2\n      jump\t// out\n        /* \"stateVariables1.sol\":126:142  uint public num1 */\n    tag_16:\n      sload(0x01)\n      dup2\n      jump\t// out\n        /* \"stateVariables1.sol\":291:308  uint[] public arr */\n    tag_21:\n      0x06\n      dup2\n      dup2\n      sload\n      dup2\n      lt\n      tag_37\n      jumpi\n      0x00\n      dup1\n      revert\n    tag_37:\n      swap1\n      0x00\n      mstore\n      keccak256(0x00, 0x20)\n      add\n      0x00\n      swap2\n      pop\n      swap1\n      pop\n      sload\n      dup2\n      jump\t// out\n        /* \"stateVariables1.sol\":259:278  bytes public _bytey */\n    tag_24:\n      0x05\n      dup1\n      sload\n      tag_39\n      swap1\n      tag_40\n      jump\t// in\n    tag_39:\n      dup1\n      0x1f\n      add\n      0x20\n      dup1\n      swap2\n      div\n      mul\n      0x20\n      add\n      mload(0x40)\n      swap1\n      dup2\n      add\n      0x40\n      mstore\n      dup1\n      swap3\n      swap2\n      swap1\n      dup2\n      dup2\n      mstore\n      0x20\n      add\n      dup3\n      dup1\n      sload\n      tag_41\n      swap1\n      tag_40\n      jump\t// in\n    tag_41:\n      dup1\n      iszero\n      tag_42\n      jumpi\n      dup1\n      0x1f\n      lt\n      tag_43\n      jumpi\n      0x0100\n      dup1\n      dup4\n      sload\n      div\n      mul\n      dup4\n      mstore\n      swap2\n      0x20\n      add\n      swap2\n      jump(tag_42)\n    tag_43:\n      dup3\n      add\n      swap2\n      swap1\n      0x00\n      mstore\n      keccak256(0x00, 0x20)\n      swap1\n    tag_44:\n      dup2\n      sload\n      dup2\n      mstore\n      swap1\n      0x01\n      add\n      swap1\n      0x20\n      add\n      dup1\n      dup4\n      gt\n      tag_44\n      jumpi\n      dup3\n      swap1\n      sub\n      0x1f\n      and\n      dup3\n      add\n      swap2\n    tag_42:\n      pop\n      pop\n      pop\n      pop\n      pop\n      dup2\n      jump\t// out\n        /* \"stateVariables1.sol\":100:118  string public str1 */\n    tag_28:\n      0x00\n      dup1\n      sload\n      tag_45\n      swap1\n      tag_40\n      jump\t// in\n    tag_45:\n      dup1\n      0x1f\n      add\n      0x20\n      dup1\n      swap2\n      div\n      mul\n      0x20\n      add\n      mload(0x40)\n      swap1\n      dup2\n      add\n      0x40\n      mstore\n      dup1\n      swap3\n      swap2\n      swap1\n      dup2\n      dup2\n      mstore\n      0x20\n      add\n      dup3\n      dup1\n      sload\n      tag_46\n      swap1\n      tag_40\n      jump\t// in\n    tag_46:\n      dup1\n      iszero\n      tag_47\n      jumpi\n      dup1\n      0x1f\n      lt\n      tag_48\n      jumpi\n      0x0100\n      dup1\n      dup4\n      sload\n      div\n      mul\n      dup4\n      mstore\n      swap2\n      0x20\n      add\n      swap2\n      jump(tag_47)\n    tag_48:\n      dup3\n      add\n      swap2\n      swap1\n      0x00\n      mstore\n      keccak256(0x00, 0x20)\n      swap1\n    tag_49:\n      dup2\n      sload\n      dup2\n      mstore\n      swap1\n      0x01\n      add\n      swap1\n      0x20\n      add\n      dup1\n      dup4\n      gt\n      tag_49\n      jumpi\n      dup3\n      swap1\n      sub\n      0x1f\n      and\n      dup3\n      add\n      swap2\n    tag_47:\n      pop\n      pop\n      pop\n      pop\n      pop\n      dup2\n      jump\t// out\n        /* \"stateVariables1.sol\":222:251  bytes public _bytex = \"mango\" */\n    tag_32:\n      0x04\n      dup1\n      sload\n      tag_50\n      swap1\n      tag_40\n      jump\t// in\n    tag_50:\n      dup1\n      0x1f\n      add\n      0x20\n      dup1\n      swap2\n      div\n      mul\n      0x20\n      add\n      mload(0x40)\n      swap1\n      dup2\n      add\n      0x40\n      mstore\n      dup1\n      swap3\n      swap2\n      swap1\n      dup2\n      dup2\n      mstore\n      0x20\n      add\n      dup3\n      dup1\n      sload\n      tag_51\n      swap1\n      tag_40\n      jump\t// in\n    tag_51:\n      dup1\n      iszero\n      tag_52\n      jumpi\n      dup1\n      0x1f\n      lt\n      tag_53\n      jumpi\n      0x0100\n      dup1\n      dup4\n      sload\n      div\n      mul\n      dup4\n      mstore\n      swap2\n      0x20\n      add\n      swap2\n      jump(tag_52)\n    tag_53:\n      dup3\n      add\n      swap2\n      swap1\n      0x00\n      mstore\n      keccak256(0x00, 0x20)\n      swap1\n    tag_54:\n      dup2\n      sload\n      dup2\n      mstore\n      swap1\n      0x01\n      add\n      swap1\n      0x20\n      add\n      dup1\n      dup4\n      gt\n      tag_54\n      jumpi\n      dup3\n      swap1\n      sub\n      0x1f\n      and\n      dup3\n      add\n      swap2\n    tag_52:\n      pop\n      pop\n      pop\n      pop\n      pop\n      dup2\n      jump\t// out\n        /* \"stateVariables1.sol\":152:182  string public str2 =\"Harshita\" */\n    tag_35:\n      0x02\n      dup1\n      sload\n      tag_55\n      swap1\n      tag_40\n      jump\t// in\n    tag_55:\n      dup1\n      0x1f\n      add\n      0x20\n      dup1\n      swap2\n      div\n      mul\n      0x20\n      add\n      mload(0x40)\n      swap1\n      dup2\n      add\n      0x40\n      mstore\n      dup1\n      swap3\n      swap2\n      swap1\n      dup2\n      dup2\n      mstore\n      0x20\n      add\n      dup3\n      dup1\n      sload\n      tag_56\n      swap1\n      tag_40\n      jump\t// in\n    tag_56:\n      dup1\n      iszero\n      tag_57\n      jumpi\n      dup1\n      0x1f\n      lt\n      tag_58\n      jumpi\n      0x0100\n      dup1\n      dup4\n      sload\n      div\n      mul\n      dup4\n      mstore\n      swap2\n      0x20\n      add\n      swap2\n      jump(tag_57)\n    tag_58:\n      dup3\n      add\n      swap2\n      swap1\n      0x00\n      mstore\n      keccak256(0x00, 0x20)\n      swap1\n    tag_59:\n      dup2\n      sload\n      dup2\n      mstore\n      swap1\n      0x01\n      add\n      swap1\n      0x20\n      add\n      dup1\n      dup4\n      gt\n      tag_59\n      jumpi\n      dup3\n      swap1\n      sub\n      0x1f\n      and\n      dup3\n      add\n      swap2\n    tag_57:\n      pop\n      pop\n      pop\n      pop\n      pop\n      dup2\n      jump\t// out\n        /* \"#utility.yul\":7:84   */\n    tag_60:\n        /* \"#utility.yul\":44:51   */\n      0x00\n        /* \"#utility.yul\":73:78   */\n      dup2\n        /* \"#utility.yul\":62:78   */\n      swap1\n      pop\n        /* \"#utility.yul\":7:84   */\n      swap2\n      swap1\n      pop\n      jump\t// out\n        /* \"#utility.yul\":90:208   */\n    tag_61:\n        /* \"#utility.yul\":177:201   */\n      tag_79\n        /* \"#utility.yul\":195:200   */\n      dup2\n        /* \"#utility.yul\":177:201   */\n      tag_60\n      jump\t// in\n    tag_79:\n        /* \"#utility.yul\":172:175   */\n      dup3\n        /* \"#utility.yul\":165:202   */\n      mstore\n        /* \"#utility.yul\":90:208   */\n      pop\n      pop\n      jump\t// out\n        /* \"#utility.yul\":214:436   */\n    tag_14:\n        /* \"#utility.yul\":307:311   */\n      0x00\n        /* \"#utility.yul\":345:347   */\n      0x20\n        /* \"#utility.yul\":334:343   */\n      dup3\n        /* \"#utility.yul\":330:348   */\n      add\n        /* \"#utility.yul\":322:348   */\n      swap1\n      pop\n        /* \"#utility.yul\":358:429   */\n      tag_81\n        /* \"#utility.yul\":426:427   */\n      0x00\n        /* \"#utility.yul\":415:424   */\n      dup4\n        /* \"#utility.yul\":411:428   */\n      add\n        /* \"#utility.yul\":402:408   */\n      dup5\n        /* \"#utility.yul\":358:429   */\n      tag_61\n      jump\t// in\n    tag_81:\n        /* \"#utility.yul\":214:436   */\n      swap3\n      swap2\n      pop\n      pop\n      jump\t// out\n        /* \"#utility.yul\":523:640   */\n    tag_63:\n        /* \"#utility.yul\":632:633   */\n      0x00\n        /* \"#utility.yul\":629:630   */\n      dup1\n        /* \"#utility.yul\":622:634   */\n      revert\n        /* \"#utility.yul\":769:891   */\n    tag_65:\n        /* \"#utility.yul\":842:866   */\n      tag_86\n        /* \"#utility.yul\":860:865   */\n      dup2\n        /* \"#utility.yul\":842:866   */\n      tag_60\n      jump\t// in\n    tag_86:\n        /* \"#utility.yul\":835:840   */\n      dup2\n        /* \"#utility.yul\":832:867   */\n      eq\n        /* \"#utility.yul\":822:885   */\n      tag_87\n      jumpi\n        /* \"#utility.yul\":881:882   */\n      0x00\n        /* \"#utility.yul\":878:879   */\n      dup1\n        /* \"#utility.yul\":871:883   */\n      revert\n        /* \"#utility.yul\":822:885   */\n    tag_87:\n        /* \"#utility.yul\":769:891   */\n      pop\n      jump\t// out\n        /* \"#utility.yul\":897:1036   */\n    tag_66:\n        /* \"#utility.yul\":943:948   */\n      0x00\n        /* \"#utility.yul\":981:987   */\n      dup2\n        /* \"#utility.yul\":968:988   */\n      calldataload\n        /* \"#utility.yul\":959:988   */\n      swap1\n      pop\n        /* \"#utility.yul\":997:1030   */\n      tag_89\n        /* \"#utility.yul\":1024:1029   */\n      dup2\n        /* \"#utility.yul\":997:1030   */\n      tag_65\n      jump\t// in\n    tag_89:\n        /* \"#utility.yul\":897:1036   */\n      swap3\n      swap2\n      pop\n      pop\n      jump\t// out\n        /* \"#utility.yul\":1042:1371   */\n    tag_20:\n        /* \"#utility.yul\":1101:1107   */\n      0x00\n        /* \"#utility.yul\":1150:1152   */\n      0x20\n        /* \"#utility.yul\":1138:1147   */\n      dup3\n        /* \"#utility.yul\":1129:1136   */\n      dup5\n        /* \"#utility.yul\":1125:1148   */\n      sub\n        /* \"#utility.yul\":1121:1153   */\n      slt\n        /* \"#utility.yul\":1118:1237   */\n      iszero\n      tag_91\n      jumpi\n        /* \"#utility.yul\":1156:1235   */\n      tag_92\n      tag_63\n      jump\t// in\n    tag_92:\n        /* \"#utility.yul\":1118:1237   */\n    tag_91:\n        /* \"#utility.yul\":1276:1277   */\n      0x00\n        /* \"#utility.yul\":1301:1354   */\n      tag_93\n        /* \"#utility.yul\":1346:1353   */\n      dup5\n        /* \"#utility.yul\":1337:1343   */\n      dup3\n        /* \"#utility.yul\":1326:1335   */\n      dup6\n        /* \"#utility.yul\":1322:1344   */\n      add\n        /* \"#utility.yul\":1301:1354   */\n      tag_66\n      jump\t// in\n    tag_93:\n        /* \"#utility.yul\":1291:1354   */\n      swap2\n      pop\n        /* \"#utility.yul\":1247:1364   */\n      pop\n        /* \"#utility.yul\":1042:1371   */\n      swap3\n      swap2\n      pop\n      pop\n      jump\t// out\n        /* \"#utility.yul\":1377:1475   */\n    tag_67:\n        /* \"#utility.yul\":1428:1434   */\n      0x00\n        /* \"#utility.yul\":1462:1467   */\n      dup2\n        /* \"#utility.yul\":1456:1468   */\n      mload\n        /* \"#utility.yul\":1446:1468   */\n      swap1\n      pop\n        /* \"#utility.yul\":1377:1475   */\n      swap2\n      swap1\n      pop\n      jump\t// out\n        /* \"#utility.yul\":1481:1649   */\n    tag_68:\n        /* \"#utility.yul\":1564:1575   */\n      0x00\n        /* \"#utility.yul\":1598:1604   */\n      dup3\n        /* \"#utility.yul\":1593:1596   */\n      dup3\n        /* \"#utility.yul\":1586:1605   */\n      mstore\n        /* \"#utility.yul\":1638:1642   */\n      0x20\n        /* \"#utility.yul\":1633:1636   */\n      dup3\n        /* \"#utility.yul\":1629:1643   */\n      add\n        /* \"#utility.yul\":1614:1643   */\n      swap1\n      pop\n        /* \"#utility.yul\":1481:1649   */\n      swap3\n      swap2\n      pop\n      pop\n      jump\t// out\n        /* \"#utility.yul\":1655:1901   */\n    tag_69:\n        /* \"#utility.yul\":1736:1737   */\n      0x00\n        /* \"#utility.yul\":1746:1859   */\n    tag_97:\n        /* \"#utility.yul\":1760:1766   */\n      dup4\n        /* \"#utility.yul\":1757:1758   */\n      dup2\n        /* \"#utility.yul\":1754:1767   */\n      lt\n        /* \"#utility.yul\":1746:1859   */\n      iszero\n      tag_99\n      jumpi\n        /* \"#utility.yul\":1845:1846   */\n      dup1\n        /* \"#utility.yul\":1840:1843   */\n      dup3\n        /* \"#utility.yul\":1836:1847   */\n      add\n        /* \"#utility.yul\":1830:1848   */\n      mload\n        /* \"#utility.yul\":1826:1827   */\n      dup2\n        /* \"#utility.yul\":1821:1824   */\n      dup5\n        /* \"#utility.yul\":1817:1828   */\n      add\n        /* \"#utility.yul\":1810:1849   */\n      mstore\n        /* \"#utility.yul\":1782:1784   */\n      0x20\n        /* \"#utility.yul\":1779:1780   */\n      dup2\n        /* \"#utility.yul\":1775:1785   */\n      add\n        /* \"#utility.yul\":1770:1785   */\n      swap1\n      pop\n        /* \"#utility.yul\":1746:1859   */\n      jump(tag_97)\n    tag_99:\n        /* \"#utility.yul\":1893:1894   */\n      0x00\n        /* \"#utility.yul\":1884:1890   */\n      dup5\n        /* \"#utility.yul\":1879:1882   */\n      dup5\n        /* \"#utility.yul\":1875:1891   */\n      add\n        /* \"#utility.yul\":1868:1895   */\n      mstore\n        /* \"#utility.yul\":1717:1901   */\n      pop\n        /* \"#utility.yul\":1655:1901   */\n      pop\n      pop\n      pop\n      jump\t// out\n        /* \"#utility.yul\":1907:2009   */\n    tag_70:\n        /* \"#utility.yul\":1948:1954   */\n      0x00\n        /* \"#utility.yul\":1999:2001   */\n      0x1f\n        /* \"#utility.yul\":1995:2002   */\n      not\n        /* \"#utility.yul\":1990:1992   */\n      0x1f\n        /* \"#utility.yul\":1983:1988   */\n      dup4\n        /* \"#utility.yul\":1979:1993   */\n      add\n        /* \"#utility.yul\":1975:2003   */\n      and\n        /* \"#utility.yul\":1965:2003   */\n      swap1\n      pop\n        /* \"#utility.yul\":1907:2009   */\n      swap2\n      swap1\n      pop\n      jump\t// out\n        /* \"#utility.yul\":2015:2388   */\n    tag_71:\n        /* \"#utility.yul\":2101:2104   */\n      0x00\n        /* \"#utility.yul\":2129:2167   */\n      tag_102\n        /* \"#utility.yul\":2161:2166   */\n      dup3\n        /* \"#utility.yul\":2129:2167   */\n      tag_67\n      jump\t// in\n    tag_102:\n        /* \"#utility.yul\":2183:2253   */\n      tag_103\n        /* \"#utility.yul\":2246:2252   */\n      dup2\n        /* \"#utility.yul\":2241:2244   */\n      dup6\n        /* \"#utility.yul\":2183:2253   */\n      tag_68\n      jump\t// in\n    tag_103:\n        /* \"#utility.yul\":2176:2253   */\n      swap4\n      pop\n        /* \"#utility.yul\":2262:2327   */\n      tag_104\n        /* \"#utility.yul\":2320:2326   */\n      dup2\n        /* \"#utility.yul\":2315:2318   */\n      dup6\n        /* \"#utility.yul\":2308:2312   */\n      0x20\n        /* \"#utility.yul\":2301:2306   */\n      dup7\n        /* \"#utility.yul\":2297:2313   */\n      add\n        /* \"#utility.yul\":2262:2327   */\n      tag_69\n      jump\t// in\n    tag_104:\n        /* \"#utility.yul\":2352:2381   */\n      tag_105\n        /* \"#utility.yul\":2374:2380   */\n      dup2\n        /* \"#utility.yul\":2352:2381   */\n      tag_70\n      jump\t// in\n    tag_105:\n        /* \"#utility.yul\":2347:2350   */\n      dup5\n        /* \"#utility.yul\":2343:2382   */\n      add\n        /* \"#utility.yul\":2336:2382   */\n      swap2\n      pop\n        /* \"#utility.yul\":2105:2388   */\n      pop\n        /* \"#utility.yul\":2015:2388   */\n      swap3\n      swap2\n      pop\n      pop\n      jump\t// out\n        /* \"#utility.yul\":2394:2703   */\n    tag_26:\n        /* \"#utility.yul\":2505:2509   */\n      0x00\n        /* \"#utility.yul\":2543:2545   */\n      0x20\n        /* \"#utility.yul\":2532:2541   */\n      dup3\n        /* \"#utility.yul\":2528:2546   */\n      add\n        /* \"#utility.yul\":2520:2546   */\n      swap1\n      pop\n        /* \"#utility.yul\":2592:2601   */\n      dup2\n        /* \"#utility.yul\":2586:2590   */\n      dup2\n        /* \"#utility.yul\":2582:2602   */\n      sub\n        /* \"#utility.yul\":2578:2579   */\n      0x00\n        /* \"#utility.yul\":2567:2576   */\n      dup4\n        /* \"#utility.yul\":2563:2580   */\n      add\n        /* \"#utility.yul\":2556:2603   */\n      mstore\n        /* \"#utility.yul\":2620:2696   */\n      tag_107\n        /* \"#utility.yul\":2691:2695   */\n      dup2\n        /* \"#utility.yul\":2682:2688   */\n      dup5\n        /* \"#utility.yul\":2620:2696   */\n      tag_71\n      jump\t// in\n    tag_107:\n        /* \"#utility.yul\":2612:2696   */\n      swap1\n      pop\n        /* \"#utility.yul\":2394:2703   */\n      swap3\n      swap2\n      pop\n      pop\n      jump\t// out\n        /* \"#utility.yul\":2709:2808   */\n    tag_72:\n        /* \"#utility.yul\":2761:2767   */\n      0x00\n        /* \"#utility.yul\":2795:2800   */\n      dup2\n        /* \"#utility.yul\":2789:2801   */\n      mload\n        /* \"#utility.yul\":2779:2801   */\n      swap1\n      pop\n        /* \"#utility.yul\":2709:2808   */\n      swap2\n      swap1\n      pop\n      jump\t// out\n        /* \"#utility.yul\":2814:2983   */\n    tag_73:\n        /* \"#utility.yul\":2898:2909   */\n      0x00\n        /* \"#utility.yul\":2932:2938   */\n      dup3\n        /* \"#utility.yul\":2927:2930   */\n      dup3\n        /* \"#utility.yul\":2920:2939   */\n      mstore\n        /* \"#utility.yul\":2972:2976   */\n      0x20\n        /* \"#utility.yul\":2967:2970   */\n      dup3\n        /* \"#utility.yul\":2963:2977   */\n      add\n        /* \"#utility.yul\":2948:2977   */\n      swap1\n      pop\n        /* \"#utility.yul\":2814:2983   */\n      swap3\n      swap2\n      pop\n      pop\n      jump\t// out\n        /* \"#utility.yul\":2989:3366   */\n    tag_74:\n        /* \"#utility.yul\":3077:3080   */\n      0x00\n        /* \"#utility.yul\":3105:3144   */\n      tag_111\n        /* \"#utility.yul\":3138:3143   */\n      dup3\n        /* \"#utility.yul\":3105:3144   */\n      tag_72\n      jump\t// in\n    tag_111:\n        /* \"#utility.yul\":3160:3231   */\n      tag_112\n        /* \"#utility.yul\":3224:3230   */\n      dup2\n        /* \"#utility.yul\":3219:3222   */\n      dup6\n        /* \"#utility.yul\":3160:3231   */\n      tag_73\n      jump\t// in\n    tag_112:\n        /* \"#utility.yul\":3153:3231   */\n      swap4\n      pop\n        /* \"#utility.yul\":3240:3305   */\n      tag_113\n        /* \"#utility.yul\":3298:3304   */\n      dup2\n        /* \"#utility.yul\":3293:3296   */\n      dup6\n        /* \"#utility.yul\":3286:3290   */\n      0x20\n        /* \"#utility.yul\":3279:3284   */\n      dup7\n        /* \"#utility.yul\":3275:3291   */\n      add\n        /* \"#utility.yul\":3240:3305   */\n      tag_69\n      jump\t// in\n    tag_113:\n        /* \"#utility.yul\":3330:3359   */\n      tag_114\n        /* \"#utility.yul\":3352:3358   */\n      dup2\n        /* \"#utility.yul\":3330:3359   */\n      tag_70\n      jump\t// in\n    tag_114:\n        /* \"#utility.yul\":3325:3328   */\n      dup5\n        /* \"#utility.yul\":3321:3360   */\n      add\n        /* \"#utility.yul\":3314:3360   */\n      swap2\n      pop\n        /* \"#utility.yul\":3081:3366   */\n      pop\n        /* \"#utility.yul\":2989:3366   */\n      swap3\n      swap2\n      pop\n      pop\n      jump\t// out\n        /* \"#utility.yul\":3372:3685   */\n    tag_30:\n        /* \"#utility.yul\":3485:3489   */\n      0x00\n        /* \"#utility.yul\":3523:3525   */\n      0x20\n        /* \"#utility.yul\":3512:3521   */\n      dup3\n        /* \"#utility.yul\":3508:3526   */\n      add\n        /* \"#utility.yul\":3500:3526   */\n      swap1\n      pop\n        /* \"#utility.yul\":3572:3581   */\n      dup2\n        /* \"#utility.yul\":3566:3570   */\n      dup2\n        /* \"#utility.yul\":3562:3582   */\n      sub\n        /* \"#utility.yul\":3558:3559   */\n      0x00\n        /* \"#utility.yul\":3547:3556   */\n      dup4\n        /* \"#utility.yul\":3543:3560   */\n      add\n        /* \"#utility.yul\":3536:3583   */\n      mstore\n        /* \"#utility.yul\":3600:3678   */\n      tag_116\n        /* \"#utility.yul\":3673:3677   */\n      dup2\n        /* \"#utility.yul\":3664:3670   */\n      dup5\n        /* \"#utility.yul\":3600:3678   */\n      tag_74\n      jump\t// in\n    tag_116:\n        /* \"#utility.yul\":3592:3678   */\n      swap1\n      pop\n        /* \"#utility.yul\":3372:3685   */\n      swap3\n      swap2\n      pop\n      pop\n      jump\t// out\n        /* \"#utility.yul\":3691:3871   */\n    tag_75:\n        /* \"#utility.yul\":3739:3816   */\n      0x4e487b7100000000000000000000000000000000000000000000000000000000\n        /* \"#utility.yul\":3736:3737   */\n      0x00\n        /* \"#utility.yul\":3729:3817   */\n      mstore\n        /* \"#utility.yul\":3836:3840   */\n      0x22\n        /* \"#utility.yul\":3833:3834   */\n      0x04\n        /* \"#utility.yul\":3826:3841   */\n      mstore\n        /* \"#utility.yul\":3860:3864   */\n      0x24\n        /* \"#utility.yul\":3857:3858   */\n      0x00\n        /* \"#utility.yul\":3850:3865   */\n      revert\n        /* \"#utility.yul\":3877:4197   */\n    tag_40:\n        /* \"#utility.yul\":3921:3927   */\n      0x00\n        /* \"#utility.yul\":3958:3959   */\n      0x02\n        /* \"#utility.yul\":3952:3956   */\n      dup3\n        /* \"#utility.yul\":3948:3960   */\n      div\n        /* \"#utility.yul\":3938:3960   */\n      swap1\n      pop\n        /* \"#utility.yul\":4005:4006   */\n      0x01\n        /* \"#utility.yul\":3999:4003   */\n      dup3\n        /* \"#utility.yul\":3995:4007   */\n      and\n        /* \"#utility.yul\":4026:4044   */\n      dup1\n        /* \"#utility.yul\":4016:4097   */\n      tag_119\n      jumpi\n        /* \"#utility.yul\":4082:4086   */\n      0x7f\n        /* \"#utility.yul\":4074:4080   */\n      dup3\n        /* \"#utility.yul\":4070:4087   */\n      and\n        /* \"#utility.yul\":4060:4087   */\n      swap2\n      pop\n        /* \"#utility.yul\":4016:4097   */\n    tag_119:\n        /* \"#utility.yul\":4144:4146   */\n      0x20\n        /* \"#utility.yul\":4136:4142   */\n      dup3\n        /* \"#utility.yul\":4133:4147   */\n      lt\n        /* \"#utility.yul\":4113:4131   */\n      dup2\n        /* \"#utility.yul\":4110:4148   */\n      sub\n        /* \"#utility.yul\":4107:4191   */\n      tag_120\n      jumpi\n        /* \"#utility.yul\":4163:4181   */\n      tag_121\n      tag_75\n      jump\t// in\n    tag_121:\n        /* \"#utility.yul\":4107:4191   */\n    tag_120:\n        /* \"#utility.yul\":3928:4197   */\n      pop\n        /* \"#utility.yul\":3877:4197   */\n      swap2\n      swap1\n      pop\n      jump\t// out\n\n    auxdata: 0xa2646970667358221220d239161939d69bb33d325cc01b09cbacb4b5b82d87f8aa1f1bc802860bf4c52364736f6c63430008180033\n}\n",
				"bytecode": {
					"linkReferences": {},
					"object": "60806040526040518060400160405280600881526020017f4861727368697461000000000000000000000000000000000000000000000000815250600290816200004a91906200034d565b5060226003556040518060400160405280600581526020017f6d616e676f0000000000000000000000000000000000000000000000000000008152506004908162000096919062000493565b50348015620000a3575f80fd5b5060405162000d6738038062000d678339818101604052810190620000c99190620006fe565b815f9081620000d991906200034d565b5080600181905550505062000762565b5f81519050919050565b7f4e487b71000000000000000000000000000000000000000000000000000000005f52604160045260245ffd5b7f4e487b71000000000000000000000000000000000000000000000000000000005f52602260045260245ffd5b5f60028204905060018216806200016557607f821691505b6020821081036200017b576200017a62000120565b5b50919050565b5f819050815f5260205f209050919050565b5f6020601f8301049050919050565b5f82821b905092915050565b5f60088302620001df7fffffffffffffffffffffffffffffffffffffffffffffffffffffffffffffffff82620001a2565b620001eb8683620001a2565b95508019841693508086168417925050509392505050565b5f819050919050565b5f819050919050565b5f620002356200022f620002298462000203565b6200020c565b62000203565b9050919050565b5f819050919050565b620002508362000215565b620002686200025f826200023c565b848454620001ae565b825550505050565b5f90565b6200027e62000270565b6200028b81848462000245565b505050565b5b81811015620002b257620002a65f8262000274565b60018101905062000291565b5050565b601f8211156200030157620002cb8162000181565b620002d68462000193565b81016020851015620002e6578190505b620002fe620002f58562000193565b83018262000290565b50505b505050565b5f82821c905092915050565b5f620003235f198460080262000306565b1980831691505092915050565b5f6200033d838362000312565b9150826002028217905092915050565b6200035882620000e9565b67ffffffffffffffff811115620003745762000373620000f3565b5b6200038082546200014d565b6200038d828285620002b6565b5f60209050601f831160018114620003c3575f8415620003ae578287015190505b620003ba858262000330565b86555062000429565b601f198416620003d38662000181565b5f5b82811015620003fc57848901518255600182019150602085019450602081019050620003d5565b868310156200041c578489015162000418601f89168262000312565b8355505b6001600288020188555050505b505050505050565b5f819050815f5260205f209050919050565b601f8211156200048e57620004588162000431565b620004638462000193565b8101602085101562000473578190505b6200048b620004828562000193565b83018262000290565b50505b505050565b6200049e82620000e9565b67ffffffffffffffff811115620004ba57620004b9620000f3565b5b620004c682546200014d565b620004d382828562000443565b5f60209050601f83116001811462000509575f8415620004f4578287015190505b62000500858262000330565b8655506200056f565b601f198416620005198662000431565b5f5b8281101562000542578489015182556001820191506020850194506020810190506200051b565b868310156200056257848901516200055e601f89168262000312565b8355505b6001600288020188555050505b505050505050565b5f604051905090565b5f80fd5b5f80fd5b5f80fd5b5f80fd5b5f601f19601f8301169050919050565b620005ab8262000590565b810181811067ffffffffffffffff82111715620005cd57620005cc620000f3565b5b80604052505050565b5f620005e162000577565b9050620005ef8282620005a0565b919050565b5f67ffffffffffffffff821115620006115762000610620000f3565b5b6200061c8262000590565b9050602081019050919050565b5f5b83811015620006485780820151818401526020810190506200062b565b5f8484015250505050565b5f620006696200066384620005f4565b620005d6565b9050828152602081018484840111156200068857620006876200058c565b5b6200069584828562000629565b509392505050565b5f82601f830112620006b457620006b362000588565b5b8151620006c684826020860162000653565b91505092915050565b620006da8162000203565b8114620006e5575f80fd5b50565b5f81519050620006f881620006cf565b92915050565b5f806040838503121562000717576200071662000580565b5b5f83015167ffffffffffffffff81111562000737576200073662000584565b5b62000745858286016200069d565b92505060206200075885828601620006e8565b9150509250929050565b6105f780620007705f395ff3fe608060405234801561000f575f80fd5b506004361061007b575f3560e01c8063b1dfb56e11610059578063b1dfb56e146100eb578063d118d18714610109578063d295fbb614610127578063fcdcfa50146101455761007b565b806315d4266c1461007f5780633b9eac4b1461009d57806371e5ee5f146100bb575b5f80fd5b610087610163565b60405161009491906103d6565b60405180910390f35b6100a5610169565b6040516100b291906103d6565b60405180910390f35b6100d560048036038101906100d0919061041d565b61016f565b6040516100e291906103d6565b60405180910390f35b6100f361018f565b60405161010091906104d2565b60405180910390f35b61011161021b565b60405161011e9190610544565b60405180910390f35b61012f6102a6565b60405161013c91906104d2565b60405180910390f35b61014d610332565b60405161015a9190610544565b60405180910390f35b60035481565b60015481565b6006818154811061017e575f80fd5b905f5260205f20015f915090505481565b6005805461019c90610591565b80601f01602080910402602001604051908101604052809291908181526020018280546101c890610591565b80156102135780601f106101ea57610100808354040283529160200191610213565b820191905f5260205f20905b8154815290600101906020018083116101f657829003601f168201915b505050505081565b5f805461022790610591565b80601f016020809104026020016040519081016040528092919081815260200182805461025390610591565b801561029e5780601f106102755761010080835404028352916020019161029e565b820191905f5260205f20905b81548152906001019060200180831161028157829003601f168201915b505050505081565b600480546102b390610591565b80601f01602080910402602001604051908101604052809291908181526020018280546102df90610591565b801561032a5780601f106103015761010080835404028352916020019161032a565b820191905f5260205f20905b81548152906001019060200180831161030d57829003601f168201915b505050505081565b6002805461033f90610591565b80601f016020809104026020016040519081016040528092919081815260200182805461036b90610591565b80156103b65780601f1061038d576101008083540402835291602001916103b6565b820191905f5260205f20905b81548152906001019060200180831161039957829003601f168201915b505050505081565b5f819050919050565b6103d0816103be565b82525050565b5f6020820190506103e95f8301846103c7565b92915050565b5f80fd5b6103fc816103be565b8114610406575f80fd5b50565b5f81359050610417816103f3565b92915050565b5f60208284031215610432576104316103ef565b5b5f61043f84828501610409565b91505092915050565b5f81519050919050565b5f82825260208201905092915050565b5f5b8381101561047f578082015181840152602081019050610464565b5f8484015250505050565b5f601f19601f8301169050919050565b5f6104a482610448565b6104ae8185610452565b93506104be818560208601610462565b6104c78161048a565b840191505092915050565b5f6020820190508181035f8301526104ea818461049a565b905092915050565b5f81519050919050565b5f82825260208201905092915050565b5f610516826104f2565b61052081856104fc565b9350610530818560208601610462565b6105398161048a565b840191505092915050565b5f6020820190508181035f83015261055c818461050c565b905092915050565b7f4e487b71000000000000000000000000000000000000000000000000000000005f52602260045260245ffd5b5f60028204905060018216806105a857607f821691505b6020821081036105bb576105ba610564565b5b5091905056fea2646970667358221220d239161939d69bb33d325cc01b09cbacb4b5b82d87f8aa1f1bc802860bf4c52364736f6c63430008180033",
					"opcodes": "PUSH1 0x80 PUSH1 0x40 MSTORE PUSH1 0x40 MLOAD DUP1 PUSH1 0x40 ADD PUSH1 0x40 MSTORE DUP1 PUSH1 0x8 DUP2 MSTORE PUSH1 0x20 ADD PUSH32 0x4861727368697461000000000000000000000000000000000000000000000000 DUP2 MSTORE POP PUSH1 0x2 SWAP1 DUP2 PUSH3 0x4A SWAP2 SWAP1 PUSH3 0x34D JUMP JUMPDEST POP PUSH1 0x22 PUSH1 0x3 SSTORE PUSH1 0x40 MLOAD DUP1 PUSH1 0x40 ADD PUSH1 0x40 MSTORE DUP1 PUSH1 0x5 DUP2 MSTORE PUSH1 0x20 ADD PUSH32 0x6D616E676F000000000000000000000000000000000000000000000000000000 DUP2 MSTORE POP PUSH1 0x4 SWAP1 DUP2 PUSH3 0x96 SWAP2 SWAP1 PUSH3 0x493 JUMP JUMPDEST POP CALLVALUE DUP1 ISZERO PUSH3 0xA3 JUMPI PUSH0 DUP1 REVERT JUMPDEST POP PUSH1 0x40 MLOAD PUSH3 0xD67 CODESIZE SUB DUP1 PUSH3 0xD67 DUP4 CODECOPY DUP2 DUP2 ADD PUSH1 0x40 MSTORE DUP2 ADD SWAP1 PUSH3 0xC9 SWAP2 SWAP1 PUSH3 0x6FE JUMP JUMPDEST DUP2 PUSH0 SWAP1 DUP2 PUSH3 0xD9 SWAP2 SWAP1 PUSH3 0x34D JUMP JUMPDEST POP DUP1 PUSH1 0x1 DUP2 SWAP1 SSTORE POP POP POP PUSH3 0x762 JUMP JUMPDEST PUSH0 DUP2 MLOAD SWAP1 POP SWAP2 SWAP1 POP JUMP JUMPDEST PUSH32 0x4E487B7100000000000000000000000000000000000000000000000000000000 PUSH0 MSTORE PUSH1 0x41 PUSH1 0x4 MSTORE PUSH1 0x24 PUSH0 REVERT JUMPDEST PUSH32 0x4E487B7100000000000000000000000000000000000000000000000000000000 PUSH0 MSTORE PUSH1 0x22 PUSH1 0x4 MSTORE PUSH1 0x24 PUSH0 REVERT JUMPDEST PUSH0 PUSH1 0x2 DUP3 DIV SWAP1 POP PUSH1 0x1 DUP3 AND DUP1 PUSH3 0x165 JUMPI PUSH1 0x7F DUP3 AND SWAP2 POP JUMPDEST PUSH1 0x20 DUP3 LT DUP2 SUB PUSH3 0x17B JUMPI PUSH3 0x17A PUSH3 0x120 JUMP JUMPDEST JUMPDEST POP SWAP2 SWAP1 POP JUMP JUMPDEST PUSH0 DUP2 SWAP1 POP DUP2 PUSH0 MSTORE PUSH1 0x20 PUSH0 KECCAK256 SWAP1 POP SWAP2 SWAP1 POP JUMP JUMPDEST PUSH0 PUSH1 0x20 PUSH1 0x1F DUP4 ADD DIV SWAP1 POP SWAP2 SWAP1 POP JUMP JUMPDEST PUSH0 DUP3 DUP3 SHL SWAP1 POP SWAP3 SWAP2 POP POP JUMP JUMPDEST PUSH0 PUSH1 0x8 DUP4 MUL PUSH3 0x1DF PUSH32 0xFFFFFFFFFFFFFFFFFFFFFFFFFFFFFFFFFFFFFFFFFFFFFFFFFFFFFFFFFFFFFFFF DUP3 PUSH3 0x1A2 JUMP JUMPDEST PUSH3 0x1EB DUP7 DUP4 PUSH3 0x1A2 JUMP JUMPDEST SWAP6 POP DUP1 NOT DUP5 AND SWAP4 POP DUP1 DUP7 AND DUP5 OR SWAP3 POP POP POP SWAP4 SWAP3 POP POP POP JUMP JUMPDEST PUSH0 DUP2 SWAP1 POP SWAP2 SWAP1 POP JUMP JUMPDEST PUSH0 DUP2 SWAP1 POP SWAP2 SWAP1 POP JUMP JUMPDEST PUSH0 PUSH3 0x235 PUSH3 0x22F PUSH3 0x229 DUP5 PUSH3 0x203 JUMP JUMPDEST PUSH3 0x20C JUMP JUMPDEST PUSH3 0x203 JUMP JUMPDEST SWAP1 POP SWAP2 SWAP1 POP JUMP JUMPDEST PUSH0 DUP2 SWAP1 POP SWAP2 SWAP1 POP JUMP JUMPDEST PUSH3 0x250 DUP4 PUSH3 0x215 JUMP JUMPDEST PUSH3 0x268 PUSH3 0x25F DUP3 PUSH3 0x23C JUMP JUMPDEST DUP5 DUP5 SLOAD PUSH3 0x1AE JUMP JUMPDEST DUP3 SSTORE POP POP POP POP JUMP JUMPDEST PUSH0 SWAP1 JUMP JUMPDEST PUSH3 0x27E PUSH3 0x270 JUMP JUMPDEST PUSH3 0x28B DUP2 DUP5 DUP5 PUSH3 0x245 JUMP JUMPDEST POP POP POP JUMP JUMPDEST JUMPDEST DUP2 DUP2 LT ISZERO PUSH3 0x2B2 JUMPI PUSH3 0x2A6 PUSH0 DUP3 PUSH3 0x274 JUMP JUMPDEST PUSH1 0x1 DUP2 ADD SWAP1 POP PUSH3 0x291 JUMP JUMPDEST POP POP JUMP JUMPDEST PUSH1 0x1F DUP3 GT ISZERO PUSH3 0x301 JUMPI PUSH3 0x2CB DUP2 PUSH3 0x181 JUMP JUMPDEST PUSH3 0x2D6 DUP5 PUSH3 0x193 JUMP JUMPDEST DUP2 ADD PUSH1 0x20 DUP6 LT ISZERO PUSH3 0x2E6 JUMPI DUP2 SWAP1 POP JUMPDEST PUSH3 0x2FE PUSH3 0x2F5 DUP6 PUSH3 0x193 JUMP JUMPDEST DUP4 ADD DUP3 PUSH3 0x290 JUMP JUMPDEST POP POP JUMPDEST POP POP POP JUMP JUMPDEST PUSH0 DUP3 DUP3 SHR SWAP1 POP SWAP3 SWAP2 POP POP JUMP JUMPDEST PUSH0 PUSH3 0x323 PUSH0 NOT DUP5 PUSH1 0x8 MUL PUSH3 0x306 JUMP JUMPDEST NOT DUP1 DUP4 AND SWAP2 POP POP SWAP3 SWAP2 POP POP JUMP JUMPDEST PUSH0 PUSH3 0x33D DUP4 DUP4 PUSH3 0x312 JUMP JUMPDEST SWAP2 POP DUP3 PUSH1 0x2 MUL DUP3 OR SWAP1 POP SWAP3 SWAP2 POP POP JUMP JUMPDEST PUSH3 0x358 DUP3 PUSH3 0xE9 JUMP JUMPDEST PUSH8 0xFFFFFFFFFFFFFFFF DUP2 GT ISZERO PUSH3 0x374 JUMPI PUSH3 0x373 PUSH3 0xF3 JUMP JUMPDEST JUMPDEST PUSH3 0x380 DUP3 SLOAD PUSH3 0x14D JUMP JUMPDEST PUSH3 0x38D DUP3 DUP3 DUP6 PUSH3 0x2B6 JUMP JUMPDEST PUSH0 PUSH1 0x20 SWAP1 POP PUSH1 0x1F DUP4 GT PUSH1 0x1 DUP2 EQ PUSH3 0x3C3 JUMPI PUSH0 DUP5 ISZERO PUSH3 0x3AE JUMPI DUP3 DUP8 ADD MLOAD SWAP1 POP JUMPDEST PUSH3 0x3BA DUP6 DUP3 PUSH3 0x330 JUMP JUMPDEST DUP7 SSTORE POP PUSH3 0x429 JUMP JUMPDEST PUSH1 0x1F NOT DUP5 AND PUSH3 0x3D3 DUP7 PUSH3 0x181 JUMP JUMPDEST PUSH0 JUMPDEST DUP3 DUP2 LT ISZERO PUSH3 0x3FC JUMPI DUP5 DUP10 ADD MLOAD DUP3 SSTORE PUSH1 0x1 DUP3 ADD SWAP2 POP PUSH1 0x20 DUP6 ADD SWAP5 POP PUSH1 0x20 DUP2 ADD SWAP1 POP PUSH3 0x3D5 JUMP JUMPDEST DUP7 DUP4 LT ISZERO PUSH3 0x41C JUMPI DUP5 DUP10 ADD MLOAD PUSH3 0x418 PUSH1 0x1F DUP10 AND DUP3 PUSH3 0x312 JUMP JUMPDEST DUP4 SSTORE POP JUMPDEST PUSH1 0x1 PUSH1 0x2 DUP9 MUL ADD DUP9 SSTORE POP POP POP JUMPDEST POP POP POP POP POP POP JUMP JUMPDEST PUSH0 DUP2 SWAP1 POP DUP2 PUSH0 MSTORE PUSH1 0x20 PUSH0 KECCAK256 SWAP1 POP SWAP2 SWAP1 POP JUMP JUMPDEST PUSH1 0x1F DUP3 GT ISZERO PUSH3 0x48E JUMPI PUSH3 0x458 DUP2 PUSH3 0x431 JUMP JUMPDEST PUSH3 0x463 DUP5 PUSH3 0x193 JUMP JUMPDEST DUP2 ADD PUSH1 0x20 DUP6 LT ISZERO PUSH3 0x473 JUMPI DUP2 SWAP1 POP JUMPDEST PUSH3 0x48B PUSH3 0x482 DUP6 PUSH3 0x193 JUMP JUMPDEST DUP4 ADD DUP3 PUSH3 0x290 JUMP JUMPDEST POP POP JUMPDEST POP POP POP JUMP JUMPDEST PUSH3 0x49E DUP3 PUSH3 0xE9 JUMP JUMPDEST PUSH8 0xFFFFFFFFFFFFFFFF DUP2 GT ISZERO PUSH3 0x4BA JUMPI PUSH3 0x4B9 PUSH3 0xF3 JUMP JUMPDEST JUMPDEST PUSH3 0x4C6 DUP3 SLOAD PUSH3 0x14D JUMP JUMPDEST PUSH3 0x4D3 DUP3 DUP3 DUP6 PUSH3 0x443 JUMP JUMPDEST PUSH0 PUSH1 0x20 SWAP1 POP PUSH1 0x1F DUP4 GT PUSH1 0x1 DUP2 EQ PUSH3 0x509 JUMPI PUSH0 DUP5 ISZERO PUSH3 0x4F4 JUMPI DUP3 DUP8 ADD MLOAD SWAP1 POP JUMPDEST PUSH3 0x500 DUP6 DUP3 PUSH3 0x330 JUMP JUMPDEST DUP7 SSTORE POP PUSH3 0x56F JUMP JUMPDEST PUSH1 0x1F NOT DUP5 AND PUSH3 0x519 DUP7 PUSH3 0x431 JUMP JUMPDEST PUSH0 JUMPDEST DUP3 DUP2 LT ISZERO PUSH3 0x542 JUMPI DUP5 DUP10 ADD MLOAD DUP3 SSTORE PUSH1 0x1 DUP3 ADD SWAP2 POP PUSH1 0x20 DUP6 ADD SWAP5 POP PUSH1 0x20 DUP2 ADD SWAP1 POP PUSH3 0x51B JUMP JUMPDEST DUP7 DUP4 LT ISZERO PUSH3 0x562 JUMPI DUP5 DUP10 ADD MLOAD PUSH3 0x55E PUSH1 0x1F DUP10 AND DUP3 PUSH3 0x312 JUMP JUMPDEST DUP4 SSTORE POP JUMPDEST PUSH1 0x1 PUSH1 0x2 DUP9 MUL ADD DUP9 SSTORE POP POP POP JUMPDEST POP POP POP POP POP POP JUMP JUMPDEST PUSH0 PUSH1 0x40 MLOAD SWAP1 POP SWAP1 JUMP JUMPDEST PUSH0 DUP1 REVERT JUMPDEST PUSH0 DUP1 REVERT JUMPDEST PUSH0 DUP1 REVERT JUMPDEST PUSH0 DUP1 REVERT JUMPDEST PUSH0 PUSH1 0x1F NOT PUSH1 0x1F DUP4 ADD AND SWAP1 POP SWAP2 SWAP1 POP JUMP JUMPDEST PUSH3 0x5AB DUP3 PUSH3 0x590 JUMP JUMPDEST DUP2 ADD DUP2 DUP2 LT PUSH8 0xFFFFFFFFFFFFFFFF DUP3 GT OR ISZERO PUSH3 0x5CD JUMPI PUSH3 0x5CC PUSH3 0xF3 JUMP JUMPDEST JUMPDEST DUP1 PUSH1 0x40 MSTORE POP POP POP JUMP JUMPDEST PUSH0 PUSH3 0x5E1 PUSH3 0x577 JUMP JUMPDEST SWAP1 POP PUSH3 0x5EF DUP3 DUP3 PUSH3 0x5A0 JUMP JUMPDEST SWAP2 SWAP1 POP JUMP JUMPDEST PUSH0 PUSH8 0xFFFFFFFFFFFFFFFF DUP3 GT ISZERO PUSH3 0x611 JUMPI PUSH3 0x610 PUSH3 0xF3 JUMP JUMPDEST JUMPDEST PUSH3 0x61C DUP3 PUSH3 0x590 JUMP JUMPDEST SWAP1 POP PUSH1 0x20 DUP2 ADD SWAP1 POP SWAP2 SWAP1 POP JUMP JUMPDEST PUSH0 JUMPDEST DUP4 DUP2 LT ISZERO PUSH3 0x648 JUMPI DUP1 DUP3 ADD MLOAD DUP2 DUP5 ADD MSTORE PUSH1 0x20 DUP2 ADD SWAP1 POP PUSH3 0x62B JUMP JUMPDEST PUSH0 DUP5 DUP5 ADD MSTORE POP POP POP POP JUMP JUMPDEST PUSH0 PUSH3 0x669 PUSH3 0x663 DUP5 PUSH3 0x5F4 JUMP JUMPDEST PUSH3 0x5D6 JUMP JUMPDEST SWAP1 POP DUP3 DUP2 MSTORE PUSH1 0x20 DUP2 ADD DUP5 DUP5 DUP5 ADD GT ISZERO PUSH3 0x688 JUMPI PUSH3 0x687 PUSH3 0x58C JUMP JUMPDEST JUMPDEST PUSH3 0x695 DUP5 DUP3 DUP6 PUSH3 0x629 JUMP JUMPDEST POP SWAP4 SWAP3 POP POP POP JUMP JUMPDEST PUSH0 DUP3 PUSH1 0x1F DUP4 ADD SLT PUSH3 0x6B4 JUMPI PUSH3 0x6B3 PUSH3 0x588 JUMP JUMPDEST JUMPDEST DUP2 MLOAD PUSH3 0x6C6 DUP5 DUP3 PUSH1 0x20 DUP7 ADD PUSH3 0x653 JUMP JUMPDEST SWAP2 POP POP SWAP3 SWAP2 POP POP JUMP JUMPDEST PUSH3 0x6DA DUP2 PUSH3 0x203 JUMP JUMPDEST DUP2 EQ PUSH3 0x6E5 JUMPI PUSH0 DUP1 REVERT JUMPDEST POP JUMP JUMPDEST PUSH0 DUP2 MLOAD SWAP1 POP PUSH3 0x6F8 DUP2 PUSH3 0x6CF JUMP JUMPDEST SWAP3 SWAP2 POP POP JUMP JUMPDEST PUSH0 DUP1 PUSH1 0x40 DUP4 DUP6 SUB SLT ISZERO PUSH3 0x717 JUMPI PUSH3 0x716 PUSH3 0x580 JUMP JUMPDEST JUMPDEST PUSH0 DUP4 ADD MLOAD PUSH8 0xFFFFFFFFFFFFFFFF DUP2 GT ISZERO PUSH3 0x737 JUMPI PUSH3 0x736 PUSH3 0x584 JUMP JUMPDEST JUMPDEST PUSH3 0x745 DUP6 DUP3 DUP7 ADD PUSH3 0x69D JUMP JUMPDEST SWAP3 POP POP PUSH1 0x20 PUSH3 0x758 DUP6 DUP3 DUP7 ADD PUSH3 0x6E8 JUMP JUMPDEST SWAP2 POP POP SWAP3 POP SWAP3 SWAP1 POP JUMP JUMPDEST PUSH2 0x5F7 DUP1 PUSH3 0x770 PUSH0 CODECOPY PUSH0 RETURN INVALID PUSH1 0x80 PUSH1 0x40 MSTORE CALLVALUE DUP1 ISZERO PUSH2 0xF JUMPI PUSH0 DUP1 REVERT JUMPDEST POP PUSH1 0x4 CALLDATASIZE LT PUSH2 0x7B JUMPI PUSH0 CALLDATALOAD PUSH1 0xE0 SHR DUP1 PUSH4 0xB1DFB56E GT PUSH2 0x59 JUMPI DUP1 PUSH4 0xB1DFB56E EQ PUSH2 0xEB JUMPI DUP1 PUSH4 0xD118D187 EQ PUSH2 0x109 JUMPI DUP1 PUSH4 0xD295FBB6 EQ PUSH2 0x127 JUMPI DUP1 PUSH4 0xFCDCFA50 EQ PUSH2 0x145 JUMPI PUSH2 0x7B JUMP JUMPDEST DUP1 PUSH4 0x15D4266C EQ PUSH2 0x7F JUMPI DUP1 PUSH4 0x3B9EAC4B EQ PUSH2 0x9D JUMPI DUP1 PUSH4 0x71E5EE5F EQ PUSH2 0xBB JUMPI JUMPDEST PUSH0 DUP1 REVERT JUMPDEST PUSH2 0x87 PUSH2 0x163 JUMP JUMPDEST PUSH1 0x40 MLOAD PUSH2 0x94 SWAP2 SWAP1 PUSH2 0x3D6 JUMP JUMPDEST PUSH1 0x40 MLOAD DUP1 SWAP2 SUB SWAP1 RETURN JUMPDEST PUSH2 0xA5 PUSH2 0x169 JUMP JUMPDEST PUSH1 0x40 MLOAD PUSH2 0xB2 SWAP2 SWAP1 PUSH2 0x3D6 JUMP JUMPDEST PUSH1 0x40 MLOAD DUP1 SWAP2 SUB SWAP1 RETURN JUMPDEST PUSH2 0xD5 PUSH1 0x4 DUP1 CALLDATASIZE SUB DUP2 ADD SWAP1 PUSH2 0xD0 SWAP2 SWAP1 PUSH2 0x41D JUMP JUMPDEST PUSH2 0x16F JUMP JUMPDEST PUSH1 0x40 MLOAD PUSH2 0xE2 SWAP2 SWAP1 PUSH2 0x3D6 JUMP JUMPDEST PUSH1 0x40 MLOAD DUP1 SWAP2 SUB SWAP1 RETURN JUMPDEST PUSH2 0xF3 PUSH2 0x18F JUMP JUMPDEST PUSH1 0x40 MLOAD PUSH2 0x100 SWAP2 SWAP1 PUSH2 0x4D2 JUMP JUMPDEST PUSH1 0x40 MLOAD DUP1 SWAP2 SUB SWAP1 RETURN JUMPDEST PUSH2 0x111 PUSH2 0x21B JUMP JUMPDEST PUSH1 0x40 MLOAD PUSH2 0x11E SWAP2 SWAP1 PUSH2 0x544 JUMP JUMPDEST PUSH1 0x40 MLOAD DUP1 SWAP2 SUB SWAP1 RETURN JUMPDEST PUSH2 0x12F PUSH2 0x2A6 JUMP JUMPDEST PUSH1 0x40 MLOAD PUSH2 0x13C SWAP2 SWAP1 PUSH2 0x4D2 JUMP JUMPDEST PUSH1 0x40 MLOAD DUP1 SWAP2 SUB SWAP1 RETURN JUMPDEST PUSH2 0x14D PUSH2 0x332 JUMP JUMPDEST PUSH1 0x40 MLOAD PUSH2 0x15A SWAP2 SWAP1 PUSH2 0x544 JUMP JUMPDEST PUSH1 0x40 MLOAD DUP1 SWAP2 SUB SWAP1 RETURN JUMPDEST PUSH1 0x3 SLOAD DUP2 JUMP JUMPDEST PUSH1 0x1 SLOAD DUP2 JUMP JUMPDEST PUSH1 0x6 DUP2 DUP2 SLOAD DUP2 LT PUSH2 0x17E JUMPI PUSH0 DUP1 REVERT JUMPDEST SWAP1 PUSH0 MSTORE PUSH1 0x20 PUSH0 KECCAK256 ADD PUSH0 SWAP2 POP SWAP1 POP SLOAD DUP2 JUMP JUMPDEST PUSH1 0x5 DUP1 SLOAD PUSH2 0x19C SWAP1 PUSH2 0x591 JUMP JUMPDEST DUP1 PUSH1 0x1F ADD PUSH1 0x20 DUP1 SWAP2 DIV MUL PUSH1 0x20 ADD PUSH1 0x40 MLOAD SWAP1 DUP2 ADD PUSH1 0x40 MSTORE DUP1 SWAP3 SWAP2 SWAP1 DUP2 DUP2 MSTORE PUSH1 0x20 ADD DUP3 DUP1 SLOAD PUSH2 0x1C8 SWAP1 PUSH2 0x591 JUMP JUMPDEST DUP1 ISZERO PUSH2 0x213 JUMPI DUP1 PUSH1 0x1F LT PUSH2 0x1EA JUMPI PUSH2 0x100 DUP1 DUP4 SLOAD DIV MUL DUP4 MSTORE SWAP2 PUSH1 0x20 ADD SWAP2 PUSH2 0x213 JUMP JUMPDEST DUP3 ADD SWAP2 SWAP1 PUSH0 MSTORE PUSH1 0x20 PUSH0 KECCAK256 SWAP1 JUMPDEST DUP2 SLOAD DUP2 MSTORE SWAP1 PUSH1 0x1 ADD SWAP1 PUSH1 0x20 ADD DUP1 DUP4 GT PUSH2 0x1F6 JUMPI DUP3 SWAP1 SUB PUSH1 0x1F AND DUP3 ADD SWAP2 JUMPDEST POP POP POP POP POP DUP2 JUMP JUMPDEST PUSH0 DUP1 SLOAD PUSH2 0x227 SWAP1 PUSH2 0x591 JUMP JUMPDEST DUP1 PUSH1 0x1F ADD PUSH1 0x20 DUP1 SWAP2 DIV MUL PUSH1 0x20 ADD PUSH1 0x40 MLOAD SWAP1 DUP2 ADD PUSH1 0x40 MSTORE DUP1 SWAP3 SWAP2 SWAP1 DUP2 DUP2 MSTORE PUSH1 0x20 ADD DUP3 DUP1 SLOAD PUSH2 0x253 SWAP1 PUSH2 0x591 JUMP JUMPDEST DUP1 ISZERO PUSH2 0x29E JUMPI DUP1 PUSH1 0x1F LT PUSH2 0x275 JUMPI PUSH2 0x100 DUP1 DUP4 SLOAD DIV MUL DUP4 MSTORE SWAP2 PUSH1 0x20 ADD SWAP2 PUSH2 0x29E JUMP JUMPDEST DUP3 ADD SWAP2 SWAP1 PUSH0 MSTORE PUSH1 0x20 PUSH0 KECCAK256 SWAP1 JUMPDEST DUP2 SLOAD DUP2 MSTORE SWAP1 PUSH1 0x1 ADD SWAP1 PUSH1 0x20 ADD DUP1 DUP4 GT PUSH2 0x281 JUMPI DUP3 SWAP1 SUB PUSH1 0x1F AND DUP3 ADD SWAP2 JUMPDEST POP POP POP POP POP DUP2 JUMP JUMPDEST PUSH1 0x4 DUP1 SLOAD PUSH2 0x2B3 SWAP1 PUSH2 0x591 JUMP JUMPDEST DUP1 PUSH1 0x1F ADD PUSH1 0x20 DUP1 SWAP2 DIV MUL PUSH1 0x20 ADD PUSH1 0x40 MLOAD SWAP1 DUP2 ADD PUSH1 0x40 MSTORE DUP1 SWAP3 SWAP2 SWAP1 DUP2 DUP2 MSTORE PUSH1 0x20 ADD DUP3 DUP1 SLOAD PUSH2 0x2DF SWAP1 PUSH2 0x591 JUMP JUMPDEST DUP1 ISZERO PUSH2 0x32A JUMPI DUP1 PUSH1 0x1F LT PUSH2 0x301 JUMPI PUSH2 0x100 DUP1 DUP4 SLOAD DIV MUL DUP4 MSTORE SWAP2 PUSH1 0x20 ADD SWAP2 PUSH2 0x32A JUMP JUMPDEST DUP3 ADD SWAP2 SWAP1 PUSH0 MSTORE PUSH1 0x20 PUSH0 KECCAK256 SWAP1 JUMPDEST DUP2 SLOAD DUP2 MSTORE SWAP1 PUSH1 0x1 ADD SWAP1 PUSH1 0x20 ADD DUP1 DUP4 GT PUSH2 0x30D JUMPI DUP3 SWAP1 SUB PUSH1 0x1F AND DUP3 ADD SWAP2 JUMPDEST POP POP POP POP POP DUP2 JUMP JUMPDEST PUSH1 0x2 DUP1 SLOAD PUSH2 0x33F SWAP1 PUSH2 0x591 JUMP JUMPDEST DUP1 PUSH1 0x1F ADD PUSH1 0x20 DUP1 SWAP2 DIV MUL PUSH1 0x20 ADD PUSH1 0x40 MLOAD SWAP1 DUP2 ADD PUSH1 0x40 MSTORE DUP1 SWAP3 SWAP2 SWAP1 DUP2 DUP2 MSTORE PUSH1 0x20 ADD DUP3 DUP1 SLOAD PUSH2 0x36B SWAP1 PUSH2 0x591 JUMP JUMPDEST DUP1 ISZERO PUSH2 0x3B6 JUMPI DUP1 PUSH1 0x1F LT PUSH2 0x38D JUMPI PUSH2 0x100 DUP1 DUP4 SLOAD DIV MUL DUP4 MSTORE SWAP2 PUSH1 0x20 ADD SWAP2 PUSH2 0x3B6 JUMP JUMPDEST DUP3 ADD SWAP2 SWAP1 PUSH0 MSTORE PUSH1 0x20 PUSH0 KECCAK256 SWAP1 JUMPDEST DUP2 SLOAD DUP2 MSTORE SWAP1 PUSH1 0x1 ADD SWAP1 PUSH1 0x20 ADD DUP1 DUP4 GT PUSH2 0x399 JUMPI DUP3 SWAP1 SUB PUSH1 0x1F AND DUP3 ADD SWAP2 JUMPDEST POP POP POP POP POP DUP2 JUMP JUMPDEST PUSH0 DUP2 SWAP1 POP SWAP2 SWAP1 POP JUMP JUMPDEST PUSH2 0x3D0 DUP2 PUSH2 0x3BE JUMP JUMPDEST DUP3 MSTORE POP POP JUMP JUMPDEST PUSH0 PUSH1 0x20 DUP3 ADD SWAP1 POP PUSH2 0x3E9 PUSH0 DUP4 ADD DUP5 PUSH2 0x3C7 JUMP JUMPDEST SWAP3 SWAP2 POP POP JUMP JUMPDEST PUSH0 DUP1 REVERT JUMPDEST PUSH2 0x3FC DUP2 PUSH2 0x3BE JUMP JUMPDEST DUP2 EQ PUSH2 0x406 JUMPI PUSH0 DUP1 REVERT JUMPDEST POP JUMP JUMPDEST PUSH0 DUP2 CALLDATALOAD SWAP1 POP PUSH2 0x417 DUP2 PUSH2 0x3F3 JUMP JUMPDEST SWAP3 SWAP2 POP POP JUMP JUMPDEST PUSH0 PUSH1 0x20 DUP3 DUP5 SUB SLT ISZERO PUSH2 0x432 JUMPI PUSH2 0x431 PUSH2 0x3EF JUMP JUMPDEST JUMPDEST PUSH0 PUSH2 0x43F DUP5 DUP3 DUP6 ADD PUSH2 0x409 JUMP JUMPDEST SWAP2 POP POP SWAP3 SWAP2 POP POP JUMP JUMPDEST PUSH0 DUP2 MLOAD SWAP1 POP SWAP2 SWAP1 POP JUMP JUMPDEST PUSH0 DUP3 DUP3 MSTORE PUSH1 0x20 DUP3 ADD SWAP1 POP SWAP3 SWAP2 POP POP JUMP JUMPDEST PUSH0 JUMPDEST DUP4 DUP2 LT ISZERO PUSH2 0x47F JUMPI DUP1 DUP3 ADD MLOAD DUP2 DUP5 ADD MSTORE PUSH1 0x20 DUP2 ADD SWAP1 POP PUSH2 0x464 JUMP JUMPDEST PUSH0 DUP5 DUP5 ADD MSTORE POP POP POP POP JUMP JUMPDEST PUSH0 PUSH1 0x1F NOT PUSH1 0x1F DUP4 ADD AND SWAP1 POP SWAP2 SWAP1 POP JUMP JUMPDEST PUSH0 PUSH2 0x4A4 DUP3 PUSH2 0x448 JUMP JUMPDEST PUSH2 0x4AE DUP2 DUP6 PUSH2 0x452 JUMP JUMPDEST SWAP4 POP PUSH2 0x4BE DUP2 DUP6 PUSH1 0x20 DUP7 ADD PUSH2 0x462 JUMP JUMPDEST PUSH2 0x4C7 DUP2 PUSH2 0x48A JUMP JUMPDEST DUP5 ADD SWAP2 POP POP SWAP3 SWAP2 POP POP JUMP JUMPDEST PUSH0 PUSH1 0x20 DUP3 ADD SWAP1 POP DUP2 DUP2 SUB PUSH0 DUP4 ADD MSTORE PUSH2 0x4EA DUP2 DUP5 PUSH2 0x49A JUMP JUMPDEST SWAP1 POP SWAP3 SWAP2 POP POP JUMP JUMPDEST PUSH0 DUP2 MLOAD SWAP1 POP SWAP2 SWAP1 POP JUMP JUMPDEST PUSH0 DUP3 DUP3 MSTORE PUSH1 0x20 DUP3 ADD SWAP1 POP SWAP3 SWAP2 POP POP JUMP JUMPDEST PUSH0 PUSH2 0x516 DUP3 PUSH2 0x4F2 JUMP JUMPDEST PUSH2 0x520 DUP2 DUP6 PUSH2 0x4FC JUMP JUMPDEST SWAP4 POP PUSH2 0x530 DUP2 DUP6 PUSH1 0x20 DUP7 ADD PUSH2 0x462 JUMP JUMPDEST PUSH2 0x539 DUP2 PUSH2 0x48A JUMP JUMPDEST DUP5 ADD SWAP2 POP POP SWAP3 SWAP2 POP POP JUMP JUMPDEST PUSH0 PUSH1 0x20 DUP3 ADD SWAP1 POP DUP2 DUP2 SUB PUSH0 DUP4 ADD MSTORE PUSH2 0x55C DUP2 DUP5 PUSH2 0x50C JUMP JUMPDEST SWAP1 POP SWAP3 SWAP2 POP POP JUMP JUMPDEST PUSH32 0x4E487B7100000000000000000000000000000000000000000000000000000000 PUSH0 MSTORE PUSH1 0x22 PUSH1 0x4 MSTORE PUSH1 0x24 PUSH0 REVERT JUMPDEST PUSH0 PUSH1 0x2 DUP3 DIV SWAP1 POP PUSH1 0x1 DUP3 AND DUP1 PUSH2 0x5A8 JUMPI PUSH1 0x7F DUP3 AND SWAP2 POP JUMPDEST PUSH1 0x20 DUP3 LT DUP2 SUB PUSH2 0x5BB JUMPI PUSH2 0x5BA PUSH2 0x564 JUMP JUMPDEST JUMPDEST POP SWAP2 SWAP1 POP JUMP INVALID LOG2 PUSH5 0x6970667358 0x22 SLT KECCAK256 0xD2 CODECOPY AND NOT CODECOPY 0xD6 SWAP12 0xB3 RETURNDATASIZE ORIGIN TLOAD 0xC0 SHL MULMOD 0xCB 0xAC 0xB4 0xB5 0xB8 0x2D DUP8 0xF8 0xAA 0x1F SHL 0xC8 MUL DUP7 SIGNEXTEND DELEGATECALL 0xC5 0x23 PUSH5 0x736F6C6343 STOP ADDMOD XOR STOP CALLER "
				},
				"gasEstimates": {
					"creation": {
						"codeDepositCost": "305400",
						"executionCost": "infinite",
						"totalCost": "infinite"
					},
					"external": {
						"_bytex()": "infinite",
						"_bytey()": "infinite",
						"arr(uint256)": "infinite",
						"num1()": "2448",
						"num2()": "2426",
						"str1()": "infinite",
						"str2()": "infinite"
					}
				},
				"methodIdentifiers": {
					"_bytex()": "d295fbb6",
					"_bytey()": "b1dfb56e",
					"arr(uint256)": "71e5ee5f",
					"num1()": "3b9eac4b",
					"num2()": "15d4266c",
					"str1()": "d118d187",
					"str2()": "fcdcfa50"
				}
			},
			"storageLayout": {
				"storage": [
					{
						"astId": 3,
						"contract": "stateVariables1.sol:StateVariables",
						"label": "str1",
						"offset": 0,
						"slot": "0",
						"type": "t_string_storage"
					},
					{
						"astId": 5,
						"contract": "stateVariables1.sol:StateVariables",
						"label": "num1",
						"offset": 0,
						"slot": "1",
						"type": "t_uint256"
					},
					{
						"astId": 8,
						"contract": "stateVariables1.sol:StateVariables",
						"label": "str2",
						"offset": 0,
						"slot": "2",
						"type": "t_string_storage"
					},
					{
						"astId": 11,
						"contract": "stateVariables1.sol:StateVariables",
						"label": "num2",
						"offset": 0,
						"slot": "3",
						"type": "t_uint256"
					},
					{
						"astId": 14,
						"contract": "stateVariables1.sol:StateVariables",
						"label": "_bytex",
						"offset": 0,
						"slot": "4",
						"type": "t_bytes_storage"
					},
					{
						"astId": 16,
						"contract": "stateVariables1.sol:StateVariables",
						"label": "_bytey",
						"offset": 0,
						"slot": "5",
						"type": "t_bytes_storage"
					},
					{
						"astId": 19,
						"contract": "stateVariables1.sol:StateVariables",
						"label": "arr",
						"offset": 0,
						"slot": "6",
						"type": "t_array(t_uint256)dyn_storage"
					}
				],
				"types": {
					"t_array(t_uint256)dyn_storage": {
						"base": "t_uint256",
						"encoding": "dynamic_array",
						"label": "uint256[]",
						"numberOfBytes": "32"
					},
					"t_bytes_storage": {
						"encoding": "bytes",
						"label": "bytes",
						"numberOfBytes": "32"
					},
					"t_string_storage": {
						"encoding": "bytes",
						"label": "string",
						"numberOfBytes": "32"
					},
					"t_uint256": {
						"encoding": "inplace",
						"label": "uint256",
						"numberOfBytes": "32"
					}
				}
			},
			"userdoc": {
				"kind": "user",
				"methods": {},
				"version": 1
			}
		}
	}
}