{
	"localVariables.sol": {
		"LocalVariable": {
			"abi": [
				{
					"inputs": [],
					"name": "local",
					"outputs": [
						{
							"internalType": "address",
							"name": "",
							"type": "address"
						},
						{
							"internalType": "uint256",
							"name": "",
							"type": "uint256"
						},
						{
							"internalType": "uint256",
							"name": "",
							"type": "uint256"
						}
					],
					"stateMutability": "nonpayable",
					"type": "function"
				},
				{
					"inputs": [],
					"name": "stateVarEx",
					"outputs": [
						{
							"internalType": "uint256",
							"name": "",
							"type": "uint256"
						}
					],
					"stateMutability": "view",
					"type": "function"
				}
			],
			"devdoc": {
				"kind": "dev",
				"methods": {},
				"version": 1
			},
			"evm": {
				"assembly": "    /* \"localVariables.sol\":69:382  contract LocalVariable {... */\n  mstore(0x40, 0x80)\n  callvalue\n  dup1\n  iszero\n  tag_1\n  jumpi\n  0x00\n  dup1\n  revert\ntag_1:\n  pop\n  dataSize(sub_0)\n  dup1\n  dataOffset(sub_0)\n  0x00\n  codecopy\n  0x00\n  return\nstop\n\nsub_0: assembly {\n        /* \"localVariables.sol\":69:382  contract LocalVariable {... */\n      mstore(0x40, 0x80)\n      callvalue\n      dup1\n      iszero\n      tag_1\n      jumpi\n      0x00\n      dup1\n      revert\n    tag_1:\n      pop\n      jumpi(tag_2, lt(calldatasize, 0x04))\n      shr(0xe0, calldataload(0x00))\n      dup1\n      0x0f166ad4\n      eq\n      tag_3\n      jumpi\n      dup1\n      0xe4c2f270\n      eq\n      tag_4\n      jumpi\n    tag_2:\n      0x00\n      dup1\n      revert\n        /* \"localVariables.sol\":130:379  function local () public  returns(address, uint, uint) {... */\n    tag_3:\n      tag_5\n      tag_6\n      jump\t// in\n    tag_5:\n      mload(0x40)\n      tag_7\n      swap4\n      swap3\n      swap2\n      swap1\n      tag_8\n      jump\t// in\n    tag_7:\n      mload(0x40)\n      dup1\n      swap2\n      sub\n      swap1\n      return\n        /* \"localVariables.sol\":99:121  uint public stateVarEx */\n    tag_4:\n      tag_9\n      tag_10\n      jump\t// in\n    tag_9:\n      mload(0x40)\n      tag_11\n      swap2\n      swap1\n      tag_12\n      jump\t// in\n    tag_11:\n      mload(0x40)\n      dup1\n      swap2\n      sub\n      swap1\n      return\n        /* \"localVariables.sol\":130:379  function local () public  returns(address, uint, uint) {... */\n    tag_6:\n        /* \"localVariables.sol\":164:171  address */\n      0x00\n        /* \"localVariables.sol\":173:177  uint */\n      dup1\n        /* \"localVariables.sol\":179:183  uint */\n      0x00\n        /* \"localVariables.sol\":196:212  uint  localVarEx */\n      dup1\n        /* \"localVariables.sol\":214:218  3400 */\n      0x0d48\n        /* \"localVariables.sol\":196:218  uint  localVarEx= 3400 */\n      swap1\n      pop\n        /* \"localVariables.sol\":242:252  localVarEx */\n      dup1\n        /* \"localVariables.sol\":229:239  stateVarEx */\n      0x00\n        /* \"localVariables.sol\":229:252  stateVarEx = localVarEx */\n      dup2\n      swap1\n      sstore\n      pop\n        /* \"localVariables.sol\":275:277  40 */\n      0x28\n        /* \"localVariables.sol\":263:273  stateVarEx */\n      0x00\n      dup1\n        /* \"localVariables.sol\":263:277  stateVarEx+=40 */\n      dup3\n      dup3\n      sload\n      tag_14\n      swap2\n      swap1\n      tag_15\n      jump\t// in\n    tag_14:\n      swap3\n      pop\n      pop\n      dup2\n      swap1\n      sstore\n      pop\n        /* \"localVariables.sol\":288:305  address myAddress */\n      0x00\n        /* \"localVariables.sol\":316:317  1 */\n      0x01\n        /* \"localVariables.sol\":288:318  address myAddress = address(1) */\n      swap1\n      pop\n        /* \"localVariables.sol\":337:346  myAddress */\n      dup1\n        /* \"localVariables.sol\":348:358  stateVarEx */\n      sload(0x00)\n        /* \"localVariables.sol\":360:370  localVarEx */\n      dup4\n        /* \"localVariables.sol\":329:371  return (myAddress, stateVarEx, localVarEx) */\n      swap5\n      pop\n      swap5\n      pop\n      swap5\n      pop\n      pop\n      pop\n        /* \"localVariables.sol\":130:379  function local () public  returns(address, uint, uint) {... */\n      swap1\n      swap2\n      swap3\n      jump\t// out\n        /* \"localVariables.sol\":99:121  uint public stateVarEx */\n    tag_10:\n      sload(0x00)\n      dup2\n      jump\t// out\n        /* \"#utility.yul\":7:133   */\n    tag_16:\n        /* \"#utility.yul\":44:51   */\n      0x00\n        /* \"#utility.yul\":84:126   */\n      0xffffffffffffffffffffffffffffffffffffffff\n        /* \"#utility.yul\":77:82   */\n      dup3\n        /* \"#utility.yul\":73:127   */\n      and\n        /* \"#utility.yul\":62:127   */\n      swap1\n      pop\n        /* \"#utility.yul\":7:133   */\n      swap2\n      swap1\n      pop\n      jump\t// out\n        /* \"#utility.yul\":139:235   */\n    tag_17:\n        /* \"#utility.yul\":176:183   */\n      0x00\n        /* \"#utility.yul\":205:229   */\n      tag_25\n        /* \"#utility.yul\":223:228   */\n      dup3\n        /* \"#utility.yul\":205:229   */\n      tag_16\n      jump\t// in\n    tag_25:\n        /* \"#utility.yul\":194:229   */\n      swap1\n      pop\n        /* \"#utility.yul\":139:235   */\n      swap2\n      swap1\n      pop\n      jump\t// out\n        /* \"#utility.yul\":241:359   */\n    tag_18:\n        /* \"#utility.yul\":328:352   */\n      tag_27\n        /* \"#utility.yul\":346:351   */\n      dup2\n        /* \"#utility.yul\":328:352   */\n      tag_17\n      jump\t// in\n    tag_27:\n        /* \"#utility.yul\":323:326   */\n      dup3\n        /* \"#utility.yul\":316:353   */\n      mstore\n        /* \"#utility.yul\":241:359   */\n      pop\n      pop\n      jump\t// out\n        /* \"#utility.yul\":365:442   */\n    tag_19:\n        /* \"#utility.yul\":402:409   */\n      0x00\n        /* \"#utility.yul\":431:436   */\n      dup2\n        /* \"#utility.yul\":420:436   */\n      swap1\n      pop\n        /* \"#utility.yul\":365:442   */\n      swap2\n      swap1\n      pop\n      jump\t// out\n        /* \"#utility.yul\":448:566   */\n    tag_20:\n        /* \"#utility.yul\":535:559   */\n      tag_30\n        /* \"#utility.yul\":553:558   */\n      dup2\n        /* \"#utility.yul\":535:559   */\n      tag_19\n      jump\t// in\n    tag_30:\n        /* \"#utility.yul\":530:533   */\n      dup3\n        /* \"#utility.yul\":523:560   */\n      mstore\n        /* \"#utility.yul\":448:566   */\n      pop\n      pop\n      jump\t// out\n        /* \"#utility.yul\":572:1014   */\n    tag_8:\n        /* \"#utility.yul\":721:725   */\n      0x00\n        /* \"#utility.yul\":759:761   */\n      0x60\n        /* \"#utility.yul\":748:757   */\n      dup3\n        /* \"#utility.yul\":744:762   */\n      add\n        /* \"#utility.yul\":736:762   */\n      swap1\n      pop\n        /* \"#utility.yul\":772:843   */\n      tag_32\n        /* \"#utility.yul\":840:841   */\n      0x00\n        /* \"#utility.yul\":829:838   */\n      dup4\n        /* \"#utility.yul\":825:842   */\n      add\n        /* \"#utility.yul\":816:822   */\n      dup7\n        /* \"#utility.yul\":772:843   */\n      tag_18\n      jump\t// in\n    tag_32:\n        /* \"#utility.yul\":853:925   */\n      tag_33\n        /* \"#utility.yul\":921:923   */\n      0x20\n        /* \"#utility.yul\":910:919   */\n      dup4\n        /* \"#utility.yul\":906:924   */\n      add\n        /* \"#utility.yul\":897:903   */\n      dup6\n        /* \"#utility.yul\":853:925   */\n      tag_20\n      jump\t// in\n    tag_33:\n        /* \"#utility.yul\":935:1007   */\n      tag_34\n        /* \"#utility.yul\":1003:1005   */\n      0x40\n        /* \"#utility.yul\":992:1001   */\n      dup4\n        /* \"#utility.yul\":988:1006   */\n      add\n        /* \"#utility.yul\":979:985   */\n      dup5\n        /* \"#utility.yul\":935:1007   */\n      tag_20\n      jump\t// in\n    tag_34:\n        /* \"#utility.yul\":572:1014   */\n      swap5\n      swap4\n      pop\n      pop\n      pop\n      pop\n      jump\t// out\n        /* \"#utility.yul\":1020:1242   */\n    tag_12:\n        /* \"#utility.yul\":1113:1117   */\n      0x00\n        /* \"#utility.yul\":1151:1153   */\n      0x20\n        /* \"#utility.yul\":1140:1149   */\n      dup3\n        /* \"#utility.yul\":1136:1154   */\n      add\n        /* \"#utility.yul\":1128:1154   */\n      swap1\n      pop\n        /* \"#utility.yul\":1164:1235   */\n      tag_36\n        /* \"#utility.yul\":1232:1233   */\n      0x00\n        /* \"#utility.yul\":1221:1230   */\n      dup4\n        /* \"#utility.yul\":1217:1234   */\n      add\n        /* \"#utility.yul\":1208:1214   */\n      dup5\n        /* \"#utility.yul\":1164:1235   */\n      tag_20\n      jump\t// in\n    tag_36:\n        /* \"#utility.yul\":1020:1242   */\n      swap3\n      swap2\n      pop\n      pop\n      jump\t// out\n        /* \"#utility.yul\":1248:1428   */\n    tag_21:\n        /* \"#utility.yul\":1296:1373   */\n      0x4e487b7100000000000000000000000000000000000000000000000000000000\n        /* \"#utility.yul\":1293:1294   */\n      0x00\n        /* \"#utility.yul\":1286:1374   */\n      mstore\n        /* \"#utility.yul\":1393:1397   */\n      0x11\n        /* \"#utility.yul\":1390:1391   */\n      0x04\n        /* \"#utility.yul\":1383:1398   */\n      mstore\n        /* \"#utility.yul\":1417:1421   */\n      0x24\n        /* \"#utility.yul\":1414:1415   */\n      0x00\n        /* \"#utility.yul\":1407:1422   */\n      revert\n        /* \"#utility.yul\":1434:1625   */\n    tag_15:\n        /* \"#utility.yul\":1474:1477   */\n      0x00\n        /* \"#utility.yul\":1493:1513   */\n      tag_39\n        /* \"#utility.yul\":1511:1512   */\n      dup3\n        /* \"#utility.yul\":1493:1513   */\n      tag_19\n      jump\t// in\n    tag_39:\n        /* \"#utility.yul\":1488:1513   */\n      swap2\n      pop\n        /* \"#utility.yul\":1527:1547   */\n      tag_40\n        /* \"#utility.yul\":1545:1546   */\n      dup4\n        /* \"#utility.yul\":1527:1547   */\n      tag_19\n      jump\t// in\n    tag_40:\n        /* \"#utility.yul\":1522:1547   */\n      swap3\n      pop\n        /* \"#utility.yul\":1570:1571   */\n      dup3\n        /* \"#utility.yul\":1567:1568   */\n      dup3\n        /* \"#utility.yul\":1563:1572   */\n      add\n        /* \"#utility.yul\":1556:1572   */\n      swap1\n      pop\n        /* \"#utility.yul\":1591:1594   */\n      dup1\n        /* \"#utility.yul\":1588:1589   */\n      dup3\n        /* \"#utility.yul\":1585:1595   */\n      gt\n        /* \"#utility.yul\":1582:1618   */\n      iszero\n      tag_41\n      jumpi\n        /* \"#utility.yul\":1598:1616   */\n      tag_42\n      tag_21\n      jump\t// in\n    tag_42:\n        /* \"#utility.yul\":1582:1618   */\n    tag_41:\n        /* \"#utility.yul\":1434:1625   */\n      swap3\n      swap2\n      pop\n      pop\n      jump\t// out\n\n    auxdata: 0xa2646970667358221220dfffcb18b48f6b517edd6b699727f616fcc9ab576cef034b068093c01ea0084b64736f6c63430008180033\n}\n",
				"bytecode": {
					"linkReferences": {},
					"object": "608060405234801561000f575f80fd5b506101f38061001d5f395ff3fe608060405234801561000f575f80fd5b5060043610610034575f3560e01c80630f166ad414610038578063e4c2f27014610058575b5f80fd5b610040610076565b60405161004f9392919061010f565b60405180910390f35b6100606100b3565b60405161006d9190610144565b60405180910390f35b5f805f80610d489050805f8190555060285f80828254610096919061018a565b925050819055505f60019050805f54839450945094505050909192565b5f5481565b5f73ffffffffffffffffffffffffffffffffffffffff82169050919050565b5f6100e1826100b8565b9050919050565b6100f1816100d7565b82525050565b5f819050919050565b610109816100f7565b82525050565b5f6060820190506101225f8301866100e8565b61012f6020830185610100565b61013c6040830184610100565b949350505050565b5f6020820190506101575f830184610100565b92915050565b7f4e487b71000000000000000000000000000000000000000000000000000000005f52601160045260245ffd5b5f610194826100f7565b915061019f836100f7565b92508282019050808211156101b7576101b661015d565b5b9291505056fea2646970667358221220dfffcb18b48f6b517edd6b699727f616fcc9ab576cef034b068093c01ea0084b64736f6c63430008180033",
					"opcodes": "PUSH1 0x80 PUSH1 0x40 MSTORE CALLVALUE DUP1 ISZERO PUSH2 0xF JUMPI PUSH0 DUP1 REVERT JUMPDEST POP PUSH2 0x1F3 DUP1 PUSH2 0x1D PUSH0 CODECOPY PUSH0 RETURN INVALID PUSH1 0x80 PUSH1 0x40 MSTORE CALLVALUE DUP1 ISZERO PUSH2 0xF JUMPI PUSH0 DUP1 REVERT JUMPDEST POP PUSH1 0x4 CALLDATASIZE LT PUSH2 0x34 JUMPI PUSH0 CALLDATALOAD PUSH1 0xE0 SHR DUP1 PUSH4 0xF166AD4 EQ PUSH2 0x38 JUMPI DUP1 PUSH4 0xE4C2F270 EQ PUSH2 0x58 JUMPI JUMPDEST PUSH0 DUP1 REVERT JUMPDEST PUSH2 0x40 PUSH2 0x76 JUMP JUMPDEST PUSH1 0x40 MLOAD PUSH2 0x4F SWAP4 SWAP3 SWAP2 SWAP1 PUSH2 0x10F JUMP JUMPDEST PUSH1 0x40 MLOAD DUP1 SWAP2 SUB SWAP1 RETURN JUMPDEST PUSH2 0x60 PUSH2 0xB3 JUMP JUMPDEST PUSH1 0x40 MLOAD PUSH2 0x6D SWAP2 SWAP1 PUSH2 0x144 JUMP JUMPDEST PUSH1 0x40 MLOAD DUP1 SWAP2 SUB SWAP1 RETURN JUMPDEST PUSH0 DUP1 PUSH0 DUP1 PUSH2 0xD48 SWAP1 POP DUP1 PUSH0 DUP2 SWAP1 SSTORE POP PUSH1 0x28 PUSH0 DUP1 DUP3 DUP3 SLOAD PUSH2 0x96 SWAP2 SWAP1 PUSH2 0x18A JUMP JUMPDEST SWAP3 POP POP DUP2 SWAP1 SSTORE POP PUSH0 PUSH1 0x1 SWAP1 POP DUP1 PUSH0 SLOAD DUP4 SWAP5 POP SWAP5 POP SWAP5 POP POP POP SWAP1 SWAP2 SWAP3 JUMP JUMPDEST PUSH0 SLOAD DUP2 JUMP JUMPDEST PUSH0 PUSH20 0xFFFFFFFFFFFFFFFFFFFFFFFFFFFFFFFFFFFFFFFF DUP3 AND SWAP1 POP SWAP2 SWAP1 POP JUMP JUMPDEST PUSH0 PUSH2 0xE1 DUP3 PUSH2 0xB8 JUMP JUMPDEST SWAP1 POP SWAP2 SWAP1 POP JUMP JUMPDEST PUSH2 0xF1 DUP2 PUSH2 0xD7 JUMP JUMPDEST DUP3 MSTORE POP POP JUMP JUMPDEST PUSH0 DUP2 SWAP1 POP SWAP2 SWAP1 POP JUMP JUMPDEST PUSH2 0x109 DUP2 PUSH2 0xF7 JUMP JUMPDEST DUP3 MSTORE POP POP JUMP JUMPDEST PUSH0 PUSH1 0x60 DUP3 ADD SWAP1 POP PUSH2 0x122 PUSH0 DUP4 ADD DUP7 PUSH2 0xE8 JUMP JUMPDEST PUSH2 0x12F PUSH1 0x20 DUP4 ADD DUP6 PUSH2 0x100 JUMP JUMPDEST PUSH2 0x13C PUSH1 0x40 DUP4 ADD DUP5 PUSH2 0x100 JUMP JUMPDEST SWAP5 SWAP4 POP POP POP POP JUMP JUMPDEST PUSH0 PUSH1 0x20 DUP3 ADD SWAP1 POP PUSH2 0x157 PUSH0 DUP4 ADD DUP5 PUSH2 0x100 JUMP JUMPDEST SWAP3 SWAP2 POP POP JUMP JUMPDEST PUSH32 0x4E487B7100000000000000000000000000000000000000000000000000000000 PUSH0 MSTORE PUSH1 0x11 PUSH1 0x4 MSTORE PUSH1 0x24 PUSH0 REVERT JUMPDEST PUSH0 PUSH2 0x194 DUP3 PUSH2 0xF7 JUMP JUMPDEST SWAP2 POP PUSH2 0x19F DUP4 PUSH2 0xF7 JUMP JUMPDEST SWAP3 POP DUP3 DUP3 ADD SWAP1 POP DUP1 DUP3 GT ISZERO PUSH2 0x1B7 JUMPI PUSH2 0x1B6 PUSH2 0x15D JUMP JUMPDEST JUMPDEST SWAP3 SWAP2 POP POP JUMP INVALID LOG2 PUSH5 0x6970667358 0x22 SLT KECCAK256 0xDF SELFDESTRUCT 0xCB XOR 0xB4 DUP16 PUSH12 0x517EDD6B699727F616FCC9AB JUMPI PUSH13 0xEF034B068093C01EA0084B6473 PUSH16 0x6C634300081800330000000000000000 "
				},
				"gasEstimates": {
					"creation": {
						"codeDepositCost": "99800",
						"executionCost": "145",
						"totalCost": "99945"
					},
					"external": {
						"local()": "infinite",
						"stateVarEx()": "2424"
					}
				},
				"methodIdentifiers": {
					"local()": "0f166ad4",
					"stateVarEx()": "e4c2f270"
				}
			},
			"storageLayout": {
				"storage": [
					{
						"astId": 3,
						"contract": "localVariables.sol:LocalVariable",
						"label": "stateVarEx",
						"offset": 0,
						"slot": "0",
						"type": "t_uint256"
					}
				],
				"types": {
					"t_uint256": {
						"encoding": "inplace",
						"label": "uint256",
						"numberOfBytes": "32"
					}
				}
			},
			"userdoc": {
				"kind": "user",
				"methods": {},
				"version": 1
			}
		}
	}
}