{
	"data": {
		"bytecode": {
			"linkReferences": {},
			"object": "60806040526040518060600160405280600160ff168152602001600260ff168152602001600360ff16815250600190600361003b92919061004d565b50348015610047575f80fd5b506100b8565b828054828255905f5260205f2090810192821561008c579160200282015b8281111561008b578251829060ff1690559160200191906001019061006b565b5b509050610099919061009d565b5090565b5b808211156100b4575f815f90555060010161009e565b5090565b61050f806100c55f395ff3fe608060405234801561000f575f80fd5b5060043610610091575f3560e01c80639a6fcbdd116100645780639a6fcbdd1461012f5780639fc37abf14610139578063cb05eebf14610155578063d504ea1d14610185578063edf0099b146101a357610091565b806305917f07146100955780634af5a4aa146100b357806371e5ee5f146100e357806378321efb14610113575b5f80fd5b61009d6101d3565b6040516100aa9190610336565b60405180910390f35b6100cd60048036038101906100c8919061037d565b6101de565b6040516100da9190610336565b60405180910390f35b6100fd60048036038101906100f8919061037d565b610202565b60405161010a9190610336565b60405180910390f35b61012d6004803603810190610128919061037d565b610221565b005b610137610249565b005b610153600480360381019061014e919061037d565b61026f565b005b61016f600480360381019061016a919061037d565b610290565b60405161017c9190610336565b60405180910390f35b61018d6102a9565b60405161019a919061045f565b60405180910390f35b6101bd60048036038101906101b8919061037d565b6102fe565b6040516101ca9190610336565b60405180910390f35b5f8080549050905090565b5f8082815481106101f2576101f161047f565b5b905f5260205f2001549050919050565b5f8181548110610210575f80fd5b905f5260205f20015f915090505481565b5f81908060018154018082558091505060019003905f5260205f20015f909190919091505550565b5f80548061025a576102596104ac565b5b600190038181905f5260205f20015f90559055565b5f81815481106102825761028161047f565b5b905f5260205f20015f905550565b600281600a811061029f575f80fd5b015f915090505481565b60605f8054806020026020016040519081016040528092919081815260200182805480156102f457602002820191905f5260205f20905b8154815260200190600101908083116102e0575b5050505050905090565b6001818154811061030d575f80fd5b905f5260205f20015f915090505481565b5f819050919050565b6103308161031e565b82525050565b5f6020820190506103495f830184610327565b92915050565b5f80fd5b61035c8161031e565b8114610366575f80fd5b50565b5f8135905061037781610353565b92915050565b5f602082840312156103925761039161034f565b5b5f61039f84828501610369565b91505092915050565b5f81519050919050565b5f82825260208201905092915050565b5f819050602082019050919050565b6103da8161031e565b82525050565b5f6103eb83836103d1565b60208301905092915050565b5f602082019050919050565b5f61040d826103a8565b61041781856103b2565b9350610422836103c2565b805f5b8381101561045257815161043988826103e0565b9750610444836103f7565b925050600181019050610425565b5085935050505092915050565b5f6020820190508181035f8301526104778184610403565b905092915050565b7f4e487b71000000000000000000000000000000000000000000000000000000005f52603260045260245ffd5b7f4e487b71000000000000000000000000000000000000000000000000000000005f52603160045260245ffdfea2646970667358221220ce930a711798bb041eff923dc74eee6e5a71bc309e3ef646c76443da54dac17464736f6c63430008180033",
			"opcodes": "PUSH1 0x80 PUSH1 0x40 MSTORE PUSH1 0x40 MLOAD DUP1 PUSH1 0x60 ADD PUSH1 0x40 MSTORE DUP1 PUSH1 0x1 PUSH1 0xFF AND DUP2 MSTORE PUSH1 0x20 ADD PUSH1 0x2 PUSH1 0xFF AND DUP2 MSTORE PUSH1 0x20 ADD PUSH1 0x3 PUSH1 0xFF AND DUP2 MSTORE POP PUSH1 0x1 SWAP1 PUSH1 0x3 PUSH2 0x3B SWAP3 SWAP2 SWAP1 PUSH2 0x4D JUMP JUMPDEST POP CALLVALUE DUP1 ISZERO PUSH2 0x47 JUMPI PUSH0 DUP1 REVERT JUMPDEST POP PUSH2 0xB8 JUMP JUMPDEST DUP3 DUP1 SLOAD DUP3 DUP3 SSTORE SWAP1 PUSH0 MSTORE PUSH1 0x20 PUSH0 KECCAK256 SWAP1 DUP2 ADD SWAP3 DUP3 ISZERO PUSH2 0x8C JUMPI SWAP2 PUSH1 0x20 MUL DUP3 ADD JUMPDEST DUP3 DUP2 GT ISZERO PUSH2 0x8B JUMPI DUP3 MLOAD DUP3 SWAP1 PUSH1 0xFF AND SWAP1 SSTORE SWAP2 PUSH1 0x20 ADD SWAP2 SWAP1 PUSH1 0x1 ADD SWAP1 PUSH2 0x6B JUMP JUMPDEST JUMPDEST POP SWAP1 POP PUSH2 0x99 SWAP2 SWAP1 PUSH2 0x9D JUMP JUMPDEST POP SWAP1 JUMP JUMPDEST JUMPDEST DUP1 DUP3 GT ISZERO PUSH2 0xB4 JUMPI PUSH0 DUP2 PUSH0 SWAP1 SSTORE POP PUSH1 0x1 ADD PUSH2 0x9E JUMP JUMPDEST POP SWAP1 JUMP JUMPDEST PUSH2 0x50F DUP1 PUSH2 0xC5 PUSH0 CODECOPY PUSH0 RETURN INVALID PUSH1 0x80 PUSH1 0x40 MSTORE CALLVALUE DUP1 ISZERO PUSH2 0xF JUMPI PUSH0 DUP1 REVERT JUMPDEST POP PUSH1 0x4 CALLDATASIZE LT PUSH2 0x91 JUMPI PUSH0 CALLDATALOAD PUSH1 0xE0 SHR DUP1 PUSH4 0x9A6FCBDD GT PUSH2 0x64 JUMPI DUP1 PUSH4 0x9A6FCBDD EQ PUSH2 0x12F JUMPI DUP1 PUSH4 0x9FC37ABF EQ PUSH2 0x139 JUMPI DUP1 PUSH4 0xCB05EEBF EQ PUSH2 0x155 JUMPI DUP1 PUSH4 0xD504EA1D EQ PUSH2 0x185 JUMPI DUP1 PUSH4 0xEDF0099B EQ PUSH2 0x1A3 JUMPI PUSH2 0x91 JUMP JUMPDEST DUP1 PUSH4 0x5917F07 EQ PUSH2 0x95 JUMPI DUP1 PUSH4 0x4AF5A4AA EQ PUSH2 0xB3 JUMPI DUP1 PUSH4 0x71E5EE5F EQ PUSH2 0xE3 JUMPI DUP1 PUSH4 0x78321EFB EQ PUSH2 0x113 JUMPI JUMPDEST PUSH0 DUP1 REVERT JUMPDEST PUSH2 0x9D PUSH2 0x1D3 JUMP JUMPDEST PUSH1 0x40 MLOAD PUSH2 0xAA SWAP2 SWAP1 PUSH2 0x336 JUMP JUMPDEST PUSH1 0x40 MLOAD DUP1 SWAP2 SUB SWAP1 RETURN JUMPDEST PUSH2 0xCD PUSH1 0x4 DUP1 CALLDATASIZE SUB DUP2 ADD SWAP1 PUSH2 0xC8 SWAP2 SWAP1 PUSH2 0x37D JUMP JUMPDEST PUSH2 0x1DE JUMP JUMPDEST PUSH1 0x40 MLOAD PUSH2 0xDA SWAP2 SWAP1 PUSH2 0x336 JUMP JUMPDEST PUSH1 0x40 MLOAD DUP1 SWAP2 SUB SWAP1 RETURN JUMPDEST PUSH2 0xFD PUSH1 0x4 DUP1 CALLDATASIZE SUB DUP2 ADD SWAP1 PUSH2 0xF8 SWAP2 SWAP1 PUSH2 0x37D JUMP JUMPDEST PUSH2 0x202 JUMP JUMPDEST PUSH1 0x40 MLOAD PUSH2 0x10A SWAP2 SWAP1 PUSH2 0x336 JUMP JUMPDEST PUSH1 0x40 MLOAD DUP1 SWAP2 SUB SWAP1 RETURN JUMPDEST PUSH2 0x12D PUSH1 0x4 DUP1 CALLDATASIZE SUB DUP2 ADD SWAP1 PUSH2 0x128 SWAP2 SWAP1 PUSH2 0x37D JUMP JUMPDEST PUSH2 0x221 JUMP JUMPDEST STOP JUMPDEST PUSH2 0x137 PUSH2 0x249 JUMP JUMPDEST STOP JUMPDEST PUSH2 0x153 PUSH1 0x4 DUP1 CALLDATASIZE SUB DUP2 ADD SWAP1 PUSH2 0x14E SWAP2 SWAP1 PUSH2 0x37D JUMP JUMPDEST PUSH2 0x26F JUMP JUMPDEST STOP JUMPDEST PUSH2 0x16F PUSH1 0x4 DUP1 CALLDATASIZE SUB DUP2 ADD SWAP1 PUSH2 0x16A SWAP2 SWAP1 PUSH2 0x37D JUMP JUMPDEST PUSH2 0x290 JUMP JUMPDEST PUSH1 0x40 MLOAD PUSH2 0x17C SWAP2 SWAP1 PUSH2 0x336 JUMP JUMPDEST PUSH1 0x40 MLOAD DUP1 SWAP2 SUB SWAP1 RETURN JUMPDEST PUSH2 0x18D PUSH2 0x2A9 JUMP JUMPDEST PUSH1 0x40 MLOAD PUSH2 0x19A SWAP2 SWAP1 PUSH2 0x45F JUMP JUMPDEST PUSH1 0x40 MLOAD DUP1 SWAP2 SUB SWAP1 RETURN JUMPDEST PUSH2 0x1BD PUSH1 0x4 DUP1 CALLDATASIZE SUB DUP2 ADD SWAP1 PUSH2 0x1B8 SWAP2 SWAP1 PUSH2 0x37D JUMP JUMPDEST PUSH2 0x2FE JUMP JUMPDEST PUSH1 0x40 MLOAD PUSH2 0x1CA SWAP2 SWAP1 PUSH2 0x336 JUMP JUMPDEST PUSH1 0x40 MLOAD DUP1 SWAP2 SUB SWAP1 RETURN JUMPDEST PUSH0 DUP1 DUP1 SLOAD SWAP1 POP SWAP1 POP SWAP1 JUMP JUMPDEST PUSH0 DUP1 DUP3 DUP2 SLOAD DUP2 LT PUSH2 0x1F2 JUMPI PUSH2 0x1F1 PUSH2 0x47F JUMP JUMPDEST JUMPDEST SWAP1 PUSH0 MSTORE PUSH1 0x20 PUSH0 KECCAK256 ADD SLOAD SWAP1 POP SWAP2 SWAP1 POP JUMP JUMPDEST PUSH0 DUP2 DUP2 SLOAD DUP2 LT PUSH2 0x210 JUMPI PUSH0 DUP1 REVERT JUMPDEST SWAP1 PUSH0 MSTORE PUSH1 0x20 PUSH0 KECCAK256 ADD PUSH0 SWAP2 POP SWAP1 POP SLOAD DUP2 JUMP JUMPDEST PUSH0 DUP2 SWAP1 DUP1 PUSH1 0x1 DUP2 SLOAD ADD DUP1 DUP3 SSTORE DUP1 SWAP2 POP POP PUSH1 0x1 SWAP1 SUB SWAP1 PUSH0 MSTORE PUSH1 0x20 PUSH0 KECCAK256 ADD PUSH0 SWAP1 SWAP2 SWAP1 SWAP2 SWAP1 SWAP2 POP SSTORE POP JUMP JUMPDEST PUSH0 DUP1 SLOAD DUP1 PUSH2 0x25A JUMPI PUSH2 0x259 PUSH2 0x4AC JUMP JUMPDEST JUMPDEST PUSH1 0x1 SWAP1 SUB DUP2 DUP2 SWAP1 PUSH0 MSTORE PUSH1 0x20 PUSH0 KECCAK256 ADD PUSH0 SWAP1 SSTORE SWAP1 SSTORE JUMP JUMPDEST PUSH0 DUP2 DUP2 SLOAD DUP2 LT PUSH2 0x282 JUMPI PUSH2 0x281 PUSH2 0x47F JUMP JUMPDEST JUMPDEST SWAP1 PUSH0 MSTORE PUSH1 0x20 PUSH0 KECCAK256 ADD PUSH0 SWAP1 SSTORE POP JUMP JUMPDEST PUSH1 0x2 DUP2 PUSH1 0xA DUP2 LT PUSH2 0x29F JUMPI PUSH0 DUP1 REVERT JUMPDEST ADD PUSH0 SWAP2 POP SWAP1 POP SLOAD DUP2 JUMP JUMPDEST PUSH1 0x60 PUSH0 DUP1 SLOAD DUP1 PUSH1 0x20 MUL PUSH1 0x20 ADD PUSH1 0x40 MLOAD SWAP1 DUP2 ADD PUSH1 0x40 MSTORE DUP1 SWAP3 SWAP2 SWAP1 DUP2 DUP2 MSTORE PUSH1 0x20 ADD DUP3 DUP1 SLOAD DUP1 ISZERO PUSH2 0x2F4 JUMPI PUSH1 0x20 MUL DUP3 ADD SWAP2 SWAP1 PUSH0 MSTORE PUSH1 0x20 PUSH0 KECCAK256 SWAP1 JUMPDEST DUP2 SLOAD DUP2 MSTORE PUSH1 0x20 ADD SWAP1 PUSH1 0x1 ADD SWAP1 DUP1 DUP4 GT PUSH2 0x2E0 JUMPI JUMPDEST POP POP POP POP POP SWAP1 POP SWAP1 JUMP JUMPDEST PUSH1 0x1 DUP2 DUP2 SLOAD DUP2 LT PUSH2 0x30D JUMPI PUSH0 DUP1 REVERT JUMPDEST SWAP1 PUSH0 MSTORE PUSH1 0x20 PUSH0 KECCAK256 ADD PUSH0 SWAP2 POP SWAP1 POP SLOAD DUP2 JUMP JUMPDEST PUSH0 DUP2 SWAP1 POP SWAP2 SWAP1 POP JUMP JUMPDEST PUSH2 0x330 DUP2 PUSH2 0x31E JUMP JUMPDEST DUP3 MSTORE POP POP JUMP JUMPDEST PUSH0 PUSH1 0x20 DUP3 ADD SWAP1 POP PUSH2 0x349 PUSH0 DUP4 ADD DUP5 PUSH2 0x327 JUMP JUMPDEST SWAP3 SWAP2 POP POP JUMP JUMPDEST PUSH0 DUP1 REVERT JUMPDEST PUSH2 0x35C DUP2 PUSH2 0x31E JUMP JUMPDEST DUP2 EQ PUSH2 0x366 JUMPI PUSH0 DUP1 REVERT JUMPDEST POP JUMP JUMPDEST PUSH0 DUP2 CALLDATALOAD SWAP1 POP PUSH2 0x377 DUP2 PUSH2 0x353 JUMP JUMPDEST SWAP3 SWAP2 POP POP JUMP JUMPDEST PUSH0 PUSH1 0x20 DUP3 DUP5 SUB SLT ISZERO PUSH2 0x392 JUMPI PUSH2 0x391 PUSH2 0x34F JUMP JUMPDEST JUMPDEST PUSH0 PUSH2 0x39F DUP5 DUP3 DUP6 ADD PUSH2 0x369 JUMP JUMPDEST SWAP2 POP POP SWAP3 SWAP2 POP POP JUMP JUMPDEST PUSH0 DUP2 MLOAD SWAP1 POP SWAP2 SWAP1 POP JUMP JUMPDEST PUSH0 DUP3 DUP3 MSTORE PUSH1 0x20 DUP3 ADD SWAP1 POP SWAP3 SWAP2 POP POP JUMP JUMPDEST PUSH0 DUP2 SWAP1 POP PUSH1 0x20 DUP3 ADD SWAP1 POP SWAP2 SWAP1 POP JUMP JUMPDEST PUSH2 0x3DA DUP2 PUSH2 0x31E JUMP JUMPDEST DUP3 MSTORE POP POP JUMP JUMPDEST PUSH0 PUSH2 0x3EB DUP4 DUP4 PUSH2 0x3D1 JUMP JUMPDEST PUSH1 0x20 DUP4 ADD SWAP1 POP SWAP3 SWAP2 POP POP JUMP JUMPDEST PUSH0 PUSH1 0x20 DUP3 ADD SWAP1 POP SWAP2 SWAP1 POP JUMP JUMPDEST PUSH0 PUSH2 0x40D DUP3 PUSH2 0x3A8 JUMP JUMPDEST PUSH2 0x417 DUP2 DUP6 PUSH2 0x3B2 JUMP JUMPDEST SWAP4 POP PUSH2 0x422 DUP4 PUSH2 0x3C2 JUMP JUMPDEST DUP1 PUSH0 JUMPDEST DUP4 DUP2 LT ISZERO PUSH2 0x452 JUMPI DUP2 MLOAD PUSH2 0x439 DUP9 DUP3 PUSH2 0x3E0 JUMP JUMPDEST SWAP8 POP PUSH2 0x444 DUP4 PUSH2 0x3F7 JUMP JUMPDEST SWAP3 POP POP PUSH1 0x1 DUP2 ADD SWAP1 POP PUSH2 0x425 JUMP JUMPDEST POP DUP6 SWAP4 POP POP POP POP SWAP3 SWAP2 POP POP JUMP JUMPDEST PUSH0 PUSH1 0x20 DUP3 ADD SWAP1 POP DUP2 DUP2 SUB PUSH0 DUP4 ADD MSTORE PUSH2 0x477 DUP2 DUP5 PUSH2 0x403 JUMP JUMPDEST SWAP1 POP SWAP3 SWAP2 POP POP JUMP JUMPDEST PUSH32 0x4E487B7100000000000000000000000000000000000000000000000000000000 PUSH0 MSTORE PUSH1 0x32 PUSH1 0x4 MSTORE PUSH1 0x24 PUSH0 REVERT JUMPDEST PUSH32 0x4E487B7100000000000000000000000000000000000000000000000000000000 PUSH0 MSTORE PUSH1 0x31 PUSH1 0x4 MSTORE PUSH1 0x24 PUSH0 REVERT INVALID LOG2 PUSH5 0x6970667358 0x22 SLT KECCAK256 0xCE SWAP4 EXP PUSH18 0x1798BB041EFF923DC74EEE6E5A71BC309E3E 0xF6 CHAINID 0xC7 PUSH5 0x43DA54DAC1 PUSH21 0x64736F6C6343000818003300000000000000000000 "
		},
		"gasEstimates": {
			"creation": {
				"codeDepositCost": "259000",
				"executionCost": "infinite",
				"totalCost": "infinite"
			},
			"external": {
				"arr(uint256)": "infinite",
				"arr2(uint256)": "infinite",
				"fixeSizeArray(uint256)": "infinite",
				"getArray()": "infinite",
				"getArrayElemet(uint256)": "infinite",
				"getLengthOfArray()": "2441",
				"popElement()": "29440",
				"pushElement(uint256)": "46887",
				"removeElement(uint256)": "7608"
			}
		},
		"methodIdentifiers": {
			"arr(uint256)": "71e5ee5f",
			"arr2(uint256)": "edf0099b",
			"fixeSizeArray(uint256)": "cb05eebf",
			"getArray()": "d504ea1d",
			"getArrayElemet(uint256)": "4af5a4aa",
			"getLengthOfArray()": "05917f07",
			"popElement()": "9a6fcbdd",
			"pushElement(uint256)": "78321efb",
			"removeElement(uint256)": "9fc37abf"
		}
	},
	"abi": [
		{
			"inputs": [
				{
					"internalType": "uint256",
					"name": "",
					"type": "uint256"
				}
			],
			"name": "arr",
			"outputs": [
				{
					"internalType": "uint256",
					"name": "",
					"type": "uint256"
				}
			],
			"stateMutability": "view",
			"type": "function"
		},
		{
			"inputs": [
				{
					"internalType": "uint256",
					"name": "",
					"type": "uint256"
				}
			],
			"name": "arr2",
			"outputs": [
				{
					"internalType": "uint256",
					"name": "",
					"type": "uint256"
				}
			],
			"stateMutability": "view",
			"type": "function"
		},
		{
			"inputs": [
				{
					"internalType": "uint256",
					"name": "",
					"type": "uint256"
				}
			],
			"name": "fixeSizeArray",
			"outputs": [
				{
					"internalType": "uint256",
					"name": "",
					"type": "uint256"
				}
			],
			"stateMutability": "view",
			"type": "function"
		},
		{
			"inputs": [],
			"name": "getArray",
			"outputs": [
				{
					"internalType": "uint256[]",
					"name": "",
					"type": "uint256[]"
				}
			],
			"stateMutability": "view",
			"type": "function"
		},
		{
			"inputs": [
				{
					"internalType": "uint256",
					"name": "index",
					"type": "uint256"
				}
			],
			"name": "getArrayElemet",
			"outputs": [
				{
					"internalType": "uint256",
					"name": "",
					"type": "uint256"
				}
			],
			"stateMutability": "view",
			"type": "function"
		},
		{
			"inputs": [],
			"name": "getLengthOfArray",
			"outputs": [
				{
					"internalType": "uint256",
					"name": "",
					"type": "uint256"
				}
			],
			"stateMutability": "view",
			"type": "function"
		},
		{
			"inputs": [],
			"name": "popElement",
			"outputs": [],
			"stateMutability": "nonpayable",
			"type": "function"
		},
		{
			"inputs": [
				{
					"internalType": "uint256",
					"name": "element",
					"type": "uint256"
				}
			],
			"name": "pushElement",
			"outputs": [],
			"stateMutability": "nonpayable",
			"type": "function"
		},
		{
			"inputs": [
				{
					"internalType": "uint256",
					"name": "index",
					"type": "uint256"
				}
			],
			"name": "removeElement",
			"outputs": [],
			"stateMutability": "nonpayable",
			"type": "function"
		}
	]
}