{
	"data": {
		"bytecode": {
			"linkReferences": {},
			"object": "608060405234801561000f575f80fd5b506103968061001d5f395ff3fe608060405234801561000f575f80fd5b506004361061003f575f3560e01c80636537214714610043578063ec0a53c814610061578063f20eaeb81461007d575b5f80fd5b61004b61009b565b604051610058919061019b565b60405180910390f35b61007b600480360381019061007691906101eb565b6100ad565b005b6100856100ee565b60405161009291906102b3565b60405180910390f35b60015f9054906101000a900460ff1681565b80826100b99190610300565b5f8190555060ff5f5411156100d1576100d0610333565b5b6001805f6101000a81548160ff0219169083151502179055505050565b60606001151560015f9054906101000a900460ff16151514610145576040518060400160405280600f81526020017f4f766572666c6f7720657869737473000000000000000000000000000000000081525061017c565b6040518060400160405280600b81526020017f4e6f206f766572666c6f770000000000000000000000000000000000000000008152505b905090565b5f8115159050919050565b61019581610181565b82525050565b5f6020820190506101ae5f83018461018c565b92915050565b5f80fd5b5f819050919050565b6101ca816101b8565b81146101d4575f80fd5b50565b5f813590506101e5816101c1565b92915050565b5f8060408385031215610201576102006101b4565b5b5f61020e858286016101d7565b925050602061021f858286016101d7565b9150509250929050565b5f81519050919050565b5f82825260208201905092915050565b5f5b83811015610260578082015181840152602081019050610245565b5f8484015250505050565b5f601f19601f8301169050919050565b5f61028582610229565b61028f8185610233565b935061029f818560208601610243565b6102a88161026b565b840191505092915050565b5f6020820190508181035f8301526102cb818461027b565b905092915050565b7f4e487b71000000000000000000000000000000000000000000000000000000005f52601160045260245ffd5b5f61030a826101b8565b9150610315836101b8565b925082820190508082111561032d5761032c6102d3565b5b92915050565b7f4e487b71000000000000000000000000000000000000000000000000000000005f52600160045260245ffdfea2646970667358221220ad73e0d42ac8a6a0dcaa817e26df0e408f775f771a22dea2d1aa849e58b1fb2b64736f6c63430008180033",
			"opcodes": "PUSH1 0x80 PUSH1 0x40 MSTORE CALLVALUE DUP1 ISZERO PUSH2 0xF JUMPI PUSH0 DUP1 REVERT JUMPDEST POP PUSH2 0x396 DUP1 PUSH2 0x1D PUSH0 CODECOPY PUSH0 RETURN INVALID PUSH1 0x80 PUSH1 0x40 MSTORE CALLVALUE DUP1 ISZERO PUSH2 0xF JUMPI PUSH0 DUP1 REVERT JUMPDEST POP PUSH1 0x4 CALLDATASIZE LT PUSH2 0x3F JUMPI PUSH0 CALLDATALOAD PUSH1 0xE0 SHR DUP1 PUSH4 0x65372147 EQ PUSH2 0x43 JUMPI DUP1 PUSH4 0xEC0A53C8 EQ PUSH2 0x61 JUMPI DUP1 PUSH4 0xF20EAEB8 EQ PUSH2 0x7D JUMPI JUMPDEST PUSH0 DUP1 REVERT JUMPDEST PUSH2 0x4B PUSH2 0x9B JUMP JUMPDEST PUSH1 0x40 MLOAD PUSH2 0x58 SWAP2 SWAP1 PUSH2 0x19B JUMP JUMPDEST PUSH1 0x40 MLOAD DUP1 SWAP2 SUB SWAP1 RETURN JUMPDEST PUSH2 0x7B PUSH1 0x4 DUP1 CALLDATASIZE SUB DUP2 ADD SWAP1 PUSH2 0x76 SWAP2 SWAP1 PUSH2 0x1EB JUMP JUMPDEST PUSH2 0xAD JUMP JUMPDEST STOP JUMPDEST PUSH2 0x85 PUSH2 0xEE JUMP JUMPDEST PUSH1 0x40 MLOAD PUSH2 0x92 SWAP2 SWAP1 PUSH2 0x2B3 JUMP JUMPDEST PUSH1 0x40 MLOAD DUP1 SWAP2 SUB SWAP1 RETURN JUMPDEST PUSH1 0x1 PUSH0 SWAP1 SLOAD SWAP1 PUSH2 0x100 EXP SWAP1 DIV PUSH1 0xFF AND DUP2 JUMP JUMPDEST DUP1 DUP3 PUSH2 0xB9 SWAP2 SWAP1 PUSH2 0x300 JUMP JUMPDEST PUSH0 DUP2 SWAP1 SSTORE POP PUSH1 0xFF PUSH0 SLOAD GT ISZERO PUSH2 0xD1 JUMPI PUSH2 0xD0 PUSH2 0x333 JUMP JUMPDEST JUMPDEST PUSH1 0x1 DUP1 PUSH0 PUSH2 0x100 EXP DUP2 SLOAD DUP2 PUSH1 0xFF MUL NOT AND SWAP1 DUP4 ISZERO ISZERO MUL OR SWAP1 SSTORE POP POP POP JUMP JUMPDEST PUSH1 0x60 PUSH1 0x1 ISZERO ISZERO PUSH1 0x1 PUSH0 SWAP1 SLOAD SWAP1 PUSH2 0x100 EXP SWAP1 DIV PUSH1 0xFF AND ISZERO ISZERO EQ PUSH2 0x145 JUMPI PUSH1 0x40 MLOAD DUP1 PUSH1 0x40 ADD PUSH1 0x40 MSTORE DUP1 PUSH1 0xF DUP2 MSTORE PUSH1 0x20 ADD PUSH32 0x4F766572666C6F77206578697374730000000000000000000000000000000000 DUP2 MSTORE POP PUSH2 0x17C JUMP JUMPDEST PUSH1 0x40 MLOAD DUP1 PUSH1 0x40 ADD PUSH1 0x40 MSTORE DUP1 PUSH1 0xB DUP2 MSTORE PUSH1 0x20 ADD PUSH32 0x4E6F206F766572666C6F77000000000000000000000000000000000000000000 DUP2 MSTORE POP JUMPDEST SWAP1 POP SWAP1 JUMP JUMPDEST PUSH0 DUP2 ISZERO ISZERO SWAP1 POP SWAP2 SWAP1 POP JUMP JUMPDEST PUSH2 0x195 DUP2 PUSH2 0x181 JUMP JUMPDEST DUP3 MSTORE POP POP JUMP JUMPDEST PUSH0 PUSH1 0x20 DUP3 ADD SWAP1 POP PUSH2 0x1AE PUSH0 DUP4 ADD DUP5 PUSH2 0x18C JUMP JUMPDEST SWAP3 SWAP2 POP POP JUMP JUMPDEST PUSH0 DUP1 REVERT JUMPDEST PUSH0 DUP2 SWAP1 POP SWAP2 SWAP1 POP JUMP JUMPDEST PUSH2 0x1CA DUP2 PUSH2 0x1B8 JUMP JUMPDEST DUP2 EQ PUSH2 0x1D4 JUMPI PUSH0 DUP1 REVERT JUMPDEST POP JUMP JUMPDEST PUSH0 DUP2 CALLDATALOAD SWAP1 POP PUSH2 0x1E5 DUP2 PUSH2 0x1C1 JUMP JUMPDEST SWAP3 SWAP2 POP POP JUMP JUMPDEST PUSH0 DUP1 PUSH1 0x40 DUP4 DUP6 SUB SLT ISZERO PUSH2 0x201 JUMPI PUSH2 0x200 PUSH2 0x1B4 JUMP JUMPDEST JUMPDEST PUSH0 PUSH2 0x20E DUP6 DUP3 DUP7 ADD PUSH2 0x1D7 JUMP JUMPDEST SWAP3 POP POP PUSH1 0x20 PUSH2 0x21F DUP6 DUP3 DUP7 ADD PUSH2 0x1D7 JUMP JUMPDEST SWAP2 POP POP SWAP3 POP SWAP3 SWAP1 POP JUMP JUMPDEST PUSH0 DUP2 MLOAD SWAP1 POP SWAP2 SWAP1 POP JUMP JUMPDEST PUSH0 DUP3 DUP3 MSTORE PUSH1 0x20 DUP3 ADD SWAP1 POP SWAP3 SWAP2 POP POP JUMP JUMPDEST PUSH0 JUMPDEST DUP4 DUP2 LT ISZERO PUSH2 0x260 JUMPI DUP1 DUP3 ADD MLOAD DUP2 DUP5 ADD MSTORE PUSH1 0x20 DUP2 ADD SWAP1 POP PUSH2 0x245 JUMP JUMPDEST PUSH0 DUP5 DUP5 ADD MSTORE POP POP POP POP JUMP JUMPDEST PUSH0 PUSH1 0x1F NOT PUSH1 0x1F DUP4 ADD AND SWAP1 POP SWAP2 SWAP1 POP JUMP JUMPDEST PUSH0 PUSH2 0x285 DUP3 PUSH2 0x229 JUMP JUMPDEST PUSH2 0x28F DUP2 DUP6 PUSH2 0x233 JUMP JUMPDEST SWAP4 POP PUSH2 0x29F DUP2 DUP6 PUSH1 0x20 DUP7 ADD PUSH2 0x243 JUMP JUMPDEST PUSH2 0x2A8 DUP2 PUSH2 0x26B JUMP JUMPDEST DUP5 ADD SWAP2 POP POP SWAP3 SWAP2 POP POP JUMP JUMPDEST PUSH0 PUSH1 0x20 DUP3 ADD SWAP1 POP DUP2 DUP2 SUB PUSH0 DUP4 ADD MSTORE PUSH2 0x2CB DUP2 DUP5 PUSH2 0x27B JUMP JUMPDEST SWAP1 POP SWAP3 SWAP2 POP POP JUMP JUMPDEST PUSH32 0x4E487B7100000000000000000000000000000000000000000000000000000000 PUSH0 MSTORE PUSH1 0x11 PUSH1 0x4 MSTORE PUSH1 0x24 PUSH0 REVERT JUMPDEST PUSH0 PUSH2 0x30A DUP3 PUSH2 0x1B8 JUMP JUMPDEST SWAP2 POP PUSH2 0x315 DUP4 PUSH2 0x1B8 JUMP JUMPDEST SWAP3 POP DUP3 DUP3 ADD SWAP1 POP DUP1 DUP3 GT ISZERO PUSH2 0x32D JUMPI PUSH2 0x32C PUSH2 0x2D3 JUMP JUMPDEST JUMPDEST SWAP3 SWAP2 POP POP JUMP JUMPDEST PUSH32 0x4E487B7100000000000000000000000000000000000000000000000000000000 PUSH0 MSTORE PUSH1 0x1 PUSH1 0x4 MSTORE PUSH1 0x24 PUSH0 REVERT INVALID LOG2 PUSH5 0x6970667358 0x22 SLT KECCAK256 0xAD PUSH20 0xE0D42AC8A6A0DCAA817E26DF0E408F775F771A22 0xDE LOG2 0xD1 0xAA DUP5 SWAP15 PC 0xB1 0xFB 0x2B PUSH5 0x736F6C6343 STOP ADDMOD XOR STOP CALLER "
		},
		"gasEstimates": {
			"creation": {
				"codeDepositCost": "183600",
				"executionCost": "224",
				"totalCost": "183824"
			},
			"external": {
				"checkOverlfow(uint256,uint256)": "infinite",
				"output()": "infinite",
				"result()": "2444"
			}
		},
		"methodIdentifiers": {
			"checkOverlfow(uint256,uint256)": "ec0a53c8",
			"output()": "f20eaeb8",
			"result()": "65372147"
		}
	},
	"abi": [
		{
			"inputs": [
				{
					"internalType": "uint256",
					"name": "_num1",
					"type": "uint256"
				},
				{
					"internalType": "uint256",
					"name": "_num2",
					"type": "uint256"
				}
			],
			"name": "checkOverlfow",
			"outputs": [],
			"stateMutability": "nonpayable",
			"type": "function"
		},
		{
			"inputs": [],
			"name": "output",
			"outputs": [
				{
					"internalType": "string",
					"name": "",
					"type": "string"
				}
			],
			"stateMutability": "view",
			"type": "function"
		},
		{
			"inputs": [],
			"name": "result",
			"outputs": [
				{
					"internalType": "bool",
					"name": "",
					"type": "bool"
				}
			],
			"stateMutability": "view",
			"type": "function"
		}
	]
}