{
	"Error Handling/Arrays/dynamicBytesArray.sol": {
		"DynamicByteArray": {
			"abi": [
				{
					"inputs": [],
					"name": "arr",
					"outputs": [
						{
							"internalType": "bytes",
							"name": "",
							"type": "bytes"
						}
					],
					"stateMutability": "view",
					"type": "function"
				},
				{
					"inputs": [],
					"name": "getLength",
					"outputs": [
						{
							"internalType": "uint256",
							"name": "",
							"type": "uint256"
						}
					],
					"stateMutability": "view",
					"type": "function"
				},
				{
					"inputs": [
						{
							"internalType": "uint256",
							"name": "index",
							"type": "uint256"
						}
					],
					"name": "getter",
					"outputs": [
						{
							"internalType": "bytes1",
							"name": "",
							"type": "bytes1"
						}
					],
					"stateMutability": "view",
					"type": "function"
				},
				{
					"inputs": [],
					"name": "setter",
					"outputs": [],
					"stateMutability": "nonpayable",
					"type": "function"
				}
			],
			"devdoc": {
				"kind": "dev",
				"methods": {},
				"version": 1
			},
			"evm": {
				"assembly": "    /* \"Error Handling/Arrays/dynamicBytesArray.sol\":61:378  contract DynamicByteArray{... */\n  mstore(0x40, 0x80)\n    /* \"Error Handling/Arrays/dynamicBytesArray.sol\":93:117  bytes public arr = \"abc\" */\n  mload(0x40)\n  dup1\n  0x40\n  add\n  0x40\n  mstore\n  dup1\n  0x03\n  dup2\n  mstore\n  0x20\n  add\n  0x6162630000000000000000000000000000000000000000000000000000000000\n  dup2\n  mstore\n  pop\n  0x00\n  swap1\n  dup2\n  tag_1\n  swap2\n  swap1\n  tag_2\n  jump\t// in\ntag_1:\n  pop\n    /* \"Error Handling/Arrays/dynamicBytesArray.sol\":61:378  contract DynamicByteArray{... */\n  callvalue\n  dup1\n  iszero\n  tag_3\n  jumpi\n  0x00\n  dup1\n  revert\ntag_3:\n  pop\n  jump(tag_4)\n    /* \"#utility.yul\":7:106   */\ntag_5:\n    /* \"#utility.yul\":59:65   */\n  0x00\n    /* \"#utility.yul\":93:98   */\n  dup2\n    /* \"#utility.yul\":87:99   */\n  mload\n    /* \"#utility.yul\":77:99   */\n  swap1\n  pop\n    /* \"#utility.yul\":7:106   */\n  swap2\n  swap1\n  pop\n  jump\t// out\n    /* \"#utility.yul\":112:292   */\ntag_6:\n    /* \"#utility.yul\":160:237   */\n  0x4e487b7100000000000000000000000000000000000000000000000000000000\n    /* \"#utility.yul\":157:158   */\n  0x00\n    /* \"#utility.yul\":150:238   */\n  mstore\n    /* \"#utility.yul\":257:261   */\n  0x41\n    /* \"#utility.yul\":254:255   */\n  0x04\n    /* \"#utility.yul\":247:262   */\n  mstore\n    /* \"#utility.yul\":281:285   */\n  0x24\n    /* \"#utility.yul\":278:279   */\n  0x00\n    /* \"#utility.yul\":271:286   */\n  revert\n    /* \"#utility.yul\":298:478   */\ntag_7:\n    /* \"#utility.yul\":346:423   */\n  0x4e487b7100000000000000000000000000000000000000000000000000000000\n    /* \"#utility.yul\":343:344   */\n  0x00\n    /* \"#utility.yul\":336:424   */\n  mstore\n    /* \"#utility.yul\":443:447   */\n  0x22\n    /* \"#utility.yul\":440:441   */\n  0x04\n    /* \"#utility.yul\":433:448   */\n  mstore\n    /* \"#utility.yul\":467:471   */\n  0x24\n    /* \"#utility.yul\":464:465   */\n  0x00\n    /* \"#utility.yul\":457:472   */\n  revert\n    /* \"#utility.yul\":484:804   */\ntag_8:\n    /* \"#utility.yul\":528:534   */\n  0x00\n    /* \"#utility.yul\":565:566   */\n  0x02\n    /* \"#utility.yul\":559:563   */\n  dup3\n    /* \"#utility.yul\":555:567   */\n  div\n    /* \"#utility.yul\":545:567   */\n  swap1\n  pop\n    /* \"#utility.yul\":612:613   */\n  0x01\n    /* \"#utility.yul\":606:610   */\n  dup3\n    /* \"#utility.yul\":602:614   */\n  and\n    /* \"#utility.yul\":633:651   */\n  dup1\n    /* \"#utility.yul\":623:704   */\n  tag_30\n  jumpi\n    /* \"#utility.yul\":689:693   */\n  0x7f\n    /* \"#utility.yul\":681:687   */\n  dup3\n    /* \"#utility.yul\":677:694   */\n  and\n    /* \"#utility.yul\":667:694   */\n  swap2\n  pop\n    /* \"#utility.yul\":623:704   */\ntag_30:\n    /* \"#utility.yul\":751:753   */\n  0x20\n    /* \"#utility.yul\":743:749   */\n  dup3\n    /* \"#utility.yul\":740:754   */\n  lt\n    /* \"#utility.yul\":720:738   */\n  dup2\n    /* \"#utility.yul\":717:755   */\n  sub\n    /* \"#utility.yul\":714:798   */\n  tag_31\n  jumpi\n    /* \"#utility.yul\":770:788   */\n  tag_32\n  tag_7\n  jump\t// in\ntag_32:\n    /* \"#utility.yul\":714:798   */\ntag_31:\n    /* \"#utility.yul\":535:804   */\n  pop\n    /* \"#utility.yul\":484:804   */\n  swap2\n  swap1\n  pop\n  jump\t// out\n    /* \"#utility.yul\":810:950   */\ntag_9:\n    /* \"#utility.yul\":858:862   */\n  0x00\n    /* \"#utility.yul\":881:884   */\n  dup2\n    /* \"#utility.yul\":873:884   */\n  swap1\n  pop\n    /* \"#utility.yul\":904:907   */\n  dup2\n    /* \"#utility.yul\":901:902   */\n  0x00\n    /* \"#utility.yul\":894:908   */\n  mstore\n    /* \"#utility.yul\":938:942   */\n  0x20\n    /* \"#utility.yul\":935:936   */\n  0x00\n    /* \"#utility.yul\":925:943   */\n  keccak256\n    /* \"#utility.yul\":917:943   */\n  swap1\n  pop\n    /* \"#utility.yul\":810:950   */\n  swap2\n  swap1\n  pop\n  jump\t// out\n    /* \"#utility.yul\":956:1049   */\ntag_10:\n    /* \"#utility.yul\":993:999   */\n  0x00\n    /* \"#utility.yul\":1040:1042   */\n  0x20\n    /* \"#utility.yul\":1035:1037   */\n  0x1f\n    /* \"#utility.yul\":1028:1033   */\n  dup4\n    /* \"#utility.yul\":1024:1038   */\n  add\n    /* \"#utility.yul\":1020:1043   */\n  div\n    /* \"#utility.yul\":1010:1043   */\n  swap1\n  pop\n    /* \"#utility.yul\":956:1049   */\n  swap2\n  swap1\n  pop\n  jump\t// out\n    /* \"#utility.yul\":1055:1162   */\ntag_11:\n    /* \"#utility.yul\":1099:1107   */\n  0x00\n    /* \"#utility.yul\":1149:1154   */\n  dup3\n    /* \"#utility.yul\":1143:1147   */\n  dup3\n    /* \"#utility.yul\":1139:1155   */\n  shl\n    /* \"#utility.yul\":1118:1155   */\n  swap1\n  pop\n    /* \"#utility.yul\":1055:1162   */\n  swap3\n  swap2\n  pop\n  pop\n  jump\t// out\n    /* \"#utility.yul\":1168:1561   */\ntag_12:\n    /* \"#utility.yul\":1237:1243   */\n  0x00\n    /* \"#utility.yul\":1287:1288   */\n  0x08\n    /* \"#utility.yul\":1275:1285   */\n  dup4\n    /* \"#utility.yul\":1271:1289   */\n  mul\n    /* \"#utility.yul\":1310:1407   */\n  tag_37\n    /* \"#utility.yul\":1340:1406   */\n  0xffffffffffffffffffffffffffffffffffffffffffffffffffffffffffffffff\n    /* \"#utility.yul\":1329:1338   */\n  dup3\n    /* \"#utility.yul\":1310:1407   */\n  tag_11\n  jump\t// in\ntag_37:\n    /* \"#utility.yul\":1428:1467   */\n  tag_38\n    /* \"#utility.yul\":1458:1466   */\n  dup7\n    /* \"#utility.yul\":1447:1456   */\n  dup4\n    /* \"#utility.yul\":1428:1467   */\n  tag_11\n  jump\t// in\ntag_38:\n    /* \"#utility.yul\":1416:1467   */\n  swap6\n  pop\n    /* \"#utility.yul\":1500:1504   */\n  dup1\n    /* \"#utility.yul\":1496:1505   */\n  not\n    /* \"#utility.yul\":1489:1494   */\n  dup5\n    /* \"#utility.yul\":1485:1506   */\n  and\n    /* \"#utility.yul\":1476:1506   */\n  swap4\n  pop\n    /* \"#utility.yul\":1549:1553   */\n  dup1\n    /* \"#utility.yul\":1539:1547   */\n  dup7\n    /* \"#utility.yul\":1535:1554   */\n  and\n    /* \"#utility.yul\":1528:1533   */\n  dup5\n    /* \"#utility.yul\":1525:1555   */\n  or\n    /* \"#utility.yul\":1515:1555   */\n  swap3\n  pop\n    /* \"#utility.yul\":1244:1561   */\n  pop\n  pop\n    /* \"#utility.yul\":1168:1561   */\n  swap4\n  swap3\n  pop\n  pop\n  pop\n  jump\t// out\n    /* \"#utility.yul\":1567:1644   */\ntag_13:\n    /* \"#utility.yul\":1604:1611   */\n  0x00\n    /* \"#utility.yul\":1633:1638   */\n  dup2\n    /* \"#utility.yul\":1622:1638   */\n  swap1\n  pop\n    /* \"#utility.yul\":1567:1644   */\n  swap2\n  swap1\n  pop\n  jump\t// out\n    /* \"#utility.yul\":1650:1710   */\ntag_14:\n    /* \"#utility.yul\":1678:1681   */\n  0x00\n    /* \"#utility.yul\":1699:1704   */\n  dup2\n    /* \"#utility.yul\":1692:1704   */\n  swap1\n  pop\n    /* \"#utility.yul\":1650:1710   */\n  swap2\n  swap1\n  pop\n  jump\t// out\n    /* \"#utility.yul\":1716:1858   */\ntag_15:\n    /* \"#utility.yul\":1766:1775   */\n  0x00\n    /* \"#utility.yul\":1799:1852   */\n  tag_42\n    /* \"#utility.yul\":1817:1851   */\n  tag_43\n    /* \"#utility.yul\":1826:1850   */\n  tag_44\n    /* \"#utility.yul\":1844:1849   */\n  dup5\n    /* \"#utility.yul\":1826:1850   */\n  tag_13\n  jump\t// in\ntag_44:\n    /* \"#utility.yul\":1817:1851   */\n  tag_14\n  jump\t// in\ntag_43:\n    /* \"#utility.yul\":1799:1852   */\n  tag_13\n  jump\t// in\ntag_42:\n    /* \"#utility.yul\":1786:1852   */\n  swap1\n  pop\n    /* \"#utility.yul\":1716:1858   */\n  swap2\n  swap1\n  pop\n  jump\t// out\n    /* \"#utility.yul\":1864:1939   */\ntag_16:\n    /* \"#utility.yul\":1907:1910   */\n  0x00\n    /* \"#utility.yul\":1928:1933   */\n  dup2\n    /* \"#utility.yul\":1921:1933   */\n  swap1\n  pop\n    /* \"#utility.yul\":1864:1939   */\n  swap2\n  swap1\n  pop\n  jump\t// out\n    /* \"#utility.yul\":1945:2214   */\ntag_17:\n    /* \"#utility.yul\":2055:2094   */\n  tag_47\n    /* \"#utility.yul\":2086:2093   */\n  dup4\n    /* \"#utility.yul\":2055:2094   */\n  tag_15\n  jump\t// in\ntag_47:\n    /* \"#utility.yul\":2116:2207   */\n  tag_48\n    /* \"#utility.yul\":2165:2206   */\n  tag_49\n    /* \"#utility.yul\":2189:2205   */\n  dup3\n    /* \"#utility.yul\":2165:2206   */\n  tag_16\n  jump\t// in\ntag_49:\n    /* \"#utility.yul\":2157:2163   */\n  dup5\n    /* \"#utility.yul\":2150:2154   */\n  dup5\n    /* \"#utility.yul\":2144:2155   */\n  sload\n    /* \"#utility.yul\":2116:2207   */\n  tag_12\n  jump\t// in\ntag_48:\n    /* \"#utility.yul\":2110:2114   */\n  dup3\n    /* \"#utility.yul\":2103:2208   */\n  sstore\n    /* \"#utility.yul\":2021:2214   */\n  pop\n    /* \"#utility.yul\":1945:2214   */\n  pop\n  pop\n  pop\n  jump\t// out\n    /* \"#utility.yul\":2220:2293   */\ntag_18:\n    /* \"#utility.yul\":2265:2268   */\n  0x00\n    /* \"#utility.yul\":2220:2293   */\n  swap1\n  jump\t// out\n    /* \"#utility.yul\":2299:2488   */\ntag_19:\n    /* \"#utility.yul\":2376:2408   */\n  tag_52\n  tag_18\n  jump\t// in\ntag_52:\n    /* \"#utility.yul\":2417:2482   */\n  tag_53\n    /* \"#utility.yul\":2475:2481   */\n  dup2\n    /* \"#utility.yul\":2467:2473   */\n  dup5\n    /* \"#utility.yul\":2461:2465   */\n  dup5\n    /* \"#utility.yul\":2417:2482   */\n  tag_17\n  jump\t// in\ntag_53:\n    /* \"#utility.yul\":2352:2488   */\n  pop\n    /* \"#utility.yul\":2299:2488   */\n  pop\n  pop\n  jump\t// out\n    /* \"#utility.yul\":2494:2680   */\ntag_20:\n    /* \"#utility.yul\":2554:2674   */\ntag_55:\n    /* \"#utility.yul\":2571:2574   */\n  dup2\n    /* \"#utility.yul\":2564:2569   */\n  dup2\n    /* \"#utility.yul\":2561:2575   */\n  lt\n    /* \"#utility.yul\":2554:2674   */\n  iszero\n  tag_57\n  jumpi\n    /* \"#utility.yul\":2625:2664   */\n  tag_58\n    /* \"#utility.yul\":2662:2663   */\n  0x00\n    /* \"#utility.yul\":2655:2660   */\n  dup3\n    /* \"#utility.yul\":2625:2664   */\n  tag_19\n  jump\t// in\ntag_58:\n    /* \"#utility.yul\":2598:2599   */\n  0x01\n    /* \"#utility.yul\":2591:2596   */\n  dup2\n    /* \"#utility.yul\":2587:2600   */\n  add\n    /* \"#utility.yul\":2578:2600   */\n  swap1\n  pop\n    /* \"#utility.yul\":2554:2674   */\n  jump(tag_55)\ntag_57:\n    /* \"#utility.yul\":2494:2680   */\n  pop\n  pop\n  jump\t// out\n    /* \"#utility.yul\":2686:3227   */\ntag_21:\n    /* \"#utility.yul\":2786:2788   */\n  0x1f\n    /* \"#utility.yul\":2781:2784   */\n  dup3\n    /* \"#utility.yul\":2778:2789   */\n  gt\n    /* \"#utility.yul\":2775:3220   */\n  iszero\n  tag_60\n  jumpi\n    /* \"#utility.yul\":2820:2857   */\n  tag_61\n    /* \"#utility.yul\":2851:2856   */\n  dup2\n    /* \"#utility.yul\":2820:2857   */\n  tag_9\n  jump\t// in\ntag_61:\n    /* \"#utility.yul\":2903:2932   */\n  tag_62\n    /* \"#utility.yul\":2921:2931   */\n  dup5\n    /* \"#utility.yul\":2903:2932   */\n  tag_10\n  jump\t// in\ntag_62:\n    /* \"#utility.yul\":2893:2901   */\n  dup2\n    /* \"#utility.yul\":2889:2933   */\n  add\n    /* \"#utility.yul\":3086:3088   */\n  0x20\n    /* \"#utility.yul\":3074:3084   */\n  dup6\n    /* \"#utility.yul\":3071:3089   */\n  lt\n    /* \"#utility.yul\":3068:3117   */\n  iszero\n  tag_63\n  jumpi\n    /* \"#utility.yul\":3107:3115   */\n  dup2\n    /* \"#utility.yul\":3092:3115   */\n  swap1\n  pop\n    /* \"#utility.yul\":3068:3117   */\ntag_63:\n    /* \"#utility.yul\":3130:3210   */\n  tag_64\n    /* \"#utility.yul\":3186:3208   */\n  tag_65\n    /* \"#utility.yul\":3204:3207   */\n  dup6\n    /* \"#utility.yul\":3186:3208   */\n  tag_10\n  jump\t// in\ntag_65:\n    /* \"#utility.yul\":3176:3184   */\n  dup4\n    /* \"#utility.yul\":3172:3209   */\n  add\n    /* \"#utility.yul\":3159:3170   */\n  dup3\n    /* \"#utility.yul\":3130:3210   */\n  tag_20\n  jump\t// in\ntag_64:\n    /* \"#utility.yul\":2790:3220   */\n  pop\n  pop\n    /* \"#utility.yul\":2775:3220   */\ntag_60:\n    /* \"#utility.yul\":2686:3227   */\n  pop\n  pop\n  pop\n  jump\t// out\n    /* \"#utility.yul\":3233:3350   */\ntag_22:\n    /* \"#utility.yul\":3287:3295   */\n  0x00\n    /* \"#utility.yul\":3337:3342   */\n  dup3\n    /* \"#utility.yul\":3331:3335   */\n  dup3\n    /* \"#utility.yul\":3327:3343   */\n  shr\n    /* \"#utility.yul\":3306:3343   */\n  swap1\n  pop\n    /* \"#utility.yul\":3233:3350   */\n  swap3\n  swap2\n  pop\n  pop\n  jump\t// out\n    /* \"#utility.yul\":3356:3525   */\ntag_23:\n    /* \"#utility.yul\":3400:3406   */\n  0x00\n    /* \"#utility.yul\":3433:3484   */\n  tag_68\n    /* \"#utility.yul\":3481:3482   */\n  0x00\n    /* \"#utility.yul\":3477:3483   */\n  not\n    /* \"#utility.yul\":3469:3474   */\n  dup5\n    /* \"#utility.yul\":3466:3467   */\n  0x08\n    /* \"#utility.yul\":3462:3475   */\n  mul\n    /* \"#utility.yul\":3433:3484   */\n  tag_22\n  jump\t// in\ntag_68:\n    /* \"#utility.yul\":3429:3485   */\n  not\n    /* \"#utility.yul\":3514:3518   */\n  dup1\n    /* \"#utility.yul\":3508:3512   */\n  dup4\n    /* \"#utility.yul\":3504:3519   */\n  and\n    /* \"#utility.yul\":3494:3519   */\n  swap2\n  pop\n    /* \"#utility.yul\":3407:3525   */\n  pop\n    /* \"#utility.yul\":3356:3525   */\n  swap3\n  swap2\n  pop\n  pop\n  jump\t// out\n    /* \"#utility.yul\":3530:3825   */\ntag_24:\n    /* \"#utility.yul\":3606:3610   */\n  0x00\n    /* \"#utility.yul\":3752:3781   */\n  tag_70\n    /* \"#utility.yul\":3777:3780   */\n  dup4\n    /* \"#utility.yul\":3771:3775   */\n  dup4\n    /* \"#utility.yul\":3752:3781   */\n  tag_23\n  jump\t// in\ntag_70:\n    /* \"#utility.yul\":3744:3781   */\n  swap2\n  pop\n    /* \"#utility.yul\":3814:3817   */\n  dup3\n    /* \"#utility.yul\":3811:3812   */\n  0x02\n    /* \"#utility.yul\":3807:3818   */\n  mul\n    /* \"#utility.yul\":3801:3805   */\n  dup3\n    /* \"#utility.yul\":3798:3819   */\n  or\n    /* \"#utility.yul\":3790:3819   */\n  swap1\n  pop\n    /* \"#utility.yul\":3530:3825   */\n  swap3\n  swap2\n  pop\n  pop\n  jump\t// out\n    /* \"#utility.yul\":3830:5222   */\ntag_2:\n    /* \"#utility.yul\":3946:3983   */\n  tag_72\n    /* \"#utility.yul\":3979:3982   */\n  dup3\n    /* \"#utility.yul\":3946:3983   */\n  tag_5\n  jump\t// in\ntag_72:\n    /* \"#utility.yul\":4048:4066   */\n  0xffffffffffffffff\n    /* \"#utility.yul\":4040:4046   */\n  dup2\n    /* \"#utility.yul\":4037:4067   */\n  gt\n    /* \"#utility.yul\":4034:4090   */\n  iszero\n  tag_73\n  jumpi\n    /* \"#utility.yul\":4070:4088   */\n  tag_74\n  tag_6\n  jump\t// in\ntag_74:\n    /* \"#utility.yul\":4034:4090   */\ntag_73:\n    /* \"#utility.yul\":4114:4152   */\n  tag_75\n    /* \"#utility.yul\":4146:4150   */\n  dup3\n    /* \"#utility.yul\":4140:4151   */\n  sload\n    /* \"#utility.yul\":4114:4152   */\n  tag_8\n  jump\t// in\ntag_75:\n    /* \"#utility.yul\":4199:4265   */\n  tag_76\n    /* \"#utility.yul\":4258:4264   */\n  dup3\n    /* \"#utility.yul\":4250:4256   */\n  dup3\n    /* \"#utility.yul\":4244:4248   */\n  dup6\n    /* \"#utility.yul\":4199:4265   */\n  tag_21\n  jump\t// in\ntag_76:\n    /* \"#utility.yul\":4292:4293   */\n  0x00\n    /* \"#utility.yul\":4316:4320   */\n  0x20\n    /* \"#utility.yul\":4303:4320   */\n  swap1\n  pop\n    /* \"#utility.yul\":4348:4350   */\n  0x1f\n    /* \"#utility.yul\":4340:4346   */\n  dup4\n    /* \"#utility.yul\":4337:4351   */\n  gt\n    /* \"#utility.yul\":4365:4366   */\n  0x01\n    /* \"#utility.yul\":4360:4977   */\n  dup2\n  eq\n  tag_78\n  jumpi\n    /* \"#utility.yul\":5021:5022   */\n  0x00\n    /* \"#utility.yul\":5038:5044   */\n  dup5\n    /* \"#utility.yul\":5035:5112   */\n  iszero\n  tag_79\n  jumpi\n    /* \"#utility.yul\":5087:5096   */\n  dup3\n    /* \"#utility.yul\":5082:5085   */\n  dup8\n    /* \"#utility.yul\":5078:5097   */\n  add\n    /* \"#utility.yul\":5072:5098   */\n  mload\n    /* \"#utility.yul\":5063:5098   */\n  swap1\n  pop\n    /* \"#utility.yul\":5035:5112   */\ntag_79:\n    /* \"#utility.yul\":5138:5205   */\n  tag_80\n    /* \"#utility.yul\":5198:5204   */\n  dup6\n    /* \"#utility.yul\":5191:5196   */\n  dup3\n    /* \"#utility.yul\":5138:5205   */\n  tag_24\n  jump\t// in\ntag_80:\n    /* \"#utility.yul\":5132:5136   */\n  dup7\n    /* \"#utility.yul\":5125:5206   */\n  sstore\n    /* \"#utility.yul\":4994:5216   */\n  pop\n    /* \"#utility.yul\":4330:5216   */\n  jump(tag_77)\n    /* \"#utility.yul\":4360:4977   */\ntag_78:\n    /* \"#utility.yul\":4412:4416   */\n  0x1f\n    /* \"#utility.yul\":4408:4417   */\n  not\n    /* \"#utility.yul\":4400:4406   */\n  dup5\n    /* \"#utility.yul\":4396:4418   */\n  and\n    /* \"#utility.yul\":4446:4482   */\n  tag_81\n    /* \"#utility.yul\":4477:4481   */\n  dup7\n    /* \"#utility.yul\":4446:4482   */\n  tag_9\n  jump\t// in\ntag_81:\n    /* \"#utility.yul\":4504:4505   */\n  0x00\n    /* \"#utility.yul\":4518:4726   */\ntag_82:\n    /* \"#utility.yul\":4532:4539   */\n  dup3\n    /* \"#utility.yul\":4529:4530   */\n  dup2\n    /* \"#utility.yul\":4526:4540   */\n  lt\n    /* \"#utility.yul\":4518:4726   */\n  iszero\n  tag_84\n  jumpi\n    /* \"#utility.yul\":4611:4620   */\n  dup5\n    /* \"#utility.yul\":4606:4609   */\n  dup10\n    /* \"#utility.yul\":4602:4621   */\n  add\n    /* \"#utility.yul\":4596:4622   */\n  mload\n    /* \"#utility.yul\":4588:4594   */\n  dup3\n    /* \"#utility.yul\":4581:4623   */\n  sstore\n    /* \"#utility.yul\":4662:4663   */\n  0x01\n    /* \"#utility.yul\":4654:4660   */\n  dup3\n    /* \"#utility.yul\":4650:4664   */\n  add\n    /* \"#utility.yul\":4640:4664   */\n  swap2\n  pop\n    /* \"#utility.yul\":4709:4711   */\n  0x20\n    /* \"#utility.yul\":4698:4707   */\n  dup6\n    /* \"#utility.yul\":4694:4712   */\n  add\n    /* \"#utility.yul\":4681:4712   */\n  swap5\n  pop\n    /* \"#utility.yul\":4555:4559   */\n  0x20\n    /* \"#utility.yul\":4552:4553   */\n  dup2\n    /* \"#utility.yul\":4548:4560   */\n  add\n    /* \"#utility.yul\":4543:4560   */\n  swap1\n  pop\n    /* \"#utility.yul\":4518:4726   */\n  jump(tag_82)\ntag_84:\n    /* \"#utility.yul\":4754:4760   */\n  dup7\n    /* \"#utility.yul\":4745:4752   */\n  dup4\n    /* \"#utility.yul\":4742:4761   */\n  lt\n    /* \"#utility.yul\":4739:4918   */\n  iszero\n  tag_85\n  jumpi\n    /* \"#utility.yul\":4812:4821   */\n  dup5\n    /* \"#utility.yul\":4807:4810   */\n  dup10\n    /* \"#utility.yul\":4803:4822   */\n  add\n    /* \"#utility.yul\":4797:4823   */\n  mload\n    /* \"#utility.yul\":4855:4903   */\n  tag_86\n    /* \"#utility.yul\":4897:4901   */\n  0x1f\n    /* \"#utility.yul\":4889:4895   */\n  dup10\n    /* \"#utility.yul\":4885:4902   */\n  and\n    /* \"#utility.yul\":4874:4883   */\n  dup3\n    /* \"#utility.yul\":4855:4903   */\n  tag_23\n  jump\t// in\ntag_86:\n    /* \"#utility.yul\":4847:4853   */\n  dup4\n    /* \"#utility.yul\":4840:4904   */\n  sstore\n    /* \"#utility.yul\":4762:4918   */\n  pop\n    /* \"#utility.yul\":4739:4918   */\ntag_85:\n    /* \"#utility.yul\":4964:4965   */\n  0x01\n    /* \"#utility.yul\":4960:4961   */\n  0x02\n    /* \"#utility.yul\":4952:4958   */\n  dup9\n    /* \"#utility.yul\":4948:4962   */\n  mul\n    /* \"#utility.yul\":4944:4966   */\n  add\n    /* \"#utility.yul\":4938:4942   */\n  dup9\n    /* \"#utility.yul\":4931:4967   */\n  sstore\n    /* \"#utility.yul\":4367:4977   */\n  pop\n  pop\n  pop\n    /* \"#utility.yul\":4330:5216   */\ntag_77:\n  pop\n    /* \"#utility.yul\":3921:5222   */\n  pop\n  pop\n  pop\n    /* \"#utility.yul\":3830:5222   */\n  pop\n  pop\n  jump\t// out\n    /* \"Error Handling/Arrays/dynamicBytesArray.sol\":61:378  contract DynamicByteArray{... */\ntag_4:\n  dataSize(sub_0)\n  dup1\n  dataOffset(sub_0)\n  0x00\n  codecopy\n  0x00\n  return\nstop\n\nsub_0: assembly {\n        /* \"Error Handling/Arrays/dynamicBytesArray.sol\":61:378  contract DynamicByteArray{... */\n      mstore(0x40, 0x80)\n      callvalue\n      dup1\n      iszero\n      tag_1\n      jumpi\n      0x00\n      dup1\n      revert\n    tag_1:\n      pop\n      jumpi(tag_2, lt(calldatasize, 0x04))\n      shr(0xe0, calldataload(0x00))\n      dup1\n      0x3f3108f7\n      eq\n      tag_3\n      jumpi\n      dup1\n      0x94cad55d\n      eq\n      tag_4\n      jumpi\n      dup1\n      0xbe1c766b\n      eq\n      tag_5\n      jumpi\n      dup1\n      0xe81d53cf\n      eq\n      tag_6\n      jumpi\n    tag_2:\n      0x00\n      dup1\n      revert\n        /* \"Error Handling/Arrays/dynamicBytesArray.sol\":126:182  function setter() public {... */\n    tag_3:\n      tag_7\n      tag_8\n      jump\t// in\n    tag_7:\n      stop\n        /* \"Error Handling/Arrays/dynamicBytesArray.sol\":190:283  function getter(uint index) view  public returns (bytes1){... */\n    tag_4:\n      tag_9\n      0x04\n      dup1\n      calldatasize\n      sub\n      dup2\n      add\n      swap1\n      tag_10\n      swap2\n      swap1\n      tag_11\n      jump\t// in\n    tag_10:\n      tag_12\n      jump\t// in\n    tag_9:\n      mload(0x40)\n      tag_13\n      swap2\n      swap1\n      tag_14\n      jump\t// in\n    tag_13:\n      mload(0x40)\n      dup1\n      swap2\n      sub\n      swap1\n      return\n        /* \"Error Handling/Arrays/dynamicBytesArray.sol\":291:375  function getLength() view public returns (uint){... */\n    tag_5:\n      tag_15\n      tag_16\n      jump\t// in\n    tag_15:\n      mload(0x40)\n      tag_17\n      swap2\n      swap1\n      tag_18\n      jump\t// in\n    tag_17:\n      mload(0x40)\n      dup1\n      swap2\n      sub\n      swap1\n      return\n        /* \"Error Handling/Arrays/dynamicBytesArray.sol\":93:117  bytes public arr = \"abc\" */\n    tag_6:\n      tag_19\n      tag_20\n      jump\t// in\n    tag_19:\n      mload(0x40)\n      tag_21\n      swap2\n      swap1\n      tag_22\n      jump\t// in\n    tag_21:\n      mload(0x40)\n      dup1\n      swap2\n      sub\n      swap1\n      return\n        /* \"Error Handling/Arrays/dynamicBytesArray.sol\":126:182  function setter() public {... */\n    tag_8:\n        /* \"Error Handling/Arrays/dynamicBytesArray.sol\":162:174  arr = \"abcd\" */\n      mload(0x40)\n      dup1\n      0x40\n      add\n      0x40\n      mstore\n      dup1\n      0x04\n      dup2\n      mstore\n      0x20\n      add\n      0x6162636400000000000000000000000000000000000000000000000000000000\n      dup2\n      mstore\n      pop\n        /* \"Error Handling/Arrays/dynamicBytesArray.sol\":162:165  arr */\n      0x00\n        /* \"Error Handling/Arrays/dynamicBytesArray.sol\":162:174  arr = \"abcd\" */\n      swap1\n      dup2\n      tag_24\n      swap2\n      swap1\n      tag_25\n      jump\t// in\n    tag_24:\n      pop\n        /* \"Error Handling/Arrays/dynamicBytesArray.sol\":126:182  function setter() public {... */\n      jump\t// out\n        /* \"Error Handling/Arrays/dynamicBytesArray.sol\":190:283  function getter(uint index) view  public returns (bytes1){... */\n    tag_12:\n        /* \"Error Handling/Arrays/dynamicBytesArray.sol\":240:246  bytes1 */\n      0x00\n        /* \"Error Handling/Arrays/dynamicBytesArray.sol\":265:268  arr */\n      dup1\n        /* \"Error Handling/Arrays/dynamicBytesArray.sol\":269:274  index */\n      dup3\n        /* \"Error Handling/Arrays/dynamicBytesArray.sol\":265:275  arr[index] */\n      dup2\n      sload\n      tag_27\n      swap1\n      tag_28\n      jump\t// in\n    tag_27:\n      dup2\n      lt\n      tag_29\n      jumpi\n      tag_30\n      tag_31\n      jump\t// in\n    tag_30:\n    tag_29:\n      dup2\n      sload\n      0x01\n      and\n      iszero\n      tag_32\n      jumpi\n      swap1\n      0x00\n      mstore\n      keccak256(0x00, 0x20)\n      swap1\n      0x20\n      swap2\n      dup3\n      dup3\n      div\n      add\n      swap2\n      swap1\n      mod\n    tag_32:\n      swap1\n      sload\n      swap1\n      byte\n      0x0100000000000000000000000000000000000000000000000000000000000000\n      mul\n        /* \"Error Handling/Arrays/dynamicBytesArray.sol\":258:275  return arr[index] */\n      swap1\n      pop\n        /* \"Error Handling/Arrays/dynamicBytesArray.sol\":190:283  function getter(uint index) view  public returns (bytes1){... */\n      swap2\n      swap1\n      pop\n      jump\t// out\n        /* \"Error Handling/Arrays/dynamicBytesArray.sol\":291:375  function getLength() view public returns (uint){... */\n    tag_16:\n        /* \"Error Handling/Arrays/dynamicBytesArray.sol\":333:337  uint */\n      0x00\n        /* \"Error Handling/Arrays/dynamicBytesArray.sol\":356:359  arr */\n      dup1\n        /* \"Error Handling/Arrays/dynamicBytesArray.sol\":356:366  arr.length */\n      dup1\n      sload\n      tag_34\n      swap1\n      tag_28\n      jump\t// in\n    tag_34:\n      swap1\n      pop\n        /* \"Error Handling/Arrays/dynamicBytesArray.sol\":349:366  return arr.length */\n      swap1\n      pop\n        /* \"Error Handling/Arrays/dynamicBytesArray.sol\":291:375  function getLength() view public returns (uint){... */\n      swap1\n      jump\t// out\n        /* \"Error Handling/Arrays/dynamicBytesArray.sol\":93:117  bytes public arr = \"abc\" */\n    tag_20:\n      0x00\n      dup1\n      sload\n      tag_35\n      swap1\n      tag_28\n      jump\t// in\n    tag_35:\n      dup1\n      0x1f\n      add\n      0x20\n      dup1\n      swap2\n      div\n      mul\n      0x20\n      add\n      mload(0x40)\n      swap1\n      dup2\n      add\n      0x40\n      mstore\n      dup1\n      swap3\n      swap2\n      swap1\n      dup2\n      dup2\n      mstore\n      0x20\n      add\n      dup3\n      dup1\n      sload\n      tag_36\n      swap1\n      tag_28\n      jump\t// in\n    tag_36:\n      dup1\n      iszero\n      tag_37\n      jumpi\n      dup1\n      0x1f\n      lt\n      tag_38\n      jumpi\n      0x0100\n      dup1\n      dup4\n      sload\n      div\n      mul\n      dup4\n      mstore\n      swap2\n      0x20\n      add\n      swap2\n      jump(tag_37)\n    tag_38:\n      dup3\n      add\n      swap2\n      swap1\n      0x00\n      mstore\n      keccak256(0x00, 0x20)\n      swap1\n    tag_39:\n      dup2\n      sload\n      dup2\n      mstore\n      swap1\n      0x01\n      add\n      swap1\n      0x20\n      add\n      dup1\n      dup4\n      gt\n      tag_39\n      jumpi\n      dup3\n      swap1\n      sub\n      0x1f\n      and\n      dup3\n      add\n      swap2\n    tag_37:\n      pop\n      pop\n      pop\n      pop\n      pop\n      dup2\n      jump\t// out\n        /* \"#utility.yul\":88:205   */\n    tag_41:\n        /* \"#utility.yul\":197:198   */\n      0x00\n        /* \"#utility.yul\":194:195   */\n      dup1\n        /* \"#utility.yul\":187:199   */\n      revert\n        /* \"#utility.yul\":334:411   */\n    tag_43:\n        /* \"#utility.yul\":371:378   */\n      0x00\n        /* \"#utility.yul\":400:405   */\n      dup2\n        /* \"#utility.yul\":389:405   */\n      swap1\n      pop\n        /* \"#utility.yul\":334:411   */\n      swap2\n      swap1\n      pop\n      jump\t// out\n        /* \"#utility.yul\":417:539   */\n    tag_44:\n        /* \"#utility.yul\":490:514   */\n      tag_78\n        /* \"#utility.yul\":508:513   */\n      dup2\n        /* \"#utility.yul\":490:514   */\n      tag_43\n      jump\t// in\n    tag_78:\n        /* \"#utility.yul\":483:488   */\n      dup2\n        /* \"#utility.yul\":480:515   */\n      eq\n        /* \"#utility.yul\":470:533   */\n      tag_79\n      jumpi\n        /* \"#utility.yul\":529:530   */\n      0x00\n        /* \"#utility.yul\":526:527   */\n      dup1\n        /* \"#utility.yul\":519:531   */\n      revert\n        /* \"#utility.yul\":470:533   */\n    tag_79:\n        /* \"#utility.yul\":417:539   */\n      pop\n      jump\t// out\n        /* \"#utility.yul\":545:684   */\n    tag_45:\n        /* \"#utility.yul\":591:596   */\n      0x00\n        /* \"#utility.yul\":629:635   */\n      dup2\n        /* \"#utility.yul\":616:636   */\n      calldataload\n        /* \"#utility.yul\":607:636   */\n      swap1\n      pop\n        /* \"#utility.yul\":645:678   */\n      tag_81\n        /* \"#utility.yul\":672:677   */\n      dup2\n        /* \"#utility.yul\":645:678   */\n      tag_44\n      jump\t// in\n    tag_81:\n        /* \"#utility.yul\":545:684   */\n      swap3\n      swap2\n      pop\n      pop\n      jump\t// out\n        /* \"#utility.yul\":690:1019   */\n    tag_11:\n        /* \"#utility.yul\":749:755   */\n      0x00\n        /* \"#utility.yul\":798:800   */\n      0x20\n        /* \"#utility.yul\":786:795   */\n      dup3\n        /* \"#utility.yul\":777:784   */\n      dup5\n        /* \"#utility.yul\":773:796   */\n      sub\n        /* \"#utility.yul\":769:801   */\n      slt\n        /* \"#utility.yul\":766:885   */\n      iszero\n      tag_83\n      jumpi\n        /* \"#utility.yul\":804:883   */\n      tag_84\n      tag_41\n      jump\t// in\n    tag_84:\n        /* \"#utility.yul\":766:885   */\n    tag_83:\n        /* \"#utility.yul\":924:925   */\n      0x00\n        /* \"#utility.yul\":949:1002   */\n      tag_85\n        /* \"#utility.yul\":994:1001   */\n      dup5\n        /* \"#utility.yul\":985:991   */\n      dup3\n        /* \"#utility.yul\":974:983   */\n      dup6\n        /* \"#utility.yul\":970:992   */\n      add\n        /* \"#utility.yul\":949:1002   */\n      tag_45\n      jump\t// in\n    tag_85:\n        /* \"#utility.yul\":939:1002   */\n      swap2\n      pop\n        /* \"#utility.yul\":895:1012   */\n      pop\n        /* \"#utility.yul\":690:1019   */\n      swap3\n      swap2\n      pop\n      pop\n      jump\t// out\n        /* \"#utility.yul\":1025:1174   */\n    tag_46:\n        /* \"#utility.yul\":1061:1068   */\n      0x00\n        /* \"#utility.yul\":1101:1167   */\n      0xff00000000000000000000000000000000000000000000000000000000000000\n        /* \"#utility.yul\":1094:1099   */\n      dup3\n        /* \"#utility.yul\":1090:1168   */\n      and\n        /* \"#utility.yul\":1079:1168   */\n      swap1\n      pop\n        /* \"#utility.yul\":1025:1174   */\n      swap2\n      swap1\n      pop\n      jump\t// out\n        /* \"#utility.yul\":1180:1295   */\n    tag_47:\n        /* \"#utility.yul\":1265:1288   */\n      tag_88\n        /* \"#utility.yul\":1282:1287   */\n      dup2\n        /* \"#utility.yul\":1265:1288   */\n      tag_46\n      jump\t// in\n    tag_88:\n        /* \"#utility.yul\":1260:1263   */\n      dup3\n        /* \"#utility.yul\":1253:1289   */\n      mstore\n        /* \"#utility.yul\":1180:1295   */\n      pop\n      pop\n      jump\t// out\n        /* \"#utility.yul\":1301:1519   */\n    tag_14:\n        /* \"#utility.yul\":1392:1396   */\n      0x00\n        /* \"#utility.yul\":1430:1432   */\n      0x20\n        /* \"#utility.yul\":1419:1428   */\n      dup3\n        /* \"#utility.yul\":1415:1433   */\n      add\n        /* \"#utility.yul\":1407:1433   */\n      swap1\n      pop\n        /* \"#utility.yul\":1443:1512   */\n      tag_90\n        /* \"#utility.yul\":1509:1510   */\n      0x00\n        /* \"#utility.yul\":1498:1507   */\n      dup4\n        /* \"#utility.yul\":1494:1511   */\n      add\n        /* \"#utility.yul\":1485:1491   */\n      dup5\n        /* \"#utility.yul\":1443:1512   */\n      tag_47\n      jump\t// in\n    tag_90:\n        /* \"#utility.yul\":1301:1519   */\n      swap3\n      swap2\n      pop\n      pop\n      jump\t// out\n        /* \"#utility.yul\":1525:1643   */\n    tag_48:\n        /* \"#utility.yul\":1612:1636   */\n      tag_92\n        /* \"#utility.yul\":1630:1635   */\n      dup2\n        /* \"#utility.yul\":1612:1636   */\n      tag_43\n      jump\t// in\n    tag_92:\n        /* \"#utility.yul\":1607:1610   */\n      dup3\n        /* \"#utility.yul\":1600:1637   */\n      mstore\n        /* \"#utility.yul\":1525:1643   */\n      pop\n      pop\n      jump\t// out\n        /* \"#utility.yul\":1649:1871   */\n    tag_18:\n        /* \"#utility.yul\":1742:1746   */\n      0x00\n        /* \"#utility.yul\":1780:1782   */\n      0x20\n        /* \"#utility.yul\":1769:1778   */\n      dup3\n        /* \"#utility.yul\":1765:1783   */\n      add\n        /* \"#utility.yul\":1757:1783   */\n      swap1\n      pop\n        /* \"#utility.yul\":1793:1864   */\n      tag_94\n        /* \"#utility.yul\":1861:1862   */\n      0x00\n        /* \"#utility.yul\":1850:1859   */\n      dup4\n        /* \"#utility.yul\":1846:1863   */\n      add\n        /* \"#utility.yul\":1837:1843   */\n      dup5\n        /* \"#utility.yul\":1793:1864   */\n      tag_48\n      jump\t// in\n    tag_94:\n        /* \"#utility.yul\":1649:1871   */\n      swap3\n      swap2\n      pop\n      pop\n      jump\t// out\n        /* \"#utility.yul\":1877:1975   */\n    tag_49:\n        /* \"#utility.yul\":1928:1934   */\n      0x00\n        /* \"#utility.yul\":1962:1967   */\n      dup2\n        /* \"#utility.yul\":1956:1968   */\n      mload\n        /* \"#utility.yul\":1946:1968   */\n      swap1\n      pop\n        /* \"#utility.yul\":1877:1975   */\n      swap2\n      swap1\n      pop\n      jump\t// out\n        /* \"#utility.yul\":1981:2149   */\n    tag_50:\n        /* \"#utility.yul\":2064:2075   */\n      0x00\n        /* \"#utility.yul\":2098:2104   */\n      dup3\n        /* \"#utility.yul\":2093:2096   */\n      dup3\n        /* \"#utility.yul\":2086:2105   */\n      mstore\n        /* \"#utility.yul\":2138:2142   */\n      0x20\n        /* \"#utility.yul\":2133:2136   */\n      dup3\n        /* \"#utility.yul\":2129:2143   */\n      add\n        /* \"#utility.yul\":2114:2143   */\n      swap1\n      pop\n        /* \"#utility.yul\":1981:2149   */\n      swap3\n      swap2\n      pop\n      pop\n      jump\t// out\n        /* \"#utility.yul\":2155:2401   */\n    tag_51:\n        /* \"#utility.yul\":2236:2237   */\n      0x00\n        /* \"#utility.yul\":2246:2359   */\n    tag_98:\n        /* \"#utility.yul\":2260:2266   */\n      dup4\n        /* \"#utility.yul\":2257:2258   */\n      dup2\n        /* \"#utility.yul\":2254:2267   */\n      lt\n        /* \"#utility.yul\":2246:2359   */\n      iszero\n      tag_100\n      jumpi\n        /* \"#utility.yul\":2345:2346   */\n      dup1\n        /* \"#utility.yul\":2340:2343   */\n      dup3\n        /* \"#utility.yul\":2336:2347   */\n      add\n        /* \"#utility.yul\":2330:2348   */\n      mload\n        /* \"#utility.yul\":2326:2327   */\n      dup2\n        /* \"#utility.yul\":2321:2324   */\n      dup5\n        /* \"#utility.yul\":2317:2328   */\n      add\n        /* \"#utility.yul\":2310:2349   */\n      mstore\n        /* \"#utility.yul\":2282:2284   */\n      0x20\n        /* \"#utility.yul\":2279:2280   */\n      dup2\n        /* \"#utility.yul\":2275:2285   */\n      add\n        /* \"#utility.yul\":2270:2285   */\n      swap1\n      pop\n        /* \"#utility.yul\":2246:2359   */\n      jump(tag_98)\n    tag_100:\n        /* \"#utility.yul\":2393:2394   */\n      0x00\n        /* \"#utility.yul\":2384:2390   */\n      dup5\n        /* \"#utility.yul\":2379:2382   */\n      dup5\n        /* \"#utility.yul\":2375:2391   */\n      add\n        /* \"#utility.yul\":2368:2395   */\n      mstore\n        /* \"#utility.yul\":2217:2401   */\n      pop\n        /* \"#utility.yul\":2155:2401   */\n      pop\n      pop\n      pop\n      jump\t// out\n        /* \"#utility.yul\":2407:2509   */\n    tag_52:\n        /* \"#utility.yul\":2448:2454   */\n      0x00\n        /* \"#utility.yul\":2499:2501   */\n      0x1f\n        /* \"#utility.yul\":2495:2502   */\n      not\n        /* \"#utility.yul\":2490:2492   */\n      0x1f\n        /* \"#utility.yul\":2483:2488   */\n      dup4\n        /* \"#utility.yul\":2479:2493   */\n      add\n        /* \"#utility.yul\":2475:2503   */\n      and\n        /* \"#utility.yul\":2465:2503   */\n      swap1\n      pop\n        /* \"#utility.yul\":2407:2509   */\n      swap2\n      swap1\n      pop\n      jump\t// out\n        /* \"#utility.yul\":2515:2888   */\n    tag_53:\n        /* \"#utility.yul\":2601:2604   */\n      0x00\n        /* \"#utility.yul\":2629:2667   */\n      tag_103\n        /* \"#utility.yul\":2661:2666   */\n      dup3\n        /* \"#utility.yul\":2629:2667   */\n      tag_49\n      jump\t// in\n    tag_103:\n        /* \"#utility.yul\":2683:2753   */\n      tag_104\n        /* \"#utility.yul\":2746:2752   */\n      dup2\n        /* \"#utility.yul\":2741:2744   */\n      dup6\n        /* \"#utility.yul\":2683:2753   */\n      tag_50\n      jump\t// in\n    tag_104:\n        /* \"#utility.yul\":2676:2753   */\n      swap4\n      pop\n        /* \"#utility.yul\":2762:2827   */\n      tag_105\n        /* \"#utility.yul\":2820:2826   */\n      dup2\n        /* \"#utility.yul\":2815:2818   */\n      dup6\n        /* \"#utility.yul\":2808:2812   */\n      0x20\n        /* \"#utility.yul\":2801:2806   */\n      dup7\n        /* \"#utility.yul\":2797:2813   */\n      add\n        /* \"#utility.yul\":2762:2827   */\n      tag_51\n      jump\t// in\n    tag_105:\n        /* \"#utility.yul\":2852:2881   */\n      tag_106\n        /* \"#utility.yul\":2874:2880   */\n      dup2\n        /* \"#utility.yul\":2852:2881   */\n      tag_52\n      jump\t// in\n    tag_106:\n        /* \"#utility.yul\":2847:2850   */\n      dup5\n        /* \"#utility.yul\":2843:2882   */\n      add\n        /* \"#utility.yul\":2836:2882   */\n      swap2\n      pop\n        /* \"#utility.yul\":2605:2888   */\n      pop\n        /* \"#utility.yul\":2515:2888   */\n      swap3\n      swap2\n      pop\n      pop\n      jump\t// out\n        /* \"#utility.yul\":2894:3203   */\n    tag_22:\n        /* \"#utility.yul\":3005:3009   */\n      0x00\n        /* \"#utility.yul\":3043:3045   */\n      0x20\n        /* \"#utility.yul\":3032:3041   */\n      dup3\n        /* \"#utility.yul\":3028:3046   */\n      add\n        /* \"#utility.yul\":3020:3046   */\n      swap1\n      pop\n        /* \"#utility.yul\":3092:3101   */\n      dup2\n        /* \"#utility.yul\":3086:3090   */\n      dup2\n        /* \"#utility.yul\":3082:3102   */\n      sub\n        /* \"#utility.yul\":3078:3079   */\n      0x00\n        /* \"#utility.yul\":3067:3076   */\n      dup4\n        /* \"#utility.yul\":3063:3080   */\n      add\n        /* \"#utility.yul\":3056:3103   */\n      mstore\n        /* \"#utility.yul\":3120:3196   */\n      tag_108\n        /* \"#utility.yul\":3191:3195   */\n      dup2\n        /* \"#utility.yul\":3182:3188   */\n      dup5\n        /* \"#utility.yul\":3120:3196   */\n      tag_53\n      jump\t// in\n    tag_108:\n        /* \"#utility.yul\":3112:3196   */\n      swap1\n      pop\n        /* \"#utility.yul\":2894:3203   */\n      swap3\n      swap2\n      pop\n      pop\n      jump\t// out\n        /* \"#utility.yul\":3209:3308   */\n    tag_54:\n        /* \"#utility.yul\":3261:3267   */\n      0x00\n        /* \"#utility.yul\":3295:3300   */\n      dup2\n        /* \"#utility.yul\":3289:3301   */\n      mload\n        /* \"#utility.yul\":3279:3301   */\n      swap1\n      pop\n        /* \"#utility.yul\":3209:3308   */\n      swap2\n      swap1\n      pop\n      jump\t// out\n        /* \"#utility.yul\":3314:3494   */\n    tag_55:\n        /* \"#utility.yul\":3362:3439   */\n      0x4e487b7100000000000000000000000000000000000000000000000000000000\n        /* \"#utility.yul\":3359:3360   */\n      0x00\n        /* \"#utility.yul\":3352:3440   */\n      mstore\n        /* \"#utility.yul\":3459:3463   */\n      0x41\n        /* \"#utility.yul\":3456:3457   */\n      0x04\n        /* \"#utility.yul\":3449:3464   */\n      mstore\n        /* \"#utility.yul\":3483:3487   */\n      0x24\n        /* \"#utility.yul\":3480:3481   */\n      0x00\n        /* \"#utility.yul\":3473:3488   */\n      revert\n        /* \"#utility.yul\":3500:3680   */\n    tag_56:\n        /* \"#utility.yul\":3548:3625   */\n      0x4e487b7100000000000000000000000000000000000000000000000000000000\n        /* \"#utility.yul\":3545:3546   */\n      0x00\n        /* \"#utility.yul\":3538:3626   */\n      mstore\n        /* \"#utility.yul\":3645:3649   */\n      0x22\n        /* \"#utility.yul\":3642:3643   */\n      0x04\n        /* \"#utility.yul\":3635:3650   */\n      mstore\n        /* \"#utility.yul\":3669:3673   */\n      0x24\n        /* \"#utility.yul\":3666:3667   */\n      0x00\n        /* \"#utility.yul\":3659:3674   */\n      revert\n        /* \"#utility.yul\":3686:4006   */\n    tag_28:\n        /* \"#utility.yul\":3730:3736   */\n      0x00\n        /* \"#utility.yul\":3767:3768   */\n      0x02\n        /* \"#utility.yul\":3761:3765   */\n      dup3\n        /* \"#utility.yul\":3757:3769   */\n      div\n        /* \"#utility.yul\":3747:3769   */\n      swap1\n      pop\n        /* \"#utility.yul\":3814:3815   */\n      0x01\n        /* \"#utility.yul\":3808:3812   */\n      dup3\n        /* \"#utility.yul\":3804:3816   */\n      and\n        /* \"#utility.yul\":3835:3853   */\n      dup1\n        /* \"#utility.yul\":3825:3906   */\n      tag_113\n      jumpi\n        /* \"#utility.yul\":3891:3895   */\n      0x7f\n        /* \"#utility.yul\":3883:3889   */\n      dup3\n        /* \"#utility.yul\":3879:3896   */\n      and\n        /* \"#utility.yul\":3869:3896   */\n      swap2\n      pop\n        /* \"#utility.yul\":3825:3906   */\n    tag_113:\n        /* \"#utility.yul\":3953:3955   */\n      0x20\n        /* \"#utility.yul\":3945:3951   */\n      dup3\n        /* \"#utility.yul\":3942:3956   */\n      lt\n        /* \"#utility.yul\":3922:3940   */\n      dup2\n        /* \"#utility.yul\":3919:3957   */\n      sub\n        /* \"#utility.yul\":3916:4000   */\n      tag_114\n      jumpi\n        /* \"#utility.yul\":3972:3990   */\n      tag_115\n      tag_56\n      jump\t// in\n    tag_115:\n        /* \"#utility.yul\":3916:4000   */\n    tag_114:\n        /* \"#utility.yul\":3737:4006   */\n      pop\n        /* \"#utility.yul\":3686:4006   */\n      swap2\n      swap1\n      pop\n      jump\t// out\n        /* \"#utility.yul\":4012:4152   */\n    tag_57:\n        /* \"#utility.yul\":4060:4064   */\n      0x00\n        /* \"#utility.yul\":4083:4086   */\n      dup2\n        /* \"#utility.yul\":4075:4086   */\n      swap1\n      pop\n        /* \"#utility.yul\":4106:4109   */\n      dup2\n        /* \"#utility.yul\":4103:4104   */\n      0x00\n        /* \"#utility.yul\":4096:4110   */\n      mstore\n        /* \"#utility.yul\":4140:4144   */\n      0x20\n        /* \"#utility.yul\":4137:4138   */\n      0x00\n        /* \"#utility.yul\":4127:4145   */\n      keccak256\n        /* \"#utility.yul\":4119:4145   */\n      swap1\n      pop\n        /* \"#utility.yul\":4012:4152   */\n      swap2\n      swap1\n      pop\n      jump\t// out\n        /* \"#utility.yul\":4158:4251   */\n    tag_58:\n        /* \"#utility.yul\":4195:4201   */\n      0x00\n        /* \"#utility.yul\":4242:4244   */\n      0x20\n        /* \"#utility.yul\":4237:4239   */\n      0x1f\n        /* \"#utility.yul\":4230:4235   */\n      dup4\n        /* \"#utility.yul\":4226:4240   */\n      add\n        /* \"#utility.yul\":4222:4245   */\n      div\n        /* \"#utility.yul\":4212:4245   */\n      swap1\n      pop\n        /* \"#utility.yul\":4158:4251   */\n      swap2\n      swap1\n      pop\n      jump\t// out\n        /* \"#utility.yul\":4257:4364   */\n    tag_59:\n        /* \"#utility.yul\":4301:4309   */\n      0x00\n        /* \"#utility.yul\":4351:4356   */\n      dup3\n        /* \"#utility.yul\":4345:4349   */\n      dup3\n        /* \"#utility.yul\":4341:4357   */\n      shl\n        /* \"#utility.yul\":4320:4357   */\n      swap1\n      pop\n        /* \"#utility.yul\":4257:4364   */\n      swap3\n      swap2\n      pop\n      pop\n      jump\t// out\n        /* \"#utility.yul\":4370:4763   */\n    tag_60:\n        /* \"#utility.yul\":4439:4445   */\n      0x00\n        /* \"#utility.yul\":4489:4490   */\n      0x08\n        /* \"#utility.yul\":4477:4487   */\n      dup4\n        /* \"#utility.yul\":4473:4491   */\n      mul\n        /* \"#utility.yul\":4512:4609   */\n      tag_120\n        /* \"#utility.yul\":4542:4608   */\n      0xffffffffffffffffffffffffffffffffffffffffffffffffffffffffffffffff\n        /* \"#utility.yul\":4531:4540   */\n      dup3\n        /* \"#utility.yul\":4512:4609   */\n      tag_59\n      jump\t// in\n    tag_120:\n        /* \"#utility.yul\":4630:4669   */\n      tag_121\n        /* \"#utility.yul\":4660:4668   */\n      dup7\n        /* \"#utility.yul\":4649:4658   */\n      dup4\n        /* \"#utility.yul\":4630:4669   */\n      tag_59\n      jump\t// in\n    tag_121:\n        /* \"#utility.yul\":4618:4669   */\n      swap6\n      pop\n        /* \"#utility.yul\":4702:4706   */\n      dup1\n        /* \"#utility.yul\":4698:4707   */\n      not\n        /* \"#utility.yul\":4691:4696   */\n      dup5\n        /* \"#utility.yul\":4687:4708   */\n      and\n        /* \"#utility.yul\":4678:4708   */\n      swap4\n      pop\n        /* \"#utility.yul\":4751:4755   */\n      dup1\n        /* \"#utility.yul\":4741:4749   */\n      dup7\n        /* \"#utility.yul\":4737:4756   */\n      and\n        /* \"#utility.yul\":4730:4735   */\n      dup5\n        /* \"#utility.yul\":4727:4757   */\n      or\n        /* \"#utility.yul\":4717:4757   */\n      swap3\n      pop\n        /* \"#utility.yul\":4446:4763   */\n      pop\n      pop\n        /* \"#utility.yul\":4370:4763   */\n      swap4\n      swap3\n      pop\n      pop\n      pop\n      jump\t// out\n        /* \"#utility.yul\":4769:4829   */\n    tag_61:\n        /* \"#utility.yul\":4797:4800   */\n      0x00\n        /* \"#utility.yul\":4818:4823   */\n      dup2\n        /* \"#utility.yul\":4811:4823   */\n      swap1\n      pop\n        /* \"#utility.yul\":4769:4829   */\n      swap2\n      swap1\n      pop\n      jump\t// out\n        /* \"#utility.yul\":4835:4977   */\n    tag_62:\n        /* \"#utility.yul\":4885:4894   */\n      0x00\n        /* \"#utility.yul\":4918:4971   */\n      tag_124\n        /* \"#utility.yul\":4936:4970   */\n      tag_125\n        /* \"#utility.yul\":4945:4969   */\n      tag_126\n        /* \"#utility.yul\":4963:4968   */\n      dup5\n        /* \"#utility.yul\":4945:4969   */\n      tag_43\n      jump\t// in\n    tag_126:\n        /* \"#utility.yul\":4936:4970   */\n      tag_61\n      jump\t// in\n    tag_125:\n        /* \"#utility.yul\":4918:4971   */\n      tag_43\n      jump\t// in\n    tag_124:\n        /* \"#utility.yul\":4905:4971   */\n      swap1\n      pop\n        /* \"#utility.yul\":4835:4977   */\n      swap2\n      swap1\n      pop\n      jump\t// out\n        /* \"#utility.yul\":4983:5058   */\n    tag_63:\n        /* \"#utility.yul\":5026:5029   */\n      0x00\n        /* \"#utility.yul\":5047:5052   */\n      dup2\n        /* \"#utility.yul\":5040:5052   */\n      swap1\n      pop\n        /* \"#utility.yul\":4983:5058   */\n      swap2\n      swap1\n      pop\n      jump\t// out\n        /* \"#utility.yul\":5064:5333   */\n    tag_64:\n        /* \"#utility.yul\":5174:5213   */\n      tag_129\n        /* \"#utility.yul\":5205:5212   */\n      dup4\n        /* \"#utility.yul\":5174:5213   */\n      tag_62\n      jump\t// in\n    tag_129:\n        /* \"#utility.yul\":5235:5326   */\n      tag_130\n        /* \"#utility.yul\":5284:5325   */\n      tag_131\n        /* \"#utility.yul\":5308:5324   */\n      dup3\n        /* \"#utility.yul\":5284:5325   */\n      tag_63\n      jump\t// in\n    tag_131:\n        /* \"#utility.yul\":5276:5282   */\n      dup5\n        /* \"#utility.yul\":5269:5273   */\n      dup5\n        /* \"#utility.yul\":5263:5274   */\n      sload\n        /* \"#utility.yul\":5235:5326   */\n      tag_60\n      jump\t// in\n    tag_130:\n        /* \"#utility.yul\":5229:5233   */\n      dup3\n        /* \"#utility.yul\":5222:5327   */\n      sstore\n        /* \"#utility.yul\":5140:5333   */\n      pop\n        /* \"#utility.yul\":5064:5333   */\n      pop\n      pop\n      pop\n      jump\t// out\n        /* \"#utility.yul\":5339:5412   */\n    tag_65:\n        /* \"#utility.yul\":5384:5387   */\n      0x00\n        /* \"#utility.yul\":5339:5412   */\n      swap1\n      jump\t// out\n        /* \"#utility.yul\":5418:5607   */\n    tag_66:\n        /* \"#utility.yul\":5495:5527   */\n      tag_134\n      tag_65\n      jump\t// in\n    tag_134:\n        /* \"#utility.yul\":5536:5601   */\n      tag_135\n        /* \"#utility.yul\":5594:5600   */\n      dup2\n        /* \"#utility.yul\":5586:5592   */\n      dup5\n        /* \"#utility.yul\":5580:5584   */\n      dup5\n        /* \"#utility.yul\":5536:5601   */\n      tag_64\n      jump\t// in\n    tag_135:\n        /* \"#utility.yul\":5471:5607   */\n      pop\n        /* \"#utility.yul\":5418:5607   */\n      pop\n      pop\n      jump\t// out\n        /* \"#utility.yul\":5613:5799   */\n    tag_67:\n        /* \"#utility.yul\":5673:5793   */\n    tag_137:\n        /* \"#utility.yul\":5690:5693   */\n      dup2\n        /* \"#utility.yul\":5683:5688   */\n      dup2\n        /* \"#utility.yul\":5680:5694   */\n      lt\n        /* \"#utility.yul\":5673:5793   */\n      iszero\n      tag_139\n      jumpi\n        /* \"#utility.yul\":5744:5783   */\n      tag_140\n        /* \"#utility.yul\":5781:5782   */\n      0x00\n        /* \"#utility.yul\":5774:5779   */\n      dup3\n        /* \"#utility.yul\":5744:5783   */\n      tag_66\n      jump\t// in\n    tag_140:\n        /* \"#utility.yul\":5717:5718   */\n      0x01\n        /* \"#utility.yul\":5710:5715   */\n      dup2\n        /* \"#utility.yul\":5706:5719   */\n      add\n        /* \"#utility.yul\":5697:5719   */\n      swap1\n      pop\n        /* \"#utility.yul\":5673:5793   */\n      jump(tag_137)\n    tag_139:\n        /* \"#utility.yul\":5613:5799   */\n      pop\n      pop\n      jump\t// out\n        /* \"#utility.yul\":5805:6346   */\n    tag_68:\n        /* \"#utility.yul\":5905:5907   */\n      0x1f\n        /* \"#utility.yul\":5900:5903   */\n      dup3\n        /* \"#utility.yul\":5897:5908   */\n      gt\n        /* \"#utility.yul\":5894:6339   */\n      iszero\n      tag_142\n      jumpi\n        /* \"#utility.yul\":5939:5976   */\n      tag_143\n        /* \"#utility.yul\":5970:5975   */\n      dup2\n        /* \"#utility.yul\":5939:5976   */\n      tag_57\n      jump\t// in\n    tag_143:\n        /* \"#utility.yul\":6022:6051   */\n      tag_144\n        /* \"#utility.yul\":6040:6050   */\n      dup5\n        /* \"#utility.yul\":6022:6051   */\n      tag_58\n      jump\t// in\n    tag_144:\n        /* \"#utility.yul\":6012:6020   */\n      dup2\n        /* \"#utility.yul\":6008:6052   */\n      add\n        /* \"#utility.yul\":6205:6207   */\n      0x20\n        /* \"#utility.yul\":6193:6203   */\n      dup6\n        /* \"#utility.yul\":6190:6208   */\n      lt\n        /* \"#utility.yul\":6187:6236   */\n      iszero\n      tag_145\n      jumpi\n        /* \"#utility.yul\":6226:6234   */\n      dup2\n        /* \"#utility.yul\":6211:6234   */\n      swap1\n      pop\n        /* \"#utility.yul\":6187:6236   */\n    tag_145:\n        /* \"#utility.yul\":6249:6329   */\n      tag_146\n        /* \"#utility.yul\":6305:6327   */\n      tag_147\n        /* \"#utility.yul\":6323:6326   */\n      dup6\n        /* \"#utility.yul\":6305:6327   */\n      tag_58\n      jump\t// in\n    tag_147:\n        /* \"#utility.yul\":6295:6303   */\n      dup4\n        /* \"#utility.yul\":6291:6328   */\n      add\n        /* \"#utility.yul\":6278:6289   */\n      dup3\n        /* \"#utility.yul\":6249:6329   */\n      tag_67\n      jump\t// in\n    tag_146:\n        /* \"#utility.yul\":5909:6339   */\n      pop\n      pop\n        /* \"#utility.yul\":5894:6339   */\n    tag_142:\n        /* \"#utility.yul\":5805:6346   */\n      pop\n      pop\n      pop\n      jump\t// out\n        /* \"#utility.yul\":6352:6469   */\n    tag_69:\n        /* \"#utility.yul\":6406:6414   */\n      0x00\n        /* \"#utility.yul\":6456:6461   */\n      dup3\n        /* \"#utility.yul\":6450:6454   */\n      dup3\n        /* \"#utility.yul\":6446:6462   */\n      shr\n        /* \"#utility.yul\":6425:6462   */\n      swap1\n      pop\n        /* \"#utility.yul\":6352:6469   */\n      swap3\n      swap2\n      pop\n      pop\n      jump\t// out\n        /* \"#utility.yul\":6475:6644   */\n    tag_70:\n        /* \"#utility.yul\":6519:6525   */\n      0x00\n        /* \"#utility.yul\":6552:6603   */\n      tag_150\n        /* \"#utility.yul\":6600:6601   */\n      0x00\n        /* \"#utility.yul\":6596:6602   */\n      not\n        /* \"#utility.yul\":6588:6593   */\n      dup5\n        /* \"#utility.yul\":6585:6586   */\n      0x08\n        /* \"#utility.yul\":6581:6594   */\n      mul\n        /* \"#utility.yul\":6552:6603   */\n      tag_69\n      jump\t// in\n    tag_150:\n        /* \"#utility.yul\":6548:6604   */\n      not\n        /* \"#utility.yul\":6633:6637   */\n      dup1\n        /* \"#utility.yul\":6627:6631   */\n      dup4\n        /* \"#utility.yul\":6623:6638   */\n      and\n        /* \"#utility.yul\":6613:6638   */\n      swap2\n      pop\n        /* \"#utility.yul\":6526:6644   */\n      pop\n        /* \"#utility.yul\":6475:6644   */\n      swap3\n      swap2\n      pop\n      pop\n      jump\t// out\n        /* \"#utility.yul\":6649:6944   */\n    tag_71:\n        /* \"#utility.yul\":6725:6729   */\n      0x00\n        /* \"#utility.yul\":6871:6900   */\n      tag_152\n        /* \"#utility.yul\":6896:6899   */\n      dup4\n        /* \"#utility.yul\":6890:6894   */\n      dup4\n        /* \"#utility.yul\":6871:6900   */\n      tag_70\n      jump\t// in\n    tag_152:\n        /* \"#utility.yul\":6863:6900   */\n      swap2\n      pop\n        /* \"#utility.yul\":6933:6936   */\n      dup3\n        /* \"#utility.yul\":6930:6931   */\n      0x02\n        /* \"#utility.yul\":6926:6937   */\n      mul\n        /* \"#utility.yul\":6920:6924   */\n      dup3\n        /* \"#utility.yul\":6917:6938   */\n      or\n        /* \"#utility.yul\":6909:6938   */\n      swap1\n      pop\n        /* \"#utility.yul\":6649:6944   */\n      swap3\n      swap2\n      pop\n      pop\n      jump\t// out\n        /* \"#utility.yul\":6949:8341   */\n    tag_25:\n        /* \"#utility.yul\":7065:7102   */\n      tag_154\n        /* \"#utility.yul\":7098:7101   */\n      dup3\n        /* \"#utility.yul\":7065:7102   */\n      tag_54\n      jump\t// in\n    tag_154:\n        /* \"#utility.yul\":7167:7185   */\n      0xffffffffffffffff\n        /* \"#utility.yul\":7159:7165   */\n      dup2\n        /* \"#utility.yul\":7156:7186   */\n      gt\n        /* \"#utility.yul\":7153:7209   */\n      iszero\n      tag_155\n      jumpi\n        /* \"#utility.yul\":7189:7207   */\n      tag_156\n      tag_55\n      jump\t// in\n    tag_156:\n        /* \"#utility.yul\":7153:7209   */\n    tag_155:\n        /* \"#utility.yul\":7233:7271   */\n      tag_157\n        /* \"#utility.yul\":7265:7269   */\n      dup3\n        /* \"#utility.yul\":7259:7270   */\n      sload\n        /* \"#utility.yul\":7233:7271   */\n      tag_28\n      jump\t// in\n    tag_157:\n        /* \"#utility.yul\":7318:7384   */\n      tag_158\n        /* \"#utility.yul\":7377:7383   */\n      dup3\n        /* \"#utility.yul\":7369:7375   */\n      dup3\n        /* \"#utility.yul\":7363:7367   */\n      dup6\n        /* \"#utility.yul\":7318:7384   */\n      tag_68\n      jump\t// in\n    tag_158:\n        /* \"#utility.yul\":7411:7412   */\n      0x00\n        /* \"#utility.yul\":7435:7439   */\n      0x20\n        /* \"#utility.yul\":7422:7439   */\n      swap1\n      pop\n        /* \"#utility.yul\":7467:7469   */\n      0x1f\n        /* \"#utility.yul\":7459:7465   */\n      dup4\n        /* \"#utility.yul\":7456:7470   */\n      gt\n        /* \"#utility.yul\":7484:7485   */\n      0x01\n        /* \"#utility.yul\":7479:8096   */\n      dup2\n      eq\n      tag_160\n      jumpi\n        /* \"#utility.yul\":8140:8141   */\n      0x00\n        /* \"#utility.yul\":8157:8163   */\n      dup5\n        /* \"#utility.yul\":8154:8231   */\n      iszero\n      tag_161\n      jumpi\n        /* \"#utility.yul\":8206:8215   */\n      dup3\n        /* \"#utility.yul\":8201:8204   */\n      dup8\n        /* \"#utility.yul\":8197:8216   */\n      add\n        /* \"#utility.yul\":8191:8217   */\n      mload\n        /* \"#utility.yul\":8182:8217   */\n      swap1\n      pop\n        /* \"#utility.yul\":8154:8231   */\n    tag_161:\n        /* \"#utility.yul\":8257:8324   */\n      tag_162\n        /* \"#utility.yul\":8317:8323   */\n      dup6\n        /* \"#utility.yul\":8310:8315   */\n      dup3\n        /* \"#utility.yul\":8257:8324   */\n      tag_71\n      jump\t// in\n    tag_162:\n        /* \"#utility.yul\":8251:8255   */\n      dup7\n        /* \"#utility.yul\":8244:8325   */\n      sstore\n        /* \"#utility.yul\":8113:8335   */\n      pop\n        /* \"#utility.yul\":7449:8335   */\n      jump(tag_159)\n        /* \"#utility.yul\":7479:8096   */\n    tag_160:\n        /* \"#utility.yul\":7531:7535   */\n      0x1f\n        /* \"#utility.yul\":7527:7536   */\n      not\n        /* \"#utility.yul\":7519:7525   */\n      dup5\n        /* \"#utility.yul\":7515:7537   */\n      and\n        /* \"#utility.yul\":7565:7601   */\n      tag_163\n        /* \"#utility.yul\":7596:7600   */\n      dup7\n        /* \"#utility.yul\":7565:7601   */\n      tag_57\n      jump\t// in\n    tag_163:\n        /* \"#utility.yul\":7623:7624   */\n      0x00\n        /* \"#utility.yul\":7637:7845   */\n    tag_164:\n        /* \"#utility.yul\":7651:7658   */\n      dup3\n        /* \"#utility.yul\":7648:7649   */\n      dup2\n        /* \"#utility.yul\":7645:7659   */\n      lt\n        /* \"#utility.yul\":7637:7845   */\n      iszero\n      tag_166\n      jumpi\n        /* \"#utility.yul\":7730:7739   */\n      dup5\n        /* \"#utility.yul\":7725:7728   */\n      dup10\n        /* \"#utility.yul\":7721:7740   */\n      add\n        /* \"#utility.yul\":7715:7741   */\n      mload\n        /* \"#utility.yul\":7707:7713   */\n      dup3\n        /* \"#utility.yul\":7700:7742   */\n      sstore\n        /* \"#utility.yul\":7781:7782   */\n      0x01\n        /* \"#utility.yul\":7773:7779   */\n      dup3\n        /* \"#utility.yul\":7769:7783   */\n      add\n        /* \"#utility.yul\":7759:7783   */\n      swap2\n      pop\n        /* \"#utility.yul\":7828:7830   */\n      0x20\n        /* \"#utility.yul\":7817:7826   */\n      dup6\n        /* \"#utility.yul\":7813:7831   */\n      add\n        /* \"#utility.yul\":7800:7831   */\n      swap5\n      pop\n        /* \"#utility.yul\":7674:7678   */\n      0x20\n        /* \"#utility.yul\":7671:7672   */\n      dup2\n        /* \"#utility.yul\":7667:7679   */\n      add\n        /* \"#utility.yul\":7662:7679   */\n      swap1\n      pop\n        /* \"#utility.yul\":7637:7845   */\n      jump(tag_164)\n    tag_166:\n        /* \"#utility.yul\":7873:7879   */\n      dup7\n        /* \"#utility.yul\":7864:7871   */\n      dup4\n        /* \"#utility.yul\":7861:7880   */\n      lt\n        /* \"#utility.yul\":7858:8037   */\n      iszero\n      tag_167\n      jumpi\n        /* \"#utility.yul\":7931:7940   */\n      dup5\n        /* \"#utility.yul\":7926:7929   */\n      dup10\n        /* \"#utility.yul\":7922:7941   */\n      add\n        /* \"#utility.yul\":7916:7942   */\n      mload\n        /* \"#utility.yul\":7974:8022   */\n      tag_168\n        /* \"#utility.yul\":8016:8020   */\n      0x1f\n        /* \"#utility.yul\":8008:8014   */\n      dup10\n        /* \"#utility.yul\":8004:8021   */\n      and\n        /* \"#utility.yul\":7993:8002   */\n      dup3\n        /* \"#utility.yul\":7974:8022   */\n      tag_70\n      jump\t// in\n    tag_168:\n        /* \"#utility.yul\":7966:7972   */\n      dup4\n        /* \"#utility.yul\":7959:8023   */\n      sstore\n        /* \"#utility.yul\":7881:8037   */\n      pop\n        /* \"#utility.yul\":7858:8037   */\n    tag_167:\n        /* \"#utility.yul\":8083:8084   */\n      0x01\n        /* \"#utility.yul\":8079:8080   */\n      0x02\n        /* \"#utility.yul\":8071:8077   */\n      dup9\n        /* \"#utility.yul\":8067:8081   */\n      mul\n        /* \"#utility.yul\":8063:8085   */\n      add\n        /* \"#utility.yul\":8057:8061   */\n      dup9\n        /* \"#utility.yul\":8050:8086   */\n      sstore\n        /* \"#utility.yul\":7486:8096   */\n      pop\n      pop\n      pop\n        /* \"#utility.yul\":7449:8335   */\n    tag_159:\n      pop\n        /* \"#utility.yul\":7040:8341   */\n      pop\n      pop\n      pop\n        /* \"#utility.yul\":6949:8341   */\n      pop\n      pop\n      jump\t// out\n        /* \"#utility.yul\":8347:8527   */\n    tag_31:\n        /* \"#utility.yul\":8395:8472   */\n      0x4e487b7100000000000000000000000000000000000000000000000000000000\n        /* \"#utility.yul\":8392:8393   */\n      0x00\n        /* \"#utility.yul\":8385:8473   */\n      mstore\n        /* \"#utility.yul\":8492:8496   */\n      0x32\n        /* \"#utility.yul\":8489:8490   */\n      0x04\n        /* \"#utility.yul\":8482:8497   */\n      mstore\n        /* \"#utility.yul\":8516:8520   */\n      0x24\n        /* \"#utility.yul\":8513:8514   */\n      0x00\n        /* \"#utility.yul\":8506:8521   */\n      revert\n\n    auxdata: 0xa2646970667358221220ecfe525698cb013213d0fc68359287bc5788d0507dd86d26dc0335e62337456464736f6c63430008180033\n}\n",
				"bytecode": {
					"linkReferences": {},
					"object": "60806040526040518060400160405280600381526020017f61626300000000000000000000000000000000000000000000000000000000008152505f9081620000499190620002c1565b5034801562000056575f80fd5b50620003a5565b5f81519050919050565b7f4e487b71000000000000000000000000000000000000000000000000000000005f52604160045260245ffd5b7f4e487b71000000000000000000000000000000000000000000000000000000005f52602260045260245ffd5b5f6002820490506001821680620000d957607f821691505b602082108103620000ef57620000ee62000094565b5b50919050565b5f819050815f5260205f209050919050565b5f6020601f8301049050919050565b5f82821b905092915050565b5f60088302620001537fffffffffffffffffffffffffffffffffffffffffffffffffffffffffffffffff8262000116565b6200015f868362000116565b95508019841693508086168417925050509392505050565b5f819050919050565b5f819050919050565b5f620001a9620001a36200019d8462000177565b62000180565b62000177565b9050919050565b5f819050919050565b620001c48362000189565b620001dc620001d382620001b0565b84845462000122565b825550505050565b5f90565b620001f2620001e4565b620001ff818484620001b9565b505050565b5b8181101562000226576200021a5f82620001e8565b60018101905062000205565b5050565b601f82111562000275576200023f81620000f5565b6200024a8462000107565b810160208510156200025a578190505b62000272620002698562000107565b83018262000204565b50505b505050565b5f82821c905092915050565b5f620002975f19846008026200027a565b1980831691505092915050565b5f620002b1838362000286565b9150826002028217905092915050565b620002cc826200005d565b67ffffffffffffffff811115620002e857620002e762000067565b5b620002f48254620000c1565b620003018282856200022a565b5f60209050601f83116001811462000337575f841562000322578287015190505b6200032e8582620002a4565b8655506200039d565b601f1984166200034786620000f5565b5f5b82811015620003705784890151825560018201915060208501945060208101905062000349565b868310156200039057848901516200038c601f89168262000286565b8355505b6001600288020188555050505b505050505050565b6106fa80620003b35f395ff3fe608060405234801561000f575f80fd5b506004361061004a575f3560e01c80633f3108f71461004e57806394cad55d14610058578063be1c766b14610088578063e81d53cf146100a6575b5f80fd5b6100566100c4565b005b610072600480360381019061006d9190610247565b61010a565b60405161007f91906102ac565b60405180910390f35b610090610171565b60405161009d91906102d4565b60405180910390f35b6100ae610185565b6040516100bb9190610377565b60405180910390f35b6040518060400160405280600481526020017f61626364000000000000000000000000000000000000000000000000000000008152505f908161010791906105c8565b50565b5f80828154610118906103fb565b811061012757610126610697565b5b81546001161561014457905f5260205f2090602091828204019190065b9054901a7f0100000000000000000000000000000000000000000000000000000000000000029050919050565b5f80805461017e906103fb565b9050905090565b5f8054610191906103fb565b80601f01602080910402602001604051908101604052809291908181526020018280546101bd906103fb565b80156102085780601f106101df57610100808354040283529160200191610208565b820191905f5260205f20905b8154815290600101906020018083116101eb57829003601f168201915b505050505081565b5f80fd5b5f819050919050565b61022681610214565b8114610230575f80fd5b50565b5f813590506102418161021d565b92915050565b5f6020828403121561025c5761025b610210565b5b5f61026984828501610233565b91505092915050565b5f7fff0000000000000000000000000000000000000000000000000000000000000082169050919050565b6102a681610272565b82525050565b5f6020820190506102bf5f83018461029d565b92915050565b6102ce81610214565b82525050565b5f6020820190506102e75f8301846102c5565b92915050565b5f81519050919050565b5f82825260208201905092915050565b5f5b83811015610324578082015181840152602081019050610309565b5f8484015250505050565b5f601f19601f8301169050919050565b5f610349826102ed565b61035381856102f7565b9350610363818560208601610307565b61036c8161032f565b840191505092915050565b5f6020820190508181035f83015261038f818461033f565b905092915050565b5f81519050919050565b7f4e487b71000000000000000000000000000000000000000000000000000000005f52604160045260245ffd5b7f4e487b71000000000000000000000000000000000000000000000000000000005f52602260045260245ffd5b5f600282049050600182168061041257607f821691505b602082108103610425576104246103ce565b5b50919050565b5f819050815f5260205f209050919050565b5f6020601f8301049050919050565b5f82821b905092915050565b5f600883026104877fffffffffffffffffffffffffffffffffffffffffffffffffffffffffffffffff8261044c565b610491868361044c565b95508019841693508086168417925050509392505050565b5f819050919050565b5f6104cc6104c76104c284610214565b6104a9565b610214565b9050919050565b5f819050919050565b6104e5836104b2565b6104f96104f1826104d3565b848454610458565b825550505050565b5f90565b61050d610501565b6105188184846104dc565b505050565b5b8181101561053b576105305f82610505565b60018101905061051e565b5050565b601f821115610580576105518161042b565b61055a8461043d565b81016020851015610569578190505b61057d6105758561043d565b83018261051d565b50505b505050565b5f82821c905092915050565b5f6105a05f1984600802610585565b1980831691505092915050565b5f6105b88383610591565b9150826002028217905092915050565b6105d182610397565b67ffffffffffffffff8111156105ea576105e96103a1565b5b6105f482546103fb565b6105ff82828561053f565b5f60209050601f831160018114610630575f841561061e578287015190505b61062885826105ad565b86555061068f565b601f19841661063e8661042b565b5f5b8281101561066557848901518255600182019150602085019450602081019050610640565b86831015610682578489015161067e601f891682610591565b8355505b6001600288020188555050505b505050505050565b7f4e487b71000000000000000000000000000000000000000000000000000000005f52603260045260245ffdfea2646970667358221220ecfe525698cb013213d0fc68359287bc5788d0507dd86d26dc0335e62337456464736f6c63430008180033",
					"opcodes": "PUSH1 0x80 PUSH1 0x40 MSTORE PUSH1 0x40 MLOAD DUP1 PUSH1 0x40 ADD PUSH1 0x40 MSTORE DUP1 PUSH1 0x3 DUP2 MSTORE PUSH1 0x20 ADD PUSH32 0x6162630000000000000000000000000000000000000000000000000000000000 DUP2 MSTORE POP PUSH0 SWAP1 DUP2 PUSH3 0x49 SWAP2 SWAP1 PUSH3 0x2C1 JUMP JUMPDEST POP CALLVALUE DUP1 ISZERO PUSH3 0x56 JUMPI PUSH0 DUP1 REVERT JUMPDEST POP PUSH3 0x3A5 JUMP JUMPDEST PUSH0 DUP2 MLOAD SWAP1 POP SWAP2 SWAP1 POP JUMP JUMPDEST PUSH32 0x4E487B7100000000000000000000000000000000000000000000000000000000 PUSH0 MSTORE PUSH1 0x41 PUSH1 0x4 MSTORE PUSH1 0x24 PUSH0 REVERT JUMPDEST PUSH32 0x4E487B7100000000000000000000000000000000000000000000000000000000 PUSH0 MSTORE PUSH1 0x22 PUSH1 0x4 MSTORE PUSH1 0x24 PUSH0 REVERT JUMPDEST PUSH0 PUSH1 0x2 DUP3 DIV SWAP1 POP PUSH1 0x1 DUP3 AND DUP1 PUSH3 0xD9 JUMPI PUSH1 0x7F DUP3 AND SWAP2 POP JUMPDEST PUSH1 0x20 DUP3 LT DUP2 SUB PUSH3 0xEF JUMPI PUSH3 0xEE PUSH3 0x94 JUMP JUMPDEST JUMPDEST POP SWAP2 SWAP1 POP JUMP JUMPDEST PUSH0 DUP2 SWAP1 POP DUP2 PUSH0 MSTORE PUSH1 0x20 PUSH0 KECCAK256 SWAP1 POP SWAP2 SWAP1 POP JUMP JUMPDEST PUSH0 PUSH1 0x20 PUSH1 0x1F DUP4 ADD DIV SWAP1 POP SWAP2 SWAP1 POP JUMP JUMPDEST PUSH0 DUP3 DUP3 SHL SWAP1 POP SWAP3 SWAP2 POP POP JUMP JUMPDEST PUSH0 PUSH1 0x8 DUP4 MUL PUSH3 0x153 PUSH32 0xFFFFFFFFFFFFFFFFFFFFFFFFFFFFFFFFFFFFFFFFFFFFFFFFFFFFFFFFFFFFFFFF DUP3 PUSH3 0x116 JUMP JUMPDEST PUSH3 0x15F DUP7 DUP4 PUSH3 0x116 JUMP JUMPDEST SWAP6 POP DUP1 NOT DUP5 AND SWAP4 POP DUP1 DUP7 AND DUP5 OR SWAP3 POP POP POP SWAP4 SWAP3 POP POP POP JUMP JUMPDEST PUSH0 DUP2 SWAP1 POP SWAP2 SWAP1 POP JUMP JUMPDEST PUSH0 DUP2 SWAP1 POP SWAP2 SWAP1 POP JUMP JUMPDEST PUSH0 PUSH3 0x1A9 PUSH3 0x1A3 PUSH3 0x19D DUP5 PUSH3 0x177 JUMP JUMPDEST PUSH3 0x180 JUMP JUMPDEST PUSH3 0x177 JUMP JUMPDEST SWAP1 POP SWAP2 SWAP1 POP JUMP JUMPDEST PUSH0 DUP2 SWAP1 POP SWAP2 SWAP1 POP JUMP JUMPDEST PUSH3 0x1C4 DUP4 PUSH3 0x189 JUMP JUMPDEST PUSH3 0x1DC PUSH3 0x1D3 DUP3 PUSH3 0x1B0 JUMP JUMPDEST DUP5 DUP5 SLOAD PUSH3 0x122 JUMP JUMPDEST DUP3 SSTORE POP POP POP POP JUMP JUMPDEST PUSH0 SWAP1 JUMP JUMPDEST PUSH3 0x1F2 PUSH3 0x1E4 JUMP JUMPDEST PUSH3 0x1FF DUP2 DUP5 DUP5 PUSH3 0x1B9 JUMP JUMPDEST POP POP POP JUMP JUMPDEST JUMPDEST DUP2 DUP2 LT ISZERO PUSH3 0x226 JUMPI PUSH3 0x21A PUSH0 DUP3 PUSH3 0x1E8 JUMP JUMPDEST PUSH1 0x1 DUP2 ADD SWAP1 POP PUSH3 0x205 JUMP JUMPDEST POP POP JUMP JUMPDEST PUSH1 0x1F DUP3 GT ISZERO PUSH3 0x275 JUMPI PUSH3 0x23F DUP2 PUSH3 0xF5 JUMP JUMPDEST PUSH3 0x24A DUP5 PUSH3 0x107 JUMP JUMPDEST DUP2 ADD PUSH1 0x20 DUP6 LT ISZERO PUSH3 0x25A JUMPI DUP2 SWAP1 POP JUMPDEST PUSH3 0x272 PUSH3 0x269 DUP6 PUSH3 0x107 JUMP JUMPDEST DUP4 ADD DUP3 PUSH3 0x204 JUMP JUMPDEST POP POP JUMPDEST POP POP POP JUMP JUMPDEST PUSH0 DUP3 DUP3 SHR SWAP1 POP SWAP3 SWAP2 POP POP JUMP JUMPDEST PUSH0 PUSH3 0x297 PUSH0 NOT DUP5 PUSH1 0x8 MUL PUSH3 0x27A JUMP JUMPDEST NOT DUP1 DUP4 AND SWAP2 POP POP SWAP3 SWAP2 POP POP JUMP JUMPDEST PUSH0 PUSH3 0x2B1 DUP4 DUP4 PUSH3 0x286 JUMP JUMPDEST SWAP2 POP DUP3 PUSH1 0x2 MUL DUP3 OR SWAP1 POP SWAP3 SWAP2 POP POP JUMP JUMPDEST PUSH3 0x2CC DUP3 PUSH3 0x5D JUMP JUMPDEST PUSH8 0xFFFFFFFFFFFFFFFF DUP2 GT ISZERO PUSH3 0x2E8 JUMPI PUSH3 0x2E7 PUSH3 0x67 JUMP JUMPDEST JUMPDEST PUSH3 0x2F4 DUP3 SLOAD PUSH3 0xC1 JUMP JUMPDEST PUSH3 0x301 DUP3 DUP3 DUP6 PUSH3 0x22A JUMP JUMPDEST PUSH0 PUSH1 0x20 SWAP1 POP PUSH1 0x1F DUP4 GT PUSH1 0x1 DUP2 EQ PUSH3 0x337 JUMPI PUSH0 DUP5 ISZERO PUSH3 0x322 JUMPI DUP3 DUP8 ADD MLOAD SWAP1 POP JUMPDEST PUSH3 0x32E DUP6 DUP3 PUSH3 0x2A4 JUMP JUMPDEST DUP7 SSTORE POP PUSH3 0x39D JUMP JUMPDEST PUSH1 0x1F NOT DUP5 AND PUSH3 0x347 DUP7 PUSH3 0xF5 JUMP JUMPDEST PUSH0 JUMPDEST DUP3 DUP2 LT ISZERO PUSH3 0x370 JUMPI DUP5 DUP10 ADD MLOAD DUP3 SSTORE PUSH1 0x1 DUP3 ADD SWAP2 POP PUSH1 0x20 DUP6 ADD SWAP5 POP PUSH1 0x20 DUP2 ADD SWAP1 POP PUSH3 0x349 JUMP JUMPDEST DUP7 DUP4 LT ISZERO PUSH3 0x390 JUMPI DUP5 DUP10 ADD MLOAD PUSH3 0x38C PUSH1 0x1F DUP10 AND DUP3 PUSH3 0x286 JUMP JUMPDEST DUP4 SSTORE POP JUMPDEST PUSH1 0x1 PUSH1 0x2 DUP9 MUL ADD DUP9 SSTORE POP POP POP JUMPDEST POP POP POP POP POP POP JUMP JUMPDEST PUSH2 0x6FA DUP1 PUSH3 0x3B3 PUSH0 CODECOPY PUSH0 RETURN INVALID PUSH1 0x80 PUSH1 0x40 MSTORE CALLVALUE DUP1 ISZERO PUSH2 0xF JUMPI PUSH0 DUP1 REVERT JUMPDEST POP PUSH1 0x4 CALLDATASIZE LT PUSH2 0x4A JUMPI PUSH0 CALLDATALOAD PUSH1 0xE0 SHR DUP1 PUSH4 0x3F3108F7 EQ PUSH2 0x4E JUMPI DUP1 PUSH4 0x94CAD55D EQ PUSH2 0x58 JUMPI DUP1 PUSH4 0xBE1C766B EQ PUSH2 0x88 JUMPI DUP1 PUSH4 0xE81D53CF EQ PUSH2 0xA6 JUMPI JUMPDEST PUSH0 DUP1 REVERT JUMPDEST PUSH2 0x56 PUSH2 0xC4 JUMP JUMPDEST STOP JUMPDEST PUSH2 0x72 PUSH1 0x4 DUP1 CALLDATASIZE SUB DUP2 ADD SWAP1 PUSH2 0x6D SWAP2 SWAP1 PUSH2 0x247 JUMP JUMPDEST PUSH2 0x10A JUMP JUMPDEST PUSH1 0x40 MLOAD PUSH2 0x7F SWAP2 SWAP1 PUSH2 0x2AC JUMP JUMPDEST PUSH1 0x40 MLOAD DUP1 SWAP2 SUB SWAP1 RETURN JUMPDEST PUSH2 0x90 PUSH2 0x171 JUMP JUMPDEST PUSH1 0x40 MLOAD PUSH2 0x9D SWAP2 SWAP1 PUSH2 0x2D4 JUMP JUMPDEST PUSH1 0x40 MLOAD DUP1 SWAP2 SUB SWAP1 RETURN JUMPDEST PUSH2 0xAE PUSH2 0x185 JUMP JUMPDEST PUSH1 0x40 MLOAD PUSH2 0xBB SWAP2 SWAP1 PUSH2 0x377 JUMP JUMPDEST PUSH1 0x40 MLOAD DUP1 SWAP2 SUB SWAP1 RETURN JUMPDEST PUSH1 0x40 MLOAD DUP1 PUSH1 0x40 ADD PUSH1 0x40 MSTORE DUP1 PUSH1 0x4 DUP2 MSTORE PUSH1 0x20 ADD PUSH32 0x6162636400000000000000000000000000000000000000000000000000000000 DUP2 MSTORE POP PUSH0 SWAP1 DUP2 PUSH2 0x107 SWAP2 SWAP1 PUSH2 0x5C8 JUMP JUMPDEST POP JUMP JUMPDEST PUSH0 DUP1 DUP3 DUP2 SLOAD PUSH2 0x118 SWAP1 PUSH2 0x3FB JUMP JUMPDEST DUP2 LT PUSH2 0x127 JUMPI PUSH2 0x126 PUSH2 0x697 JUMP JUMPDEST JUMPDEST DUP2 SLOAD PUSH1 0x1 AND ISZERO PUSH2 0x144 JUMPI SWAP1 PUSH0 MSTORE PUSH1 0x20 PUSH0 KECCAK256 SWAP1 PUSH1 0x20 SWAP2 DUP3 DUP3 DIV ADD SWAP2 SWAP1 MOD JUMPDEST SWAP1 SLOAD SWAP1 BYTE PUSH32 0x100000000000000000000000000000000000000000000000000000000000000 MUL SWAP1 POP SWAP2 SWAP1 POP JUMP JUMPDEST PUSH0 DUP1 DUP1 SLOAD PUSH2 0x17E SWAP1 PUSH2 0x3FB JUMP JUMPDEST SWAP1 POP SWAP1 POP SWAP1 JUMP JUMPDEST PUSH0 DUP1 SLOAD PUSH2 0x191 SWAP1 PUSH2 0x3FB JUMP JUMPDEST DUP1 PUSH1 0x1F ADD PUSH1 0x20 DUP1 SWAP2 DIV MUL PUSH1 0x20 ADD PUSH1 0x40 MLOAD SWAP1 DUP2 ADD PUSH1 0x40 MSTORE DUP1 SWAP3 SWAP2 SWAP1 DUP2 DUP2 MSTORE PUSH1 0x20 ADD DUP3 DUP1 SLOAD PUSH2 0x1BD SWAP1 PUSH2 0x3FB JUMP JUMPDEST DUP1 ISZERO PUSH2 0x208 JUMPI DUP1 PUSH1 0x1F LT PUSH2 0x1DF JUMPI PUSH2 0x100 DUP1 DUP4 SLOAD DIV MUL DUP4 MSTORE SWAP2 PUSH1 0x20 ADD SWAP2 PUSH2 0x208 JUMP JUMPDEST DUP3 ADD SWAP2 SWAP1 PUSH0 MSTORE PUSH1 0x20 PUSH0 KECCAK256 SWAP1 JUMPDEST DUP2 SLOAD DUP2 MSTORE SWAP1 PUSH1 0x1 ADD SWAP1 PUSH1 0x20 ADD DUP1 DUP4 GT PUSH2 0x1EB JUMPI DUP3 SWAP1 SUB PUSH1 0x1F AND DUP3 ADD SWAP2 JUMPDEST POP POP POP POP POP DUP2 JUMP JUMPDEST PUSH0 DUP1 REVERT JUMPDEST PUSH0 DUP2 SWAP1 POP SWAP2 SWAP1 POP JUMP JUMPDEST PUSH2 0x226 DUP2 PUSH2 0x214 JUMP JUMPDEST DUP2 EQ PUSH2 0x230 JUMPI PUSH0 DUP1 REVERT JUMPDEST POP JUMP JUMPDEST PUSH0 DUP2 CALLDATALOAD SWAP1 POP PUSH2 0x241 DUP2 PUSH2 0x21D JUMP JUMPDEST SWAP3 SWAP2 POP POP JUMP JUMPDEST PUSH0 PUSH1 0x20 DUP3 DUP5 SUB SLT ISZERO PUSH2 0x25C JUMPI PUSH2 0x25B PUSH2 0x210 JUMP JUMPDEST JUMPDEST PUSH0 PUSH2 0x269 DUP5 DUP3 DUP6 ADD PUSH2 0x233 JUMP JUMPDEST SWAP2 POP POP SWAP3 SWAP2 POP POP JUMP JUMPDEST PUSH0 PUSH32 0xFF00000000000000000000000000000000000000000000000000000000000000 DUP3 AND SWAP1 POP SWAP2 SWAP1 POP JUMP JUMPDEST PUSH2 0x2A6 DUP2 PUSH2 0x272 JUMP JUMPDEST DUP3 MSTORE POP POP JUMP JUMPDEST PUSH0 PUSH1 0x20 DUP3 ADD SWAP1 POP PUSH2 0x2BF PUSH0 DUP4 ADD DUP5 PUSH2 0x29D JUMP JUMPDEST SWAP3 SWAP2 POP POP JUMP JUMPDEST PUSH2 0x2CE DUP2 PUSH2 0x214 JUMP JUMPDEST DUP3 MSTORE POP POP JUMP JUMPDEST PUSH0 PUSH1 0x20 DUP3 ADD SWAP1 POP PUSH2 0x2E7 PUSH0 DUP4 ADD DUP5 PUSH2 0x2C5 JUMP JUMPDEST SWAP3 SWAP2 POP POP JUMP JUMPDEST PUSH0 DUP2 MLOAD SWAP1 POP SWAP2 SWAP1 POP JUMP JUMPDEST PUSH0 DUP3 DUP3 MSTORE PUSH1 0x20 DUP3 ADD SWAP1 POP SWAP3 SWAP2 POP POP JUMP JUMPDEST PUSH0 JUMPDEST DUP4 DUP2 LT ISZERO PUSH2 0x324 JUMPI DUP1 DUP3 ADD MLOAD DUP2 DUP5 ADD MSTORE PUSH1 0x20 DUP2 ADD SWAP1 POP PUSH2 0x309 JUMP JUMPDEST PUSH0 DUP5 DUP5 ADD MSTORE POP POP POP POP JUMP JUMPDEST PUSH0 PUSH1 0x1F NOT PUSH1 0x1F DUP4 ADD AND SWAP1 POP SWAP2 SWAP1 POP JUMP JUMPDEST PUSH0 PUSH2 0x349 DUP3 PUSH2 0x2ED JUMP JUMPDEST PUSH2 0x353 DUP2 DUP6 PUSH2 0x2F7 JUMP JUMPDEST SWAP4 POP PUSH2 0x363 DUP2 DUP6 PUSH1 0x20 DUP7 ADD PUSH2 0x307 JUMP JUMPDEST PUSH2 0x36C DUP2 PUSH2 0x32F JUMP JUMPDEST DUP5 ADD SWAP2 POP POP SWAP3 SWAP2 POP POP JUMP JUMPDEST PUSH0 PUSH1 0x20 DUP3 ADD SWAP1 POP DUP2 DUP2 SUB PUSH0 DUP4 ADD MSTORE PUSH2 0x38F DUP2 DUP5 PUSH2 0x33F JUMP JUMPDEST SWAP1 POP SWAP3 SWAP2 POP POP JUMP JUMPDEST PUSH0 DUP2 MLOAD SWAP1 POP SWAP2 SWAP1 POP JUMP JUMPDEST PUSH32 0x4E487B7100000000000000000000000000000000000000000000000000000000 PUSH0 MSTORE PUSH1 0x41 PUSH1 0x4 MSTORE PUSH1 0x24 PUSH0 REVERT JUMPDEST PUSH32 0x4E487B7100000000000000000000000000000000000000000000000000000000 PUSH0 MSTORE PUSH1 0x22 PUSH1 0x4 MSTORE PUSH1 0x24 PUSH0 REVERT JUMPDEST PUSH0 PUSH1 0x2 DUP3 DIV SWAP1 POP PUSH1 0x1 DUP3 AND DUP1 PUSH2 0x412 JUMPI PUSH1 0x7F DUP3 AND SWAP2 POP JUMPDEST PUSH1 0x20 DUP3 LT DUP2 SUB PUSH2 0x425 JUMPI PUSH2 0x424 PUSH2 0x3CE JUMP JUMPDEST JUMPDEST POP SWAP2 SWAP1 POP JUMP JUMPDEST PUSH0 DUP2 SWAP1 POP DUP2 PUSH0 MSTORE PUSH1 0x20 PUSH0 KECCAK256 SWAP1 POP SWAP2 SWAP1 POP JUMP JUMPDEST PUSH0 PUSH1 0x20 PUSH1 0x1F DUP4 ADD DIV SWAP1 POP SWAP2 SWAP1 POP JUMP JUMPDEST PUSH0 DUP3 DUP3 SHL SWAP1 POP SWAP3 SWAP2 POP POP JUMP JUMPDEST PUSH0 PUSH1 0x8 DUP4 MUL PUSH2 0x487 PUSH32 0xFFFFFFFFFFFFFFFFFFFFFFFFFFFFFFFFFFFFFFFFFFFFFFFFFFFFFFFFFFFFFFFF DUP3 PUSH2 0x44C JUMP JUMPDEST PUSH2 0x491 DUP7 DUP4 PUSH2 0x44C JUMP JUMPDEST SWAP6 POP DUP1 NOT DUP5 AND SWAP4 POP DUP1 DUP7 AND DUP5 OR SWAP3 POP POP POP SWAP4 SWAP3 POP POP POP JUMP JUMPDEST PUSH0 DUP2 SWAP1 POP SWAP2 SWAP1 POP JUMP JUMPDEST PUSH0 PUSH2 0x4CC PUSH2 0x4C7 PUSH2 0x4C2 DUP5 PUSH2 0x214 JUMP JUMPDEST PUSH2 0x4A9 JUMP JUMPDEST PUSH2 0x214 JUMP JUMPDEST SWAP1 POP SWAP2 SWAP1 POP JUMP JUMPDEST PUSH0 DUP2 SWAP1 POP SWAP2 SWAP1 POP JUMP JUMPDEST PUSH2 0x4E5 DUP4 PUSH2 0x4B2 JUMP JUMPDEST PUSH2 0x4F9 PUSH2 0x4F1 DUP3 PUSH2 0x4D3 JUMP JUMPDEST DUP5 DUP5 SLOAD PUSH2 0x458 JUMP JUMPDEST DUP3 SSTORE POP POP POP POP JUMP JUMPDEST PUSH0 SWAP1 JUMP JUMPDEST PUSH2 0x50D PUSH2 0x501 JUMP JUMPDEST PUSH2 0x518 DUP2 DUP5 DUP5 PUSH2 0x4DC JUMP JUMPDEST POP POP POP JUMP JUMPDEST JUMPDEST DUP2 DUP2 LT ISZERO PUSH2 0x53B JUMPI PUSH2 0x530 PUSH0 DUP3 PUSH2 0x505 JUMP JUMPDEST PUSH1 0x1 DUP2 ADD SWAP1 POP PUSH2 0x51E JUMP JUMPDEST POP POP JUMP JUMPDEST PUSH1 0x1F DUP3 GT ISZERO PUSH2 0x580 JUMPI PUSH2 0x551 DUP2 PUSH2 0x42B JUMP JUMPDEST PUSH2 0x55A DUP5 PUSH2 0x43D JUMP JUMPDEST DUP2 ADD PUSH1 0x20 DUP6 LT ISZERO PUSH2 0x569 JUMPI DUP2 SWAP1 POP JUMPDEST PUSH2 0x57D PUSH2 0x575 DUP6 PUSH2 0x43D JUMP JUMPDEST DUP4 ADD DUP3 PUSH2 0x51D JUMP JUMPDEST POP POP JUMPDEST POP POP POP JUMP JUMPDEST PUSH0 DUP3 DUP3 SHR SWAP1 POP SWAP3 SWAP2 POP POP JUMP JUMPDEST PUSH0 PUSH2 0x5A0 PUSH0 NOT DUP5 PUSH1 0x8 MUL PUSH2 0x585 JUMP JUMPDEST NOT DUP1 DUP4 AND SWAP2 POP POP SWAP3 SWAP2 POP POP JUMP JUMPDEST PUSH0 PUSH2 0x5B8 DUP4 DUP4 PUSH2 0x591 JUMP JUMPDEST SWAP2 POP DUP3 PUSH1 0x2 MUL DUP3 OR SWAP1 POP SWAP3 SWAP2 POP POP JUMP JUMPDEST PUSH2 0x5D1 DUP3 PUSH2 0x397 JUMP JUMPDEST PUSH8 0xFFFFFFFFFFFFFFFF DUP2 GT ISZERO PUSH2 0x5EA JUMPI PUSH2 0x5E9 PUSH2 0x3A1 JUMP JUMPDEST JUMPDEST PUSH2 0x5F4 DUP3 SLOAD PUSH2 0x3FB JUMP JUMPDEST PUSH2 0x5FF DUP3 DUP3 DUP6 PUSH2 0x53F JUMP JUMPDEST PUSH0 PUSH1 0x20 SWAP1 POP PUSH1 0x1F DUP4 GT PUSH1 0x1 DUP2 EQ PUSH2 0x630 JUMPI PUSH0 DUP5 ISZERO PUSH2 0x61E JUMPI DUP3 DUP8 ADD MLOAD SWAP1 POP JUMPDEST PUSH2 0x628 DUP6 DUP3 PUSH2 0x5AD JUMP JUMPDEST DUP7 SSTORE POP PUSH2 0x68F JUMP JUMPDEST PUSH1 0x1F NOT DUP5 AND PUSH2 0x63E DUP7 PUSH2 0x42B JUMP JUMPDEST PUSH0 JUMPDEST DUP3 DUP2 LT ISZERO PUSH2 0x665 JUMPI DUP5 DUP10 ADD MLOAD DUP3 SSTORE PUSH1 0x1 DUP3 ADD SWAP2 POP PUSH1 0x20 DUP6 ADD SWAP5 POP PUSH1 0x20 DUP2 ADD SWAP1 POP PUSH2 0x640 JUMP JUMPDEST DUP7 DUP4 LT ISZERO PUSH2 0x682 JUMPI DUP5 DUP10 ADD MLOAD PUSH2 0x67E PUSH1 0x1F DUP10 AND DUP3 PUSH2 0x591 JUMP JUMPDEST DUP4 SSTORE POP JUMPDEST PUSH1 0x1 PUSH1 0x2 DUP9 MUL ADD DUP9 SSTORE POP POP POP JUMPDEST POP POP POP POP POP POP JUMP JUMPDEST PUSH32 0x4E487B7100000000000000000000000000000000000000000000000000000000 PUSH0 MSTORE PUSH1 0x32 PUSH1 0x4 MSTORE PUSH1 0x24 PUSH0 REVERT INVALID LOG2 PUSH5 0x6970667358 0x22 SLT KECCAK256 0xEC INVALID MSTORE JUMP SWAP9 0xCB ADD ORIGIN SGT 0xD0 0xFC PUSH9 0x359287BC5788D0507D 0xD8 PUSH14 0x26DC0335E62337456464736F6C63 NUMBER STOP ADDMOD XOR STOP CALLER "
				},
				"gasEstimates": {
					"creation": {
						"codeDepositCost": "357200",
						"executionCost": "infinite",
						"totalCost": "infinite"
					},
					"external": {
						"arr()": "infinite",
						"getLength()": "2586",
						"getter(uint256)": "7175",
						"setter()": "infinite"
					}
				},
				"methodIdentifiers": {
					"arr()": "e81d53cf",
					"getLength()": "be1c766b",
					"getter(uint256)": "94cad55d",
					"setter()": "3f3108f7"
				}
			},
			"storageLayout": {
				"storage": [
					{
						"astId": 4,
						"contract": "Error Handling/Arrays/dynamicBytesArray.sol:DynamicByteArray",
						"label": "arr",
						"offset": 0,
						"slot": "0",
						"type": "t_bytes_storage"
					}
				],
				"types": {
					"t_bytes_storage": {
						"encoding": "bytes",
						"label": "bytes",
						"numberOfBytes": "32"
					}
				}
			},
			"userdoc": {
				"kind": "user",
				"methods": {},
				"version": 1
			}
		}
	}
}