{
	"data": {
		"bytecode": {
			"linkReferences": {},
			"object": "60806040526040518060400160405280600c81526020017f48657920486172736869746100000000000000000000000000000000000000008152505f908161004791906102bc565b50600460015f6101000a81548167ffffffffffffffff021916908367ffffffffffffffff16021790555034801561007c575f80fd5b5061038b565b5f81519050919050565b7f4e487b71000000000000000000000000000000000000000000000000000000005f52604160045260245ffd5b7f4e487b71000000000000000000000000000000000000000000000000000000005f52602260045260245ffd5b5f60028204905060018216806100fd57607f821691505b6020821081036101105761010f6100b9565b5b50919050565b5f819050815f5260205f209050919050565b5f6020601f8301049050919050565b5f82821b905092915050565b5f600883026101727fffffffffffffffffffffffffffffffffffffffffffffffffffffffffffffffff82610137565b61017c8683610137565b95508019841693508086168417925050509392505050565b5f819050919050565b5f819050919050565b5f6101c06101bb6101b684610194565b61019d565b610194565b9050919050565b5f819050919050565b6101d9836101a6565b6101ed6101e5826101c7565b848454610143565b825550505050565b5f90565b6102016101f5565b61020c8184846101d0565b505050565b5b8181101561022f576102245f826101f9565b600181019050610212565b5050565b601f8211156102745761024581610116565b61024e84610128565b8101602085101561025d578190505b61027161026985610128565b830182610211565b50505b505050565b5f82821c905092915050565b5f6102945f1984600802610279565b1980831691505092915050565b5f6102ac8383610285565b9150826002028217905092915050565b6102c582610082565b67ffffffffffffffff8111156102de576102dd61008c565b5b6102e882546100e6565b6102f3828285610233565b5f60209050601f831160018114610324575f8415610312578287015190505b61031c85826102a1565b865550610383565b601f19841661033286610116565b5f5b8281101561035957848901518255600182019150602085019450602081019050610334565b868310156103765784890151610372601f891682610285565b8355505b6001600288020188555050505b505050505050565b610290806103985f395ff3fe608060405234801561000f575f80fd5b5060043610610034575f3560e01c80634e70b1dc14610038578063bde2b57314610056575b5f80fd5b610040610074565b60405161004d919061013a565b60405180910390f35b61005e61008d565b60405161006b91906101dd565b60405180910390f35b60015f9054906101000a900467ffffffffffffffff1681565b5f80546100999061022a565b80601f01602080910402602001604051908101604052809291908181526020018280546100c59061022a565b80156101105780601f106100e757610100808354040283529160200191610110565b820191905f5260205f20905b8154815290600101906020018083116100f357829003601f168201915b505050505081565b5f67ffffffffffffffff82169050919050565b61013481610118565b82525050565b5f60208201905061014d5f83018461012b565b92915050565b5f81519050919050565b5f82825260208201905092915050565b5f5b8381101561018a57808201518184015260208101905061016f565b5f8484015250505050565b5f601f19601f8301169050919050565b5f6101af82610153565b6101b9818561015d565b93506101c981856020860161016d565b6101d281610195565b840191505092915050565b5f6020820190508181035f8301526101f581846101a5565b905092915050565b7f4e487b71000000000000000000000000000000000000000000000000000000005f52602260045260245ffd5b5f600282049050600182168061024157607f821691505b602082108103610254576102536101fd565b5b5091905056fea2646970667358221220f324a8476fa9394f7272df4484bf0e73814b8c5095826426861451f22e5827bb64736f6c63430008180033",
			"opcodes": "PUSH1 0x80 PUSH1 0x40 MSTORE PUSH1 0x40 MLOAD DUP1 PUSH1 0x40 ADD PUSH1 0x40 MSTORE DUP1 PUSH1 0xC DUP2 MSTORE PUSH1 0x20 ADD PUSH32 0x4865792048617273686974610000000000000000000000000000000000000000 DUP2 MSTORE POP PUSH0 SWAP1 DUP2 PUSH2 0x47 SWAP2 SWAP1 PUSH2 0x2BC JUMP JUMPDEST POP PUSH1 0x4 PUSH1 0x1 PUSH0 PUSH2 0x100 EXP DUP2 SLOAD DUP2 PUSH8 0xFFFFFFFFFFFFFFFF MUL NOT AND SWAP1 DUP4 PUSH8 0xFFFFFFFFFFFFFFFF AND MUL OR SWAP1 SSTORE POP CALLVALUE DUP1 ISZERO PUSH2 0x7C JUMPI PUSH0 DUP1 REVERT JUMPDEST POP PUSH2 0x38B JUMP JUMPDEST PUSH0 DUP2 MLOAD SWAP1 POP SWAP2 SWAP1 POP JUMP JUMPDEST PUSH32 0x4E487B7100000000000000000000000000000000000000000000000000000000 PUSH0 MSTORE PUSH1 0x41 PUSH1 0x4 MSTORE PUSH1 0x24 PUSH0 REVERT JUMPDEST PUSH32 0x4E487B7100000000000000000000000000000000000000000000000000000000 PUSH0 MSTORE PUSH1 0x22 PUSH1 0x4 MSTORE PUSH1 0x24 PUSH0 REVERT JUMPDEST PUSH0 PUSH1 0x2 DUP3 DIV SWAP1 POP PUSH1 0x1 DUP3 AND DUP1 PUSH2 0xFD JUMPI PUSH1 0x7F DUP3 AND SWAP2 POP JUMPDEST PUSH1 0x20 DUP3 LT DUP2 SUB PUSH2 0x110 JUMPI PUSH2 0x10F PUSH2 0xB9 JUMP JUMPDEST JUMPDEST POP SWAP2 SWAP1 POP JUMP JUMPDEST PUSH0 DUP2 SWAP1 POP DUP2 PUSH0 MSTORE PUSH1 0x20 PUSH0 KECCAK256 SWAP1 POP SWAP2 SWAP1 POP JUMP JUMPDEST PUSH0 PUSH1 0x20 PUSH1 0x1F DUP4 ADD DIV SWAP1 POP SWAP2 SWAP1 POP JUMP JUMPDEST PUSH0 DUP3 DUP3 SHL SWAP1 POP SWAP3 SWAP2 POP POP JUMP JUMPDEST PUSH0 PUSH1 0x8 DUP4 MUL PUSH2 0x172 PUSH32 0xFFFFFFFFFFFFFFFFFFFFFFFFFFFFFFFFFFFFFFFFFFFFFFFFFFFFFFFFFFFFFFFF DUP3 PUSH2 0x137 JUMP JUMPDEST PUSH2 0x17C DUP7 DUP4 PUSH2 0x137 JUMP JUMPDEST SWAP6 POP DUP1 NOT DUP5 AND SWAP4 POP DUP1 DUP7 AND DUP5 OR SWAP3 POP POP POP SWAP4 SWAP3 POP POP POP JUMP JUMPDEST PUSH0 DUP2 SWAP1 POP SWAP2 SWAP1 POP JUMP JUMPDEST PUSH0 DUP2 SWAP1 POP SWAP2 SWAP1 POP JUMP JUMPDEST PUSH0 PUSH2 0x1C0 PUSH2 0x1BB PUSH2 0x1B6 DUP5 PUSH2 0x194 JUMP JUMPDEST PUSH2 0x19D JUMP JUMPDEST PUSH2 0x194 JUMP JUMPDEST SWAP1 POP SWAP2 SWAP1 POP JUMP JUMPDEST PUSH0 DUP2 SWAP1 POP SWAP2 SWAP1 POP JUMP JUMPDEST PUSH2 0x1D9 DUP4 PUSH2 0x1A6 JUMP JUMPDEST PUSH2 0x1ED PUSH2 0x1E5 DUP3 PUSH2 0x1C7 JUMP JUMPDEST DUP5 DUP5 SLOAD PUSH2 0x143 JUMP JUMPDEST DUP3 SSTORE POP POP POP POP JUMP JUMPDEST PUSH0 SWAP1 JUMP JUMPDEST PUSH2 0x201 PUSH2 0x1F5 JUMP JUMPDEST PUSH2 0x20C DUP2 DUP5 DUP5 PUSH2 0x1D0 JUMP JUMPDEST POP POP POP JUMP JUMPDEST JUMPDEST DUP2 DUP2 LT ISZERO PUSH2 0x22F JUMPI PUSH2 0x224 PUSH0 DUP3 PUSH2 0x1F9 JUMP JUMPDEST PUSH1 0x1 DUP2 ADD SWAP1 POP PUSH2 0x212 JUMP JUMPDEST POP POP JUMP JUMPDEST PUSH1 0x1F DUP3 GT ISZERO PUSH2 0x274 JUMPI PUSH2 0x245 DUP2 PUSH2 0x116 JUMP JUMPDEST PUSH2 0x24E DUP5 PUSH2 0x128 JUMP JUMPDEST DUP2 ADD PUSH1 0x20 DUP6 LT ISZERO PUSH2 0x25D JUMPI DUP2 SWAP1 POP JUMPDEST PUSH2 0x271 PUSH2 0x269 DUP6 PUSH2 0x128 JUMP JUMPDEST DUP4 ADD DUP3 PUSH2 0x211 JUMP JUMPDEST POP POP JUMPDEST POP POP POP JUMP JUMPDEST PUSH0 DUP3 DUP3 SHR SWAP1 POP SWAP3 SWAP2 POP POP JUMP JUMPDEST PUSH0 PUSH2 0x294 PUSH0 NOT DUP5 PUSH1 0x8 MUL PUSH2 0x279 JUMP JUMPDEST NOT DUP1 DUP4 AND SWAP2 POP POP SWAP3 SWAP2 POP POP JUMP JUMPDEST PUSH0 PUSH2 0x2AC DUP4 DUP4 PUSH2 0x285 JUMP JUMPDEST SWAP2 POP DUP3 PUSH1 0x2 MUL DUP3 OR SWAP1 POP SWAP3 SWAP2 POP POP JUMP JUMPDEST PUSH2 0x2C5 DUP3 PUSH2 0x82 JUMP JUMPDEST PUSH8 0xFFFFFFFFFFFFFFFF DUP2 GT ISZERO PUSH2 0x2DE JUMPI PUSH2 0x2DD PUSH2 0x8C JUMP JUMPDEST JUMPDEST PUSH2 0x2E8 DUP3 SLOAD PUSH2 0xE6 JUMP JUMPDEST PUSH2 0x2F3 DUP3 DUP3 DUP6 PUSH2 0x233 JUMP JUMPDEST PUSH0 PUSH1 0x20 SWAP1 POP PUSH1 0x1F DUP4 GT PUSH1 0x1 DUP2 EQ PUSH2 0x324 JUMPI PUSH0 DUP5 ISZERO PUSH2 0x312 JUMPI DUP3 DUP8 ADD MLOAD SWAP1 POP JUMPDEST PUSH2 0x31C DUP6 DUP3 PUSH2 0x2A1 JUMP JUMPDEST DUP7 SSTORE POP PUSH2 0x383 JUMP JUMPDEST PUSH1 0x1F NOT DUP5 AND PUSH2 0x332 DUP7 PUSH2 0x116 JUMP JUMPDEST PUSH0 JUMPDEST DUP3 DUP2 LT ISZERO PUSH2 0x359 JUMPI DUP5 DUP10 ADD MLOAD DUP3 SSTORE PUSH1 0x1 DUP3 ADD SWAP2 POP PUSH1 0x20 DUP6 ADD SWAP5 POP PUSH1 0x20 DUP2 ADD SWAP1 POP PUSH2 0x334 JUMP JUMPDEST DUP7 DUP4 LT ISZERO PUSH2 0x376 JUMPI DUP5 DUP10 ADD MLOAD PUSH2 0x372 PUSH1 0x1F DUP10 AND DUP3 PUSH2 0x285 JUMP JUMPDEST DUP4 SSTORE POP JUMPDEST PUSH1 0x1 PUSH1 0x2 DUP9 MUL ADD DUP9 SSTORE POP POP POP JUMPDEST POP POP POP POP POP POP JUMP JUMPDEST PUSH2 0x290 DUP1 PUSH2 0x398 PUSH0 CODECOPY PUSH0 RETURN INVALID PUSH1 0x80 PUSH1 0x40 MSTORE CALLVALUE DUP1 ISZERO PUSH2 0xF JUMPI PUSH0 DUP1 REVERT JUMPDEST POP PUSH1 0x4 CALLDATASIZE LT PUSH2 0x34 JUMPI PUSH0 CALLDATALOAD PUSH1 0xE0 SHR DUP1 PUSH4 0x4E70B1DC EQ PUSH2 0x38 JUMPI DUP1 PUSH4 0xBDE2B573 EQ PUSH2 0x56 JUMPI JUMPDEST PUSH0 DUP1 REVERT JUMPDEST PUSH2 0x40 PUSH2 0x74 JUMP JUMPDEST PUSH1 0x40 MLOAD PUSH2 0x4D SWAP2 SWAP1 PUSH2 0x13A JUMP JUMPDEST PUSH1 0x40 MLOAD DUP1 SWAP2 SUB SWAP1 RETURN JUMPDEST PUSH2 0x5E PUSH2 0x8D JUMP JUMPDEST PUSH1 0x40 MLOAD PUSH2 0x6B SWAP2 SWAP1 PUSH2 0x1DD JUMP JUMPDEST PUSH1 0x40 MLOAD DUP1 SWAP2 SUB SWAP1 RETURN JUMPDEST PUSH1 0x1 PUSH0 SWAP1 SLOAD SWAP1 PUSH2 0x100 EXP SWAP1 DIV PUSH8 0xFFFFFFFFFFFFFFFF AND DUP2 JUMP JUMPDEST PUSH0 DUP1 SLOAD PUSH2 0x99 SWAP1 PUSH2 0x22A JUMP JUMPDEST DUP1 PUSH1 0x1F ADD PUSH1 0x20 DUP1 SWAP2 DIV MUL PUSH1 0x20 ADD PUSH1 0x40 MLOAD SWAP1 DUP2 ADD PUSH1 0x40 MSTORE DUP1 SWAP3 SWAP2 SWAP1 DUP2 DUP2 MSTORE PUSH1 0x20 ADD DUP3 DUP1 SLOAD PUSH2 0xC5 SWAP1 PUSH2 0x22A JUMP JUMPDEST DUP1 ISZERO PUSH2 0x110 JUMPI DUP1 PUSH1 0x1F LT PUSH2 0xE7 JUMPI PUSH2 0x100 DUP1 DUP4 SLOAD DIV MUL DUP4 MSTORE SWAP2 PUSH1 0x20 ADD SWAP2 PUSH2 0x110 JUMP JUMPDEST DUP3 ADD SWAP2 SWAP1 PUSH0 MSTORE PUSH1 0x20 PUSH0 KECCAK256 SWAP1 JUMPDEST DUP2 SLOAD DUP2 MSTORE SWAP1 PUSH1 0x1 ADD SWAP1 PUSH1 0x20 ADD DUP1 DUP4 GT PUSH2 0xF3 JUMPI DUP3 SWAP1 SUB PUSH1 0x1F AND DUP3 ADD SWAP2 JUMPDEST POP POP POP POP POP DUP2 JUMP JUMPDEST PUSH0 PUSH8 0xFFFFFFFFFFFFFFFF DUP3 AND SWAP1 POP SWAP2 SWAP1 POP JUMP JUMPDEST PUSH2 0x134 DUP2 PUSH2 0x118 JUMP JUMPDEST DUP3 MSTORE POP POP JUMP JUMPDEST PUSH0 PUSH1 0x20 DUP3 ADD SWAP1 POP PUSH2 0x14D PUSH0 DUP4 ADD DUP5 PUSH2 0x12B JUMP JUMPDEST SWAP3 SWAP2 POP POP JUMP JUMPDEST PUSH0 DUP2 MLOAD SWAP1 POP SWAP2 SWAP1 POP JUMP JUMPDEST PUSH0 DUP3 DUP3 MSTORE PUSH1 0x20 DUP3 ADD SWAP1 POP SWAP3 SWAP2 POP POP JUMP JUMPDEST PUSH0 JUMPDEST DUP4 DUP2 LT ISZERO PUSH2 0x18A JUMPI DUP1 DUP3 ADD MLOAD DUP2 DUP5 ADD MSTORE PUSH1 0x20 DUP2 ADD SWAP1 POP PUSH2 0x16F JUMP JUMPDEST PUSH0 DUP5 DUP5 ADD MSTORE POP POP POP POP JUMP JUMPDEST PUSH0 PUSH1 0x1F NOT PUSH1 0x1F DUP4 ADD AND SWAP1 POP SWAP2 SWAP1 POP JUMP JUMPDEST PUSH0 PUSH2 0x1AF DUP3 PUSH2 0x153 JUMP JUMPDEST PUSH2 0x1B9 DUP2 DUP6 PUSH2 0x15D JUMP JUMPDEST SWAP4 POP PUSH2 0x1C9 DUP2 DUP6 PUSH1 0x20 DUP7 ADD PUSH2 0x16D JUMP JUMPDEST PUSH2 0x1D2 DUP2 PUSH2 0x195 JUMP JUMPDEST DUP5 ADD SWAP2 POP POP SWAP3 SWAP2 POP POP JUMP JUMPDEST PUSH0 PUSH1 0x20 DUP3 ADD SWAP1 POP DUP2 DUP2 SUB PUSH0 DUP4 ADD MSTORE PUSH2 0x1F5 DUP2 DUP5 PUSH2 0x1A5 JUMP JUMPDEST SWAP1 POP SWAP3 SWAP2 POP POP JUMP JUMPDEST PUSH32 0x4E487B7100000000000000000000000000000000000000000000000000000000 PUSH0 MSTORE PUSH1 0x22 PUSH1 0x4 MSTORE PUSH1 0x24 PUSH0 REVERT JUMPDEST PUSH0 PUSH1 0x2 DUP3 DIV SWAP1 POP PUSH1 0x1 DUP3 AND DUP1 PUSH2 0x241 JUMPI PUSH1 0x7F DUP3 AND SWAP2 POP JUMPDEST PUSH1 0x20 DUP3 LT DUP2 SUB PUSH2 0x254 JUMPI PUSH2 0x253 PUSH2 0x1FD JUMP JUMPDEST JUMPDEST POP SWAP2 SWAP1 POP JUMP INVALID LOG2 PUSH5 0x6970667358 0x22 SLT KECCAK256 RETURN 0x24 0xA8 SELFBALANCE PUSH16 0xA9394F7272DF4484BF0E73814B8C5095 DUP3 PUSH5 0x26861451F2 0x2E PC 0x27 0xBB PUSH5 0x736F6C6343 STOP ADDMOD XOR STOP CALLER "
		},
		"gasEstimates": {
			"creation": {
				"codeDepositCost": "131200",
				"executionCost": "infinite",
				"totalCost": "infinite"
			},
			"external": {
				"hey()": "infinite",
				"num()": "2444"
			}
		},
		"methodIdentifiers": {
			"hey()": "bde2b573",
			"num()": "4e70b1dc"
		}
	},
	"abi": [
		{
			"inputs": [],
			"name": "hey",
			"outputs": [
				{
					"internalType": "string",
					"name": "",
					"type": "string"
				}
			],
			"stateMutability": "view",
			"type": "function"
		},
		{
			"inputs": [],
			"name": "num",
			"outputs": [
				{
					"internalType": "uint64",
					"name": "",
					"type": "uint64"
				}
			],
			"stateMutability": "view",
			"type": "function"
		}
	]
}